{
  "contractName": "Sector7slums",
  "abi": [
    {
      "inputs": [
        {
          "internalType": "address",
          "name": "_VRFCoordinator",
          "type": "address"
        },
        {
          "internalType": "address",
          "name": "_LinkToken",
          "type": "address"
        },
        {
          "internalType": "bytes32",
          "name": "_keyhash",
          "type": "bytes32"
        }
      ],
      "stateMutability": "nonpayable",
      "type": "constructor"
    },
    {
      "anonymous": false,
      "inputs": [
        {
          "indexed": true,
          "internalType": "address",
          "name": "owner",
          "type": "address"
        },
        {
          "indexed": true,
          "internalType": "address",
          "name": "approved",
          "type": "address"
        },
        {
          "indexed": true,
          "internalType": "uint256",
          "name": "tokenId",
          "type": "uint256"
        }
      ],
      "name": "Approval",
      "type": "event"
    },
    {
      "anonymous": false,
      "inputs": [
        {
          "indexed": true,
          "internalType": "address",
          "name": "owner",
          "type": "address"
        },
        {
          "indexed": true,
          "internalType": "address",
          "name": "operator",
          "type": "address"
        },
        {
          "indexed": false,
          "internalType": "bool",
          "name": "approved",
          "type": "bool"
        }
      ],
      "name": "ApprovalForAll",
      "type": "event"
    },
    {
      "anonymous": false,
      "inputs": [
        {
          "indexed": true,
          "internalType": "address",
          "name": "previousOwner",
          "type": "address"
        },
        {
          "indexed": true,
          "internalType": "address",
          "name": "newOwner",
          "type": "address"
        }
      ],
      "name": "OwnershipTransferred",
      "type": "event"
    },
    {
      "anonymous": false,
      "inputs": [
        {
          "indexed": true,
          "internalType": "address",
          "name": "from",
          "type": "address"
        },
        {
          "indexed": true,
          "internalType": "address",
          "name": "to",
          "type": "address"
        },
        {
          "indexed": true,
          "internalType": "uint256",
          "name": "tokenId",
          "type": "uint256"
        }
      ],
      "name": "Transfer",
      "type": "event"
    },
    {
      "inputs": [],
      "name": "LinkToken",
      "outputs": [
        {
          "internalType": "address",
          "name": "",
          "type": "address"
        }
      ],
      "stateMutability": "view",
      "type": "function",
      "constant": true
    },
    {
      "inputs": [],
      "name": "VRFCoordinator",
      "outputs": [
        {
          "internalType": "address",
          "name": "",
          "type": "address"
        }
      ],
      "stateMutability": "view",
      "type": "function",
      "constant": true
    },
    {
      "inputs": [
        {
          "internalType": "uint256",
          "name": "",
          "type": "uint256"
        }
      ],
      "name": "aeriths",
      "outputs": [
        {
          "internalType": "uint256",
          "name": "Strength",
          "type": "uint256"
        },
        {
          "internalType": "uint256",
          "name": "Magic",
          "type": "uint256"
        },
        {
          "internalType": "uint256",
          "name": "Vitality",
          "type": "uint256"
        },
        {
          "internalType": "uint256",
          "name": "Spirit",
          "type": "uint256"
        },
        {
          "internalType": "uint256",
          "name": "Luck",
          "type": "uint256"
        },
        {
          "internalType": "uint256",
          "name": "Speed",
          "type": "uint256"
        },
        {
          "internalType": "uint256",
          "name": "Level",
          "type": "uint256"
        },
        {
          "internalType": "string",
          "name": "name",
          "type": "string"
        }
      ],
      "stateMutability": "view",
      "type": "function",
      "constant": true
    },
    {
      "inputs": [
        {
          "internalType": "address",
          "name": "to",
          "type": "address"
        },
        {
          "internalType": "uint256",
          "name": "tokenId",
          "type": "uint256"
        }
      ],
      "name": "approve",
      "outputs": [],
      "stateMutability": "nonpayable",
      "type": "function"
    },
    {
      "inputs": [
        {
          "internalType": "address",
          "name": "owner",
          "type": "address"
        }
      ],
      "name": "balanceOf",
      "outputs": [
        {
          "internalType": "uint256",
          "name": "",
          "type": "uint256"
        }
      ],
      "stateMutability": "view",
      "type": "function",
      "constant": true
    },
    {
      "inputs": [
        {
          "internalType": "uint256",
          "name": "tokenId",
          "type": "uint256"
        }
      ],
      "name": "getApproved",
      "outputs": [
        {
          "internalType": "address",
          "name": "",
          "type": "address"
        }
      ],
      "stateMutability": "view",
      "type": "function",
      "constant": true
    },
    {
      "inputs": [
        {
          "internalType": "address",
          "name": "owner",
          "type": "address"
        },
        {
          "internalType": "address",
          "name": "operator",
          "type": "address"
        }
      ],
      "name": "isApprovedForAll",
      "outputs": [
        {
          "internalType": "bool",
          "name": "",
          "type": "bool"
        }
      ],
      "stateMutability": "view",
      "type": "function",
      "constant": true
    },
    {
      "inputs": [],
      "name": "name",
      "outputs": [
        {
          "internalType": "string",
          "name": "",
          "type": "string"
        }
      ],
      "stateMutability": "view",
      "type": "function",
      "constant": true
    },
    {
      "inputs": [],
      "name": "owner",
      "outputs": [
        {
          "internalType": "address",
          "name": "",
          "type": "address"
        }
      ],
      "stateMutability": "view",
      "type": "function",
      "constant": true
    },
    {
      "inputs": [
        {
          "internalType": "uint256",
          "name": "tokenId",
          "type": "uint256"
        }
      ],
      "name": "ownerOf",
      "outputs": [
        {
          "internalType": "address",
          "name": "",
          "type": "address"
        }
      ],
      "stateMutability": "view",
      "type": "function",
      "constant": true
    },
    {
      "inputs": [],
      "name": "randomResult",
      "outputs": [
        {
          "internalType": "uint256",
          "name": "",
          "type": "uint256"
        }
      ],
      "stateMutability": "view",
      "type": "function",
      "constant": true
    },
    {
      "inputs": [
        {
          "internalType": "bytes32",
          "name": "requestId",
          "type": "bytes32"
        },
        {
          "internalType": "uint256",
          "name": "randomness",
          "type": "uint256"
        }
      ],
      "name": "rawFulfillRandomness",
      "outputs": [],
      "stateMutability": "nonpayable",
      "type": "function"
    },
    {
      "inputs": [],
      "name": "renounceOwnership",
      "outputs": [],
      "stateMutability": "nonpayable",
      "type": "function"
    },
    {
      "inputs": [
        {
          "internalType": "address",
          "name": "from",
          "type": "address"
        },
        {
          "internalType": "address",
          "name": "to",
          "type": "address"
        },
        {
          "internalType": "uint256",
          "name": "tokenId",
          "type": "uint256"
        }
      ],
      "name": "safeTransferFrom",
      "outputs": [],
      "stateMutability": "nonpayable",
      "type": "function"
    },
    {
      "inputs": [
        {
          "internalType": "address",
          "name": "from",
          "type": "address"
        },
        {
          "internalType": "address",
          "name": "to",
          "type": "address"
        },
        {
          "internalType": "uint256",
          "name": "tokenId",
          "type": "uint256"
        },
        {
          "internalType": "bytes",
          "name": "_data",
          "type": "bytes"
        }
      ],
      "name": "safeTransferFrom",
      "outputs": [],
      "stateMutability": "nonpayable",
      "type": "function"
    },
    {
      "inputs": [
        {
          "internalType": "address",
          "name": "operator",
          "type": "address"
        },
        {
          "internalType": "bool",
          "name": "approved",
          "type": "bool"
        }
      ],
      "name": "setApprovalForAll",
      "outputs": [],
      "stateMutability": "nonpayable",
      "type": "function"
    },
    {
      "inputs": [
        {
          "internalType": "bytes4",
          "name": "interfaceId",
          "type": "bytes4"
        }
      ],
      "name": "supportsInterface",
      "outputs": [
        {
          "internalType": "bool",
          "name": "",
          "type": "bool"
        }
      ],
      "stateMutability": "view",
      "type": "function",
      "constant": true
    },
    {
      "inputs": [],
      "name": "symbol",
      "outputs": [
        {
          "internalType": "string",
          "name": "",
          "type": "string"
        }
      ],
      "stateMutability": "view",
      "type": "function",
      "constant": true
    },
    {
      "inputs": [
        {
          "internalType": "uint256",
          "name": "tokenId",
          "type": "uint256"
        }
      ],
      "name": "tokenURI",
      "outputs": [
        {
          "internalType": "string",
          "name": "",
          "type": "string"
        }
      ],
      "stateMutability": "view",
      "type": "function",
      "constant": true
    },
    {
      "inputs": [
        {
          "internalType": "address",
          "name": "from",
          "type": "address"
        },
        {
          "internalType": "address",
          "name": "to",
          "type": "address"
        },
        {
          "internalType": "uint256",
          "name": "tokenId",
          "type": "uint256"
        }
      ],
      "name": "transferFrom",
      "outputs": [],
      "stateMutability": "nonpayable",
      "type": "function"
    },
    {
      "inputs": [
        {
          "internalType": "address",
          "name": "newOwner",
          "type": "address"
        }
      ],
      "name": "transferOwnership",
      "outputs": [],
      "stateMutability": "nonpayable",
      "type": "function"
    },
    {
      "inputs": [
        {
          "internalType": "string",
          "name": "aerith",
          "type": "string"
        }
      ],
      "name": "requestNewRandomAerith",
      "outputs": [
        {
          "internalType": "bytes32",
          "name": "",
          "type": "bytes32"
        }
      ],
      "stateMutability": "nonpayable",
      "type": "function"
    },
    {
      "inputs": [
        {
          "internalType": "uint256",
          "name": "tokenId",
          "type": "uint256"
        }
      ],
      "name": "getTokenURI",
      "outputs": [
        {
          "internalType": "string",
          "name": "",
          "type": "string"
        }
      ],
      "stateMutability": "view",
      "type": "function",
      "constant": true
    },
    {
      "inputs": [
        {
          "internalType": "uint256",
          "name": "tokenId",
          "type": "uint256"
        },
        {
          "internalType": "string",
          "name": "_tokenURI",
          "type": "string"
        }
      ],
      "name": "setTokenURI",
      "outputs": [],
      "stateMutability": "nonpayable",
      "type": "function"
    },
    {
      "inputs": [
        {
          "internalType": "uint256",
          "name": "tokenId",
          "type": "uint256"
        }
      ],
      "name": "getLevel",
      "outputs": [
        {
          "internalType": "uint256",
          "name": "",
          "type": "uint256"
        }
      ],
      "stateMutability": "view",
      "type": "function",
      "constant": true
    },
    {
      "inputs": [],
      "name": "getNumberOfAeriths",
      "outputs": [
        {
          "internalType": "uint256",
          "name": "",
          "type": "uint256"
        }
      ],
      "stateMutability": "view",
      "type": "function",
      "constant": true
    },
    {
      "inputs": [
        {
          "internalType": "uint256",
          "name": "tokenId",
          "type": "uint256"
        }
      ],
      "name": "getAerithsOverView",
      "outputs": [
        {
          "internalType": "string",
          "name": "",
          "type": "string"
        },
        {
          "internalType": "uint256",
          "name": "",
          "type": "uint256"
        },
        {
          "internalType": "uint256",
          "name": "",
          "type": "uint256"
        },
        {
          "internalType": "uint256",
          "name": "",
          "type": "uint256"
        }
      ],
      "stateMutability": "view",
      "type": "function",
      "constant": true
    },
    {
      "inputs": [
        {
          "internalType": "uint256",
          "name": "tokenId",
          "type": "uint256"
        }
      ],
      "name": "getAerithsStats",
      "outputs": [
        {
          "internalType": "uint256",
          "name": "",
          "type": "uint256"
        },
        {
          "internalType": "uint256",
          "name": "",
          "type": "uint256"
        },
        {
          "internalType": "uint256",
          "name": "",
          "type": "uint256"
        },
        {
          "internalType": "uint256",
          "name": "",
          "type": "uint256"
        },
        {
          "internalType": "uint256",
          "name": "",
          "type": "uint256"
        },
        {
          "internalType": "uint256",
          "name": "",
          "type": "uint256"
        },
        {
          "internalType": "uint256",
          "name": "",
          "type": "uint256"
        }
      ],
      "stateMutability": "view",
      "type": "function",
      "constant": true
    }
  ],
  "bytecode": "0x60c06040523480156200001157600080fd5b50604051620046fd380380620046fd8339818101604052810190620000379190620003b6565b82826040518060400160405280600c81526020017f536563746f7237736c756d7300000000000000000000000000000000000000008152506040518060400160405280600381526020017f73377300000000000000000000000000000000000000000000000000000000008152508160009080519060200190620000bd929190620002d8565b508060019080519060200190620000d6929190620002d8565b5050508173ffffffffffffffffffffffffffffffffffffffff1660a08173ffffffffffffffffffffffffffffffffffffffff1660601b815250508073ffffffffffffffffffffffffffffffffffffffff1660808173ffffffffffffffffffffffffffffffffffffffff1660601b815250505050620001696200015d6200020a60201b60201c565b6200021260201b60201c565b82600b60006101000a81548173ffffffffffffffffffffffffffffffffffffffff021916908373ffffffffffffffffffffffffffffffffffffffff16021790555081600c60006101000a81548173ffffffffffffffffffffffffffffffffffffffff021916908373ffffffffffffffffffffffffffffffffffffffff1602179055508060088190555067016345785d8a0000600981905550505050620004e3565b600033905090565b6000600760009054906101000a900473ffffffffffffffffffffffffffffffffffffffff16905081600760006101000a81548173ffffffffffffffffffffffffffffffffffffffff021916908373ffffffffffffffffffffffffffffffffffffffff1602179055508173ffffffffffffffffffffffffffffffffffffffff168173ffffffffffffffffffffffffffffffffffffffff167f8be0079c531659141344cd1fd0a4f28419497f9722a3daafe3b4186f6b6457e060405160405180910390a35050565b828054620002e6906200044a565b90600052602060002090601f0160209004810192826200030a576000855562000356565b82601f106200032557805160ff191683800117855562000356565b8280016001018555821562000356579182015b828111156200035557825182559160200191906001019062000338565b5b50905062000365919062000369565b5090565b5b80821115620003845760008160009055506001016200036a565b5090565b6000815190506200039981620004af565b92915050565b600081519050620003b081620004c9565b92915050565b600080600060608486031215620003cc57600080fd5b6000620003dc8682870162000388565b9350506020620003ef8682870162000388565b925050604062000402868287016200039f565b9150509250925092565b600062000419826200042a565b9050919050565b6000819050919050565b600073ffffffffffffffffffffffffffffffffffffffff82169050919050565b600060028204905060018216806200046357607f821691505b602082108114156200047a576200047962000480565b5b50919050565b7f4e487b7100000000000000000000000000000000000000000000000000000000600052602260045260246000fd5b620004ba816200040c565b8114620004c657600080fd5b50565b620004d48162000420565b8114620004e057600080fd5b50565b60805160601c60a05160601c6141e06200051d600039600081816114820152611f56015260008181610ded0152611f1a01526141e06000f3fe608060405234801561001057600080fd5b50600436106101c45760003560e01c80636352211e116100f957806395d89b4111610097578063c87b56dd11610071578063c87b56dd1461053b578063e985e9c51461056b578063f2fde38b1461059b578063f3884290146105b7576101c4565b806395d89b41146104e5578063a22cb46514610503578063b88d4fde1461051f576101c4565b80638592578d116100d35780638592578d1461044557806386481d401461047b5780638da5cb5b146104ab57806394985ddd146104c9576101c4565b80636352211e146103db57806370a082311461040b578063715018a61461043b576101c4565b806323b872dd116101665780633bb3a24d116101405780633bb3a24d1461035357806342619f661461038357806342842e0e146103a15780634f8e2fdf146103bd576101c4565b806323b872dd146102e957806333b60863146103055780633a68219714610323576101c4565b8063095ea7b3116101a2578063095ea7b3146102475780631187db7114610263578063162094c4146102965780631a484d99146102b2576101c4565b806301ffc9a7146101c957806306fdde03146101f9578063081812fc14610217575b600080fd5b6101e360048036038101906101de9190612ecb565b6105d5565b6040516101f091906138da565b60405180910390f35b6102016106b7565b60405161020e919061397e565b60405180910390f35b610231600480360381019061022c9190612f5e565b610749565b60405161023e9190613835565b60405180910390f35b610261600480360381019061025c9190612e2a565b6107ce565b005b61027d60048036038101906102789190612f5e565b6108e6565b60405161028d94939291906139a0565b60405180910390f35b6102b060048036038101906102ab9190612fb0565b610c22565b005b6102cc60048036038101906102c79190612f5e565b610c80565b6040516102e0989796959493929190613cd6565b60405180910390f35b61030360048036038101906102fe9190612d24565b610d60565b005b61030d610dc0565b60405161031a9190613835565b60405180910390f35b61033d60048036038101906103389190612f1d565b610de6565b60405161034a91906138f5565b60405180910390f35b61036d60048036038101906103689190612f5e565b610f71565b60405161037a919061397e565b60405180910390f35b61038b610f83565b6040516103989190613c4c565b60405180910390f35b6103bb60048036038101906103b69190612d24565b610f89565b005b6103c5610fa9565b6040516103d29190613835565b60405180910390f35b6103f560048036038101906103f09190612f5e565b610fcf565b6040516104029190613835565b60405180910390f35b61042560048036038101906104209190612cbf565b611081565b6040516104329190613c4c565b60405180910390f35b610443611139565b005b61045f600480360381019061045a9190612f5e565b6111c1565b6040516104729796959493929190613c67565b60405180910390f35b61049560048036038101906104909190612f5e565b6113f9565b6040516104a29190613c4c565b60405180910390f35b6104b3611456565b6040516104c09190613835565b60405180910390f35b6104e360048036038101906104de9190612e8f565b611480565b005b6104ed61151c565b6040516104fa919061397e565b60405180910390f35b61051d60048036038101906105189190612dee565b6115ae565b005b61053960048036038101906105349190612d73565b61172f565b005b61055560048036038101906105509190612f5e565b611791565b604051610562919061397e565b60405180910390f35b61058560048036038101906105809190612ce8565b611838565b60405161059291906138da565b60405180910390f35b6105b560048036038101906105b09190612cbf565b6118cc565b005b6105bf6119c4565b6040516105cc9190613c4c565b60405180910390f35b60007f80ac58cd000000000000000000000000000000000000000000000000000000007bffffffffffffffffffffffffffffffffffffffffffffffffffffffff1916827bffffffffffffffffffffffffffffffffffffffffffffffffffffffff191614806106a057507f5b5e139f000000000000000000000000000000000000000000000000000000007bffffffffffffffffffffffffffffffffffffffffffffffffffffffff1916827bffffffffffffffffffffffffffffffffffffffffffffffffffffffff1916145b806106b057506106af826119d1565b5b9050919050565b6060600080546106c690613faa565b80601f01602080910402602001604051908101604052809291908181526020018280546106f290613faa565b801561073f5780601f106107145761010080835404028352916020019161073f565b820191906000526020600020905b81548152906001019060200180831161072257829003601f168201915b5050505050905090565b600061075482611a3b565b610793576040517f08c379a000000000000000000000000000000000000000000000000000000000815260040161078a90613b6c565b60405180910390fd5b6004600083815260200190815260200160002060009054906101000a900473ffffffffffffffffffffffffffffffffffffffff169050919050565b60006107d982610fcf565b90508073ffffffffffffffffffffffffffffffffffffffff168373ffffffffffffffffffffffffffffffffffffffff16141561084a576040517f08c379a000000000000000000000000000000000000000000000000000000000815260040161084190613c0c565b60405180910390fd5b8073ffffffffffffffffffffffffffffffffffffffff16610869611aa7565b73ffffffffffffffffffffffffffffffffffffffff161480610898575061089781610892611aa7565b611838565b5b6108d7576040517f08c379a00000000000000000000000000000000000000000000000000000000081526004016108ce90613acc565b60405180910390fd5b6108e18383611aaf565b505050565b60606000806000600d8581548110610927577f4e487b7100000000000000000000000000000000000000000000000000000000600052603260045260246000fd5b9060005260206000209060080201600701600d8681548110610972577f4e487b7100000000000000000000000000000000000000000000000000000000600052603260045260246000fd5b906000526020600020906008020160050154600d87815481106109be577f4e487b7100000000000000000000000000000000000000000000000000000000600052603260045260246000fd5b906000526020600020906008020160040154600d8881548110610a0a577f4e487b7100000000000000000000000000000000000000000000000000000000600052603260045260246000fd5b906000526020600020906008020160030154600d8981548110610a56577f4e487b7100000000000000000000000000000000000000000000000000000000600052603260045260246000fd5b906000526020600020906008020160020154600d8a81548110610aa2577f4e487b7100000000000000000000000000000000000000000000000000000000600052603260045260246000fd5b906000526020600020906008020160010154600d8b81548110610aee577f4e487b7100000000000000000000000000000000000000000000000000000000600052603260045260246000fd5b906000526020600020906008020160000154610b0a9190613e2f565b610b149190613e2f565b610b1e9190613e2f565b610b289190613e2f565b610b329190613e2f565b610b3b876113f9565b600d8881548110610b75577f4e487b7100000000000000000000000000000000000000000000000000000000600052603260045260246000fd5b906000526020600020906008020160060154838054610b9390613faa565b80601f0160208091040260200160405190810160405280929190818152602001828054610bbf90613faa565b8015610c0c5780601f10610be157610100808354040283529160200191610c0c565b820191906000526020600020905b815481529060010190602001808311610bef57829003601f168201915b5050505050935093509350935093509193509193565b610c33610c2d611aa7565b83611b68565b610c72576040517f08c379a0000000000000000000000000000000000000000000000000000000008152600401610c6990613c2c565b60405180910390fd5b610c7c8282611c46565b5050565b600d8181548110610c9057600080fd5b9060005260206000209060080201600091509050806000015490806001015490806002015490806003015490806004015490806005015490806006015490806007018054610cdd90613faa565b80601f0160208091040260200160405190810160405280929190818152602001828054610d0990613faa565b8015610d565780601f10610d2b57610100808354040283529160200191610d56565b820191906000526020600020905b815481529060010190602001808311610d3957829003601f168201915b5050505050905088565b610d71610d6b611aa7565b82611b68565b610db0576040517f08c379a0000000000000000000000000000000000000000000000000000000008152600401610da790613c2c565b60405180910390fd5b610dbb838383611cba565b505050565b600b60009054906101000a900473ffffffffffffffffffffffffffffffffffffffff1681565b60006009547f000000000000000000000000000000000000000000000000000000000000000073ffffffffffffffffffffffffffffffffffffffff166370a08231306040518263ffffffff1660e01b8152600401610e449190613835565b60206040518083038186803b158015610e5c57600080fd5b505afa158015610e70573d6000803e3d6000fd5b505050506040513d601f19601f82011682018060405250810190610e949190612f87565b1015610ed5576040517f08c379a0000000000000000000000000000000000000000000000000000000008152600401610ecc90613a8c565b60405180910390fd5b6000610ee5600854600954611f16565b905082600e60008381526020019081526020016000209080519060200190610f0e929190612aa4565b50610f17611aa7565b600f600083815260200190815260200160002060006101000a81548173ffffffffffffffffffffffffffffffffffffffff021916908373ffffffffffffffffffffffffffffffffffffffff16021790555080915050919050565b6060610f7c82611791565b9050919050565b600a5481565b610fa48383836040518060200160405280600081525061172f565b505050565b600c60009054906101000a900473ffffffffffffffffffffffffffffffffffffffff1681565b6000806002600084815260200190815260200160002060009054906101000a900473ffffffffffffffffffffffffffffffffffffffff169050600073ffffffffffffffffffffffffffffffffffffffff168173ffffffffffffffffffffffffffffffffffffffff161415611078576040517f08c379a000000000000000000000000000000000000000000000000000000000815260040161106f90613b0c565b60405180910390fd5b80915050919050565b60008073ffffffffffffffffffffffffffffffffffffffff168273ffffffffffffffffffffffffffffffffffffffff1614156110f2576040517f08c379a00000000000000000000000000000000000000000000000000000000081526004016110e990613aec565b60405180910390fd5b600360008373ffffffffffffffffffffffffffffffffffffffff1673ffffffffffffffffffffffffffffffffffffffff168152602001908152602001600020549050919050565b611141611aa7565b73ffffffffffffffffffffffffffffffffffffffff1661115f611456565b73ffffffffffffffffffffffffffffffffffffffff16146111b5576040517f08c379a00000000000000000000000000000000000000000000000000000000081526004016111ac90613b8c565b60405180910390fd5b6111bf6000612078565b565b6000806000806000806000600d8881548110611206577f4e487b7100000000000000000000000000000000000000000000000000000000600052603260045260246000fd5b906000526020600020906008020160000154600d8981548110611252577f4e487b7100000000000000000000000000000000000000000000000000000000600052603260045260246000fd5b906000526020600020906008020160010154600d8a8154811061129e577f4e487b7100000000000000000000000000000000000000000000000000000000600052603260045260246000fd5b906000526020600020906008020160020154600d8b815481106112ea577f4e487b7100000000000000000000000000000000000000000000000000000000600052603260045260246000fd5b906000526020600020906008020160030154600d8c81548110611336577f4e487b7100000000000000000000000000000000000000000000000000000000600052603260045260246000fd5b906000526020600020906008020160040154600d8d81548110611382577f4e487b7100000000000000000000000000000000000000000000000000000000600052603260045260246000fd5b906000526020600020906008020160050154600d8e815481106113ce577f4e487b7100000000000000000000000000000000000000000000000000000000600052603260045260246000fd5b9060005260206000209060080201600601549650965096509650965096509650919395979092949650565b600061144f600d8381548110611438577f4e487b7100000000000000000000000000000000000000000000000000000000600052603260045260246000fd5b90600052602060002090600802016006015461213e565b9050919050565b6000600760009054906101000a900473ffffffffffffffffffffffffffffffffffffffff16905090565b7f000000000000000000000000000000000000000000000000000000000000000073ffffffffffffffffffffffffffffffffffffffff163373ffffffffffffffffffffffffffffffffffffffff161461150e576040517f08c379a000000000000000000000000000000000000000000000000000000000815260040161150590613bec565b60405180910390fd5b611518828261219b565b5050565b60606001805461152b90613faa565b80601f016020809104026020016040519081016040528092919081815260200182805461155790613faa565b80156115a45780601f10611579576101008083540402835291602001916115a4565b820191906000526020600020905b81548152906001019060200180831161158757829003601f168201915b5050505050905090565b6115b6611aa7565b73ffffffffffffffffffffffffffffffffffffffff168273ffffffffffffffffffffffffffffffffffffffff161415611624576040517f08c379a000000000000000000000000000000000000000000000000000000000815260040161161b90613a6c565b60405180910390fd5b8060056000611631611aa7565b73ffffffffffffffffffffffffffffffffffffffff1673ffffffffffffffffffffffffffffffffffffffff16815260200190815260200160002060008473ffffffffffffffffffffffffffffffffffffffff1673ffffffffffffffffffffffffffffffffffffffff16815260200190815260200160002060006101000a81548160ff0219169083151502179055508173ffffffffffffffffffffffffffffffffffffffff166116de611aa7565b73ffffffffffffffffffffffffffffffffffffffff167f17307eab39ab6107e8899845ad3d59bd9653f200f220920489ca2b5937696c318360405161172391906138da565b60405180910390a35050565b61174061173a611aa7565b83611b68565b61177f576040517f08c379a000000000000000000000000000000000000000000000000000000000815260040161177690613c2c565b60405180910390fd5b61178b8484848461241f565b50505050565b606061179c82611a3b565b6117db576040517f08c379a00000000000000000000000000000000000000000000000000000000081526004016117d290613bcc565b60405180910390fd5b60006117e561247b565b905060008151116118055760405180602001604052806000815250611830565b8061180f84612492565b604051602001611820929190613811565b6040516020818303038152906040525b915050919050565b6000600560008473ffffffffffffffffffffffffffffffffffffffff1673ffffffffffffffffffffffffffffffffffffffff16815260200190815260200160002060008373ffffffffffffffffffffffffffffffffffffffff1673ffffffffffffffffffffffffffffffffffffffff16815260200190815260200160002060009054906101000a900460ff16905092915050565b6118d4611aa7565b73ffffffffffffffffffffffffffffffffffffffff166118f2611456565b73ffffffffffffffffffffffffffffffffffffffff1614611948576040517f08c379a000000000000000000000000000000000000000000000000000000000815260040161193f90613b8c565b60405180910390fd5b600073ffffffffffffffffffffffffffffffffffffffff168173ffffffffffffffffffffffffffffffffffffffff1614156119b8576040517f08c379a00000000000000000000000000000000000000000000000000000000081526004016119af90613a0c565b60405180910390fd5b6119c181612078565b50565b6000600d80549050905090565b60007f01ffc9a7000000000000000000000000000000000000000000000000000000007bffffffffffffffffffffffffffffffffffffffffffffffffffffffff1916827bffffffffffffffffffffffffffffffffffffffffffffffffffffffff1916149050919050565b60008073ffffffffffffffffffffffffffffffffffffffff166002600084815260200190815260200160002060009054906101000a900473ffffffffffffffffffffffffffffffffffffffff1673ffffffffffffffffffffffffffffffffffffffff1614159050919050565b600033905090565b816004600083815260200190815260200160002060006101000a81548173ffffffffffffffffffffffffffffffffffffffff021916908373ffffffffffffffffffffffffffffffffffffffff160217905550808273ffffffffffffffffffffffffffffffffffffffff16611b2283610fcf565b73ffffffffffffffffffffffffffffffffffffffff167f8c5be1e5ebec7d5bd14f71427d1e84f3dd0314c0f7b2291e5b200ac8c7c3b92560405160405180910390a45050565b6000611b7382611a3b565b611bb2576040517f08c379a0000000000000000000000000000000000000000000000000000000008152600401611ba990613aac565b60405180910390fd5b6000611bbd83610fcf565b90508073ffffffffffffffffffffffffffffffffffffffff168473ffffffffffffffffffffffffffffffffffffffff161480611c2c57508373ffffffffffffffffffffffffffffffffffffffff16611c1484610749565b73ffffffffffffffffffffffffffffffffffffffff16145b80611c3d5750611c3c8185611838565b5b91505092915050565b611c4f82611a3b565b611c8e576040517f08c379a0000000000000000000000000000000000000000000000000000000008152600401611c8590613b2c565b60405180910390fd5b80601160008481526020019081526020016000209080519060200190611cb5929190612aa4565b505050565b8273ffffffffffffffffffffffffffffffffffffffff16611cda82610fcf565b73ffffffffffffffffffffffffffffffffffffffff1614611d30576040517f08c379a0000000000000000000000000000000000000000000000000000000008152600401611d2790613bac565b60405180910390fd5b600073ffffffffffffffffffffffffffffffffffffffff168273ffffffffffffffffffffffffffffffffffffffff161415611da0576040517f08c379a0000000000000000000000000000000000000000000000000000000008152600401611d9790613a4c565b60405180910390fd5b611dab83838361263f565b611db6600082611aaf565b6001600360008573ffffffffffffffffffffffffffffffffffffffff1673ffffffffffffffffffffffffffffffffffffffff1681526020019081526020016000206000828254611e069190613eb6565b925050819055506001600360008473ffffffffffffffffffffffffffffffffffffffff1673ffffffffffffffffffffffffffffffffffffffff1681526020019081526020016000206000828254611e5d9190613e2f565b92505081905550816002600083815260200190815260200160002060006101000a81548173ffffffffffffffffffffffffffffffffffffffff021916908373ffffffffffffffffffffffffffffffffffffffff160217905550808273ffffffffffffffffffffffffffffffffffffffff168473ffffffffffffffffffffffffffffffffffffffff167fddf252ad1be2c89b69c2b068fc378daa952ba7f163c4a11628f55a4df523b3ef60405160405180910390a4505050565b60007f000000000000000000000000000000000000000000000000000000000000000073ffffffffffffffffffffffffffffffffffffffff16634000aea07f000000000000000000000000000000000000000000000000000000000000000084866000604051602001611f8a929190613910565b6040516020818303038152906040526040518463ffffffff1660e01b8152600401611fb79392919061389c565b602060405180830381600087803b158015611fd157600080fd5b505af1158015611fe5573d6000803e3d6000fd5b505050506040513d601f19601f820116820180604052508101906120099190612e66565b50600061202c846000306006600089815260200190815260200160002054612644565b90506001600660008681526020019081526020016000205461204e9190613e2f565b600660008681526020019081526020016000208190555061206f8482612680565b91505092915050565b6000600760009054906101000a900473ffffffffffffffffffffffffffffffffffffffff16905081600760006101000a81548173ffffffffffffffffffffffffffffffffffffffff021916908373ffffffffffffffffffffffffffffffffffffffff1602179055508173ffffffffffffffffffffffffffffffffffffffff168173ffffffffffffffffffffffffffffffffffffffff167f8be0079c531659141344cd1fd0a4f28419497f9722a3daafe3b4186f6b6457e060405160405180910390a35050565b60008060026001846121509190613e2f565b61215a9190613e85565b90508291505b8181101561219557809150600281828561217a9190613e85565b6121849190613e2f565b61218e9190613e85565b9050612160565b50919050565b6000600d80549050905060006103e7836121b59190614039565b905060006064612710856121c99190614039565b6121d39190613e85565b90506000612710620f4240866121e99190614039565b6121f39190613e85565b90506000620f42406305f5e1008761220b9190614039565b6122159190613e85565b905060006305f5e1006402540be4008861222f9190614039565b6122399190613e85565b905060006402540be40064e8d4a51000896122549190614039565b61225e9190613e85565b9050600060328961226f9190614039565b9050600d604051806101000160405280898152602001888152602001878152602001868152602001858152602001848152602001838152602001600e60008e815260200190815260200160002080546122c790613faa565b80601f01602080910402602001604051908101604052809291908181526020018280546122f390613faa565b80156123405780601f1061231557610100808354040283529160200191612340565b820191906000526020600020905b81548152906001019060200180831161232357829003601f168201915b50505050508152509080600181540180825580915050600190039060005260206000209060080201600090919091909150600082015181600001556020820151816001015560408201518160020155606082015181600301556080820151816004015560a0820151816005015560c0820151816006015560e08201518160070190805190602001906123d3929190612aa4565b505050612413600f60008c815260200190815260200160002060009054906101000a900473ffffffffffffffffffffffffffffffffffffffff16896126b3565b50505050505050505050565b61242a848484611cba565b612436848484846126d1565b612475576040517f08c379a000000000000000000000000000000000000000000000000000000000815260040161246c906139ec565b60405180910390fd5b50505050565b606060405180602001604052806000815250905090565b606060008214156124da576040518060400160405280600181526020017f3000000000000000000000000000000000000000000000000000000000000000815250905061263a565b600082905060005b6000821461250c5780806124f590613fdc565b915050600a826125059190613e85565b91506124e2565b60008167ffffffffffffffff81111561254e577f4e487b7100000000000000000000000000000000000000000000000000000000600052604160045260246000fd5b6040519080825280601f01601f1916602001820160405280156125805781602001600182028036833780820191505090505b5090505b60008514612633576001826125999190613eb6565b9150600a856125a89190614039565b60306125b49190613e2f565b60f81b8183815181106125f0577f4e487b7100000000000000000000000000000000000000000000000000000000600052603260045260246000fd5b60200101907effffffffffffffffffffffffffffffffffffffffffffffffffffffffffffff1916908160001a905350600a8561262c9190613e85565b9450612584565b8093505050505b919050565b505050565b60008484848460405160200161265d9493929190613939565b6040516020818303038152906040528051906020012060001c9050949350505050565b600082826040516020016126959291906137e5565b60405160208183030381529060405280519060200120905092915050565b6126cd828260405180602001604052806000815250612868565b5050565b60006126f28473ffffffffffffffffffffffffffffffffffffffff166128c3565b1561285b578373ffffffffffffffffffffffffffffffffffffffff1663150b7a0261271b611aa7565b8786866040518563ffffffff1660e01b815260040161273d9493929190613850565b602060405180830381600087803b15801561275757600080fd5b505af192505050801561278857506040513d601f19601f820116820180604052508101906127859190612ef4565b60015b61280b573d80600081146127b8576040519150601f19603f3d011682016040523d82523d6000602084013e6127bd565b606091505b50600081511415612803576040517f08c379a00000000000000000000000000000000000000000000000000000000081526004016127fa906139ec565b60405180910390fd5b805181602001fd5b63150b7a0260e01b7bffffffffffffffffffffffffffffffffffffffffffffffffffffffff1916817bffffffffffffffffffffffffffffffffffffffffffffffffffffffff191614915050612860565b600190505b949350505050565b61287283836128d6565b61287f60008484846126d1565b6128be576040517f08c379a00000000000000000000000000000000000000000000000000000000081526004016128b5906139ec565b60405180910390fd5b505050565b600080823b905060008111915050919050565b600073ffffffffffffffffffffffffffffffffffffffff168273ffffffffffffffffffffffffffffffffffffffff161415612946576040517f08c379a000000000000000000000000000000000000000000000000000000000815260040161293d90613b4c565b60405180910390fd5b61294f81611a3b565b1561298f576040517f08c379a000000000000000000000000000000000000000000000000000000000815260040161298690613a2c565b60405180910390fd5b61299b6000838361263f565b6001600360008473ffffffffffffffffffffffffffffffffffffffff1673ffffffffffffffffffffffffffffffffffffffff16815260200190815260200160002060008282546129eb9190613e2f565b92505081905550816002600083815260200190815260200160002060006101000a81548173ffffffffffffffffffffffffffffffffffffffff021916908373ffffffffffffffffffffffffffffffffffffffff160217905550808273ffffffffffffffffffffffffffffffffffffffff16600073ffffffffffffffffffffffffffffffffffffffff167fddf252ad1be2c89b69c2b068fc378daa952ba7f163c4a11628f55a4df523b3ef60405160405180910390a45050565b828054612ab090613faa565b90600052602060002090601f016020900481019282612ad25760008555612b19565b82601f10612aeb57805160ff1916838001178555612b19565b82800160010185558215612b19579182015b82811115612b18578251825591602001919060010190612afd565b5b509050612b269190612b2a565b5090565b5b80821115612b43576000816000905550600101612b2b565b5090565b6000612b5a612b5584613d8c565b613d5b565b905082815260208101848484011115612b7257600080fd5b612b7d848285613f68565b509392505050565b6000612b98612b9384613dbc565b613d5b565b905082815260208101848484011115612bb057600080fd5b612bbb848285613f68565b509392505050565b600081359050612bd281614137565b92915050565b600081359050612be78161414e565b92915050565b600081519050612bfc8161414e565b92915050565b600081359050612c1181614165565b92915050565b600081359050612c268161417c565b92915050565b600081519050612c3b8161417c565b92915050565b600082601f830112612c5257600080fd5b8135612c62848260208601612b47565b91505092915050565b600082601f830112612c7c57600080fd5b8135612c8c848260208601612b85565b91505092915050565b600081359050612ca481614193565b92915050565b600081519050612cb981614193565b92915050565b600060208284031215612cd157600080fd5b6000612cdf84828501612bc3565b91505092915050565b60008060408385031215612cfb57600080fd5b6000612d0985828601612bc3565b9250506020612d1a85828601612bc3565b9150509250929050565b600080600060608486031215612d3957600080fd5b6000612d4786828701612bc3565b9350506020612d5886828701612bc3565b9250506040612d6986828701612c95565b9150509250925092565b60008060008060808587031215612d8957600080fd5b6000612d9787828801612bc3565b9450506020612da887828801612bc3565b9350506040612db987828801612c95565b925050606085013567ffffffffffffffff811115612dd657600080fd5b612de287828801612c41565b91505092959194509250565b60008060408385031215612e0157600080fd5b6000612e0f85828601612bc3565b9250506020612e2085828601612bd8565b9150509250929050565b60008060408385031215612e3d57600080fd5b6000612e4b85828601612bc3565b9250506020612e5c85828601612c95565b9150509250929050565b600060208284031215612e7857600080fd5b6000612e8684828501612bed565b91505092915050565b60008060408385031215612ea257600080fd5b6000612eb085828601612c02565b9250506020612ec185828601612c95565b9150509250929050565b600060208284031215612edd57600080fd5b6000612eeb84828501612c17565b91505092915050565b600060208284031215612f0657600080fd5b6000612f1484828501612c2c565b91505092915050565b600060208284031215612f2f57600080fd5b600082013567ffffffffffffffff811115612f4957600080fd5b612f5584828501612c6b565b91505092915050565b600060208284031215612f7057600080fd5b6000612f7e84828501612c95565b91505092915050565b600060208284031215612f9957600080fd5b6000612fa784828501612caa565b91505092915050565b60008060408385031215612fc357600080fd5b6000612fd185828601612c95565b925050602083013567ffffffffffffffff811115612fee57600080fd5b612ffa85828601612c6b565b9150509250929050565b61300d81613eea565b82525050565b61301c81613efc565b82525050565b61302b81613f08565b82525050565b61304261303d82613f08565b614025565b82525050565b600061305382613dec565b61305d8185613e02565b935061306d818560208601613f77565b61307681614126565b840191505092915050565b600061308c82613df7565b6130968185613e13565b93506130a6818560208601613f77565b6130af81614126565b840191505092915050565b60006130c582613df7565b6130cf8185613e24565b93506130df818560208601613f77565b80840191505092915050565b60006130f8603283613e13565b91507f4552433732313a207472616e7366657220746f206e6f6e20455243373231526560008301527f63656976657220696d706c656d656e74657200000000000000000000000000006020830152604082019050919050565b600061315e602683613e13565b91507f4f776e61626c653a206e6577206f776e657220697320746865207a65726f206160008301527f64647265737300000000000000000000000000000000000000000000000000006020830152604082019050919050565b60006131c4601c83613e13565b91507f4552433732313a20746f6b656e20616c7265616479206d696e746564000000006000830152602082019050919050565b6000613204602483613e13565b91507f4552433732313a207472616e7366657220746f20746865207a65726f2061646460008301527f72657373000000000000000000000000000000000000000000000000000000006020830152604082019050919050565b600061326a601983613e13565b91507f4552433732313a20617070726f766520746f2063616c6c6572000000000000006000830152602082019050919050565b60006132aa602b83613e13565b91507f4e6f7420656e6f756768204c494e4b202d2066696c6c20636f6e74726163742060008301527f77697468206661756365740000000000000000000000000000000000000000006020830152604082019050919050565b6000613310602c83613e13565b91507f4552433732313a206f70657261746f7220717565727920666f72206e6f6e657860008301527f697374656e7420746f6b656e00000000000000000000000000000000000000006020830152604082019050919050565b6000613376603883613e13565b91507f4552433732313a20617070726f76652063616c6c6572206973206e6f74206f7760008301527f6e6572206e6f7220617070726f76656420666f7220616c6c00000000000000006020830152604082019050919050565b60006133dc602a83613e13565b91507f4552433732313a2062616c616e636520717565727920666f7220746865207a6560008301527f726f2061646472657373000000000000000000000000000000000000000000006020830152604082019050919050565b6000613442602983613e13565b91507f4552433732313a206f776e657220717565727920666f72206e6f6e657869737460008301527f656e7420746f6b656e00000000000000000000000000000000000000000000006020830152604082019050919050565b60006134a8602e83613e13565b91507f45524337323155524953746f726167653a2055524920736574206f66206e6f6e60008301527f6578697374656e7420746f6b656e0000000000000000000000000000000000006020830152604082019050919050565b600061350e602083613e13565b91507f4552433732313a206d696e7420746f20746865207a65726f20616464726573736000830152602082019050919050565b600061354e602c83613e13565b91507f4552433732313a20617070726f76656420717565727920666f72206e6f6e657860008301527f697374656e7420746f6b656e00000000000000000000000000000000000000006020830152604082019050919050565b60006135b4602083613e13565b91507f4f776e61626c653a2063616c6c6572206973206e6f7420746865206f776e65726000830152602082019050919050565b60006135f4602983613e13565b91507f4552433732313a207472616e73666572206f6620746f6b656e2074686174206960008301527f73206e6f74206f776e00000000000000000000000000000000000000000000006020830152604082019050919050565b600061365a602f83613e13565b91507f4552433732314d657461646174613a2055524920717565727920666f72206e6f60008301527f6e6578697374656e7420746f6b656e00000000000000000000000000000000006020830152604082019050919050565b60006136c0601f83613e13565b91507f4f6e6c7920565246436f6f7264696e61746f722063616e2066756c66696c6c006000830152602082019050919050565b6000613700602183613e13565b91507f4552433732313a20617070726f76616c20746f2063757272656e74206f776e6560008301527f72000000000000000000000000000000000000000000000000000000000000006020830152604082019050919050565b6000613766603183613e13565b91507f4552433732313a207472616e736665722063616c6c6572206973206e6f74206f60008301527f776e6572206e6f7220617070726f7665640000000000000000000000000000006020830152604082019050919050565b6137c881613f5e565b82525050565b6137df6137da82613f5e565b61402f565b82525050565b60006137f18285613031565b60208201915061380182846137ce565b6020820191508190509392505050565b600061381d82856130ba565b915061382982846130ba565b91508190509392505050565b600060208201905061384a6000830184613004565b92915050565b60006080820190506138656000830187613004565b6138726020830186613004565b61387f60408301856137bf565b81810360608301526138918184613048565b905095945050505050565b60006060820190506138b16000830186613004565b6138be60208301856137bf565b81810360408301526138d08184613048565b9050949350505050565b60006020820190506138ef6000830184613013565b92915050565b600060208201905061390a6000830184613022565b92915050565b60006040820190506139256000830185613022565b61393260208301846137bf565b9392505050565b600060808201905061394e6000830187613022565b61395b60208301866137bf565b6139686040830185613004565b61397560608301846137bf565b95945050505050565b600060208201905081810360008301526139988184613081565b905092915050565b600060808201905081810360008301526139ba8187613081565b90506139c960208301866137bf565b6139d660408301856137bf565b6139e360608301846137bf565b95945050505050565b60006020820190508181036000830152613a05816130eb565b9050919050565b60006020820190508181036000830152613a2581613151565b9050919050565b60006020820190508181036000830152613a45816131b7565b9050919050565b60006020820190508181036000830152613a65816131f7565b9050919050565b60006020820190508181036000830152613a858161325d565b9050919050565b60006020820190508181036000830152613aa58161329d565b9050919050565b60006020820190508181036000830152613ac581613303565b9050919050565b60006020820190508181036000830152613ae581613369565b9050919050565b60006020820190508181036000830152613b05816133cf565b9050919050565b60006020820190508181036000830152613b2581613435565b9050919050565b60006020820190508181036000830152613b458161349b565b9050919050565b60006020820190508181036000830152613b6581613501565b9050919050565b60006020820190508181036000830152613b8581613541565b9050919050565b60006020820190508181036000830152613ba5816135a7565b9050919050565b60006020820190508181036000830152613bc5816135e7565b9050919050565b60006020820190508181036000830152613be58161364d565b9050919050565b60006020820190508181036000830152613c05816136b3565b9050919050565b60006020820190508181036000830152613c25816136f3565b9050919050565b60006020820190508181036000830152613c4581613759565b9050919050565b6000602082019050613c6160008301846137bf565b92915050565b600060e082019050613c7c600083018a6137bf565b613c8960208301896137bf565b613c9660408301886137bf565b613ca360608301876137bf565b613cb060808301866137bf565b613cbd60a08301856137bf565b613cca60c08301846137bf565b98975050505050505050565b600061010082019050613cec600083018b6137bf565b613cf9602083018a6137bf565b613d0660408301896137bf565b613d1360608301886137bf565b613d2060808301876137bf565b613d2d60a08301866137bf565b613d3a60c08301856137bf565b81810360e0830152613d4c8184613081565b90509998505050505050505050565b6000604051905081810181811067ffffffffffffffff82111715613d8257613d816140f7565b5b8060405250919050565b600067ffffffffffffffff821115613da757613da66140f7565b5b601f19601f8301169050602081019050919050565b600067ffffffffffffffff821115613dd757613dd66140f7565b5b601f19601f8301169050602081019050919050565b600081519050919050565b600081519050919050565b600082825260208201905092915050565b600082825260208201905092915050565b600081905092915050565b6000613e3a82613f5e565b9150613e4583613f5e565b9250827fffffffffffffffffffffffffffffffffffffffffffffffffffffffffffffffff03821115613e7a57613e7961406a565b5b828201905092915050565b6000613e9082613f5e565b9150613e9b83613f5e565b925082613eab57613eaa614099565b5b828204905092915050565b6000613ec182613f5e565b9150613ecc83613f5e565b925082821015613edf57613ede61406a565b5b828203905092915050565b6000613ef582613f3e565b9050919050565b60008115159050919050565b6000819050919050565b60007fffffffff0000000000000000000000000000000000000000000000000000000082169050919050565b600073ffffffffffffffffffffffffffffffffffffffff82169050919050565b6000819050919050565b82818337600083830152505050565b60005b83811015613f95578082015181840152602081019050613f7a565b83811115613fa4576000848401525b50505050565b60006002820490506001821680613fc257607f821691505b60208210811415613fd657613fd56140c8565b5b50919050565b6000613fe782613f5e565b91507fffffffffffffffffffffffffffffffffffffffffffffffffffffffffffffffff82141561401a5761401961406a565b5b600182019050919050565b6000819050919050565b6000819050919050565b600061404482613f5e565b915061404f83613f5e565b92508261405f5761405e614099565b5b828206905092915050565b7f4e487b7100000000000000000000000000000000000000000000000000000000600052601160045260246000fd5b7f4e487b7100000000000000000000000000000000000000000000000000000000600052601260045260246000fd5b7f4e487b7100000000000000000000000000000000000000000000000000000000600052602260045260246000fd5b7f4e487b7100000000000000000000000000000000000000000000000000000000600052604160045260246000fd5b6000601f19601f8301169050919050565b61414081613eea565b811461414b57600080fd5b50565b61415781613efc565b811461416257600080fd5b50565b61416e81613f08565b811461417957600080fd5b50565b61418581613f12565b811461419057600080fd5b50565b61419c81613f5e565b81146141a757600080fd5b5056fea26469706673582212204f5dd82df778245eb982270651fc151c85fe3037750b95827aae554371f0d7b364736f6c63430008000033",
  "immutableReferences": {
    "73": [
      {
        "length": 32,
        "start": 3565
      },
      {
        "length": 32,
        "start": 7962
      }
    ],
    "75": [
      {
        "length": 32,
        "start": 5250
      },
      {
        "length": 32,
        "start": 8022
      }
    ]
  },
  "source": "// SPDX-License-Identifier: UNLICENSED\npragma solidity ^0.8.0;\n\nimport \"@openzeppelin/contracts/token/ERC721/ERC721.sol\";\nimport \"@chainlink/contracts/src/v0.8/VRFConsumerBase.sol\";\nimport \"@openzeppelin/contracts/access/Ownable.sol\";\nimport \"@openzeppelin/contracts/utils/Strings.sol\";\nimport \"@openzeppelin/contracts/utils/math/SafeMath.sol\";\n\ncontract Sector7slums is ERC721, VRFConsumerBase, Ownable {\n    using SafeMath for uint256;\n    using Strings for string;\n\n    bytes32 internal keyHash;\n    uint256 internal fee;\n    uint256 public randomResult;\n    address public VRFCoordinator;\n    // rinkeby: 0xb3dCcb4Cf7a26f6cf6B120Cf5A73875B7BBc655B\n    address public LinkToken;\n    // rinkeby: 0x01BE23585060835E02B77ef475b0Cc51aA1e0709a\n\n    struct Aerith {uint256 Strength; uint256 Magic;  uint256 Vitality; \n    uint256 Spirit; uint256 Luck; uint256 Speed; uint256 Level; string name;}\n\n    Aerith[] public aeriths;\n\n    mapping(bytes32 => string) requestToAerithName;\n    mapping(bytes32 => address) requestToSender;\n    mapping(bytes32 => uint256) requestToTokenId;\n    mapping(uint256 => string) private _tokenURIs;\n\n    constructor(address _VRFCoordinator, address _LinkToken, bytes32 _keyhash)\n        VRFConsumerBase(_VRFCoordinator, _LinkToken)\n        ERC721(\"Sector7slums\", \"s7s\")\n    {   \n        VRFCoordinator = _VRFCoordinator;\n        LinkToken = _LinkToken;\n        keyHash = _keyhash;\n        fee = 0.1 * 10**18; // 0.1 LINK\n    }\n    function requestNewRandomAerith(string memory aerith) public returns (bytes32) {\n        require(LINK.balanceOf(address(this)) >= fee, \"Not enough LINK - fill contract with faucet\");\n        bytes32 requestId = requestRandomness(keyHash, fee);\n        requestToAerithName[requestId] = aerith;\n        requestToSender[requestId] = _msgSender();\n        return requestId;\n    }\n    function getTokenURI(uint256 tokenId) public view returns (string memory) {\n        return tokenURI(tokenId);\n    }\n    function _setTokenURI(uint256 tokenId, string memory _tokenURI) internal {\n        require(_exists(tokenId), \"ERC721URIStorage: URI set of nonexistent token\");\n        _tokenURIs[tokenId] = _tokenURI;\n    }\n    function setTokenURI(uint256 tokenId, string memory _tokenURI) public {\n        require(_isApprovedOrOwner(_msgSender(), tokenId),\"ERC721: transfer caller is not owner nor approved\");\n        _setTokenURI(tokenId, _tokenURI);\n    }\n    function fulfillRandomness(bytes32 requestId, uint256 randomNumber) internal override {\n        uint256 newId = aeriths.length; uint256 Strength = (randomNumber % 999); uint256 Magic = ((randomNumber % 10000) / 100 ); uint256 Vitality = ((randomNumber % 1000000) / 10000 ); \n        uint256 Spirit = ((randomNumber % 100000000) / 1000000 ); uint256 Luck = ((randomNumber % 10000000000) / 100000000 ); uint256 Speed = ((randomNumber % 1000000000000) / 10000000000);\n        uint256 Level = (randomNumber % 50); aeriths.push(Aerith(Strength, Magic, Vitality, Spirit, Luck, Speed, Level, requestToAerithName[requestId]));\n        _safeMint(requestToSender[requestId], newId);\n    }\n    function getLevel(uint256 tokenId) public view returns (uint256) {\n        return sqrt(aeriths[tokenId].Level);\n    }\n    function getNumberOfAeriths() public view returns (uint256) {\n        return aeriths.length; \n    }\n    function getAerithsOverView(uint256 tokenId) public view returns (string memory, uint256, uint256, uint256) {\n        return (aeriths[tokenId].name, aeriths[tokenId].Strength + aeriths[tokenId].Magic + aeriths[tokenId].Vitality + \n        aeriths[tokenId].Spirit + aeriths[tokenId].Luck + aeriths[tokenId].Speed, getLevel(tokenId), aeriths[tokenId].Level);\n    }\n    function getAerithsStats(uint256 tokenId) public view returns (uint256, uint256, uint256, uint256, uint256, uint256, uint256) {\n        return (aeriths[tokenId].Strength, aeriths[tokenId].Magic, aeriths[tokenId].Vitality, aeriths[tokenId].Spirit,\n        aeriths[tokenId].Luck,  aeriths[tokenId].Speed,aeriths[tokenId].Level  );\n    }\n    function sqrt(uint256 x) internal pure returns (uint256 y) {\n        uint256 z = (x + 1) / 2;\n        y = x;\n        while (z < y) {\n            y = z;\n            z = (x / z + z) / 2;\n        }\n    }\n}",
  "sourcePath": "/Users/damiana/Documents/Coding Projects/_MBrody22/Sector7slums/contracts/Sector7slums.sol",
  "compiler": {
    "name": "solc",
    "version": "0.8.0+commit.c7dfd78e.Emscripten.clang"
  },
  "schemaVersion": "3.4.1",
  "updatedAt": "2021-08-11T03:40:14.868Z",
  "networkType": "ethereum",
  "devdoc": {
    "kind": "dev",
    "methods": {
      "approve(address,uint256)": {
        "details": "See {IERC721-approve}."
      },
      "balanceOf(address)": {
        "details": "See {IERC721-balanceOf}."
      },
      "getApproved(uint256)": {
        "details": "See {IERC721-getApproved}."
      },
      "isApprovedForAll(address,address)": {
        "details": "See {IERC721-isApprovedForAll}."
      },
      "name()": {
        "details": "See {IERC721Metadata-name}."
      },
      "owner()": {
        "details": "Returns the address of the current owner."
      },
      "ownerOf(uint256)": {
        "details": "See {IERC721-ownerOf}."
      },
      "renounceOwnership()": {
        "details": "Leaves the contract without owner. It will not be possible to call `onlyOwner` functions anymore. Can only be called by the current owner. NOTE: Renouncing ownership will leave the contract without an owner, thereby removing any functionality that is only available to the owner."
      },
      "safeTransferFrom(address,address,uint256)": {
        "details": "See {IERC721-safeTransferFrom}."
      },
      "safeTransferFrom(address,address,uint256,bytes)": {
        "details": "See {IERC721-safeTransferFrom}."
      },
      "setApprovalForAll(address,bool)": {
        "details": "See {IERC721-setApprovalForAll}."
      },
      "supportsInterface(bytes4)": {
        "details": "See {IERC165-supportsInterface}."
      },
      "symbol()": {
        "details": "See {IERC721Metadata-symbol}."
      },
      "tokenURI(uint256)": {
        "details": "See {IERC721Metadata-tokenURI}."
      },
      "transferFrom(address,address,uint256)": {
        "details": "See {IERC721-transferFrom}."
      },
      "transferOwnership(address)": {
        "details": "Transfers ownership of the contract to a new account (`newOwner`). Can only be called by the current owner."
      }
    },
    "version": 1
  },
  "userdoc": {
    "kind": "user",
    "methods": {},
    "version": 1
  }
}