{
  "contractName": "ERC721",
  "abi": [
    {
      "inputs": [],
      "stateMutability": "nonpayable",
      "type": "constructor"
    },
    {
      "anonymous": false,
      "inputs": [
        {
          "indexed": true,
          "internalType": "address",
          "name": "owner",
          "type": "address"
        },
        {
          "indexed": true,
          "internalType": "address",
          "name": "approved",
          "type": "address"
        },
        {
          "indexed": false,
          "internalType": "uint256",
          "name": "tokenId",
          "type": "uint256"
        }
      ],
      "name": "Approval",
      "type": "event"
    },
    {
      "anonymous": false,
      "inputs": [
        {
          "indexed": true,
          "internalType": "address",
          "name": "owner",
          "type": "address"
        },
        {
          "indexed": true,
          "internalType": "address",
          "name": "operator",
          "type": "address"
        },
        {
          "indexed": false,
          "internalType": "bool",
          "name": "approved",
          "type": "bool"
        }
      ],
      "name": "ApprovalForAll",
      "type": "event"
    },
    {
      "anonymous": false,
      "inputs": [
        {
          "indexed": true,
          "internalType": "address",
          "name": "from",
          "type": "address"
        },
        {
          "indexed": true,
          "internalType": "address",
          "name": "to",
          "type": "address"
        },
        {
          "indexed": false,
          "internalType": "uint256",
          "name": "tokenId",
          "type": "uint256"
        }
      ],
      "name": "Transfer",
      "type": "event"
    },
    {
      "inputs": [
        {
          "internalType": "address",
          "name": "owner",
          "type": "address"
        }
      ],
      "name": "balanceOf",
      "outputs": [
        {
          "internalType": "uint256",
          "name": "balance",
          "type": "uint256"
        }
      ],
      "stateMutability": "view",
      "type": "function"
    },
    {
      "inputs": [
        {
          "internalType": "uint256",
          "name": "tokenId",
          "type": "uint256"
        }
      ],
      "name": "ownerOf",
      "outputs": [
        {
          "internalType": "address",
          "name": "",
          "type": "address"
        }
      ],
      "stateMutability": "view",
      "type": "function"
    },
    {
      "inputs": [
        {
          "internalType": "uint256",
          "name": "tokenId",
          "type": "uint256"
        }
      ],
      "name": "tokenURI",
      "outputs": [
        {
          "internalType": "string",
          "name": "",
          "type": "string"
        }
      ],
      "stateMutability": "view",
      "type": "function"
    },
    {
      "inputs": [
        {
          "internalType": "address",
          "name": "to",
          "type": "address"
        },
        {
          "internalType": "uint256",
          "name": "tokenId",
          "type": "uint256"
        }
      ],
      "name": "approve",
      "outputs": [],
      "stateMutability": "nonpayable",
      "type": "function"
    },
    {
      "inputs": [
        {
          "internalType": "uint256",
          "name": "tokenId",
          "type": "uint256"
        }
      ],
      "name": "getApproved",
      "outputs": [
        {
          "internalType": "address",
          "name": "",
          "type": "address"
        }
      ],
      "stateMutability": "view",
      "type": "function"
    },
    {
      "inputs": [
        {
          "internalType": "address",
          "name": "operator",
          "type": "address"
        },
        {
          "internalType": "bool",
          "name": "approved",
          "type": "bool"
        }
      ],
      "name": "setApprovalForAll",
      "outputs": [],
      "stateMutability": "nonpayable",
      "type": "function"
    },
    {
      "inputs": [
        {
          "internalType": "address",
          "name": "owner",
          "type": "address"
        },
        {
          "internalType": "address",
          "name": "operator",
          "type": "address"
        }
      ],
      "name": "isApprovedForAll",
      "outputs": [
        {
          "internalType": "bool",
          "name": "",
          "type": "bool"
        }
      ],
      "stateMutability": "view",
      "type": "function"
    },
    {
      "inputs": [
        {
          "internalType": "address",
          "name": "from",
          "type": "address"
        },
        {
          "internalType": "address",
          "name": "to",
          "type": "address"
        },
        {
          "internalType": "uint256",
          "name": "tokenId",
          "type": "uint256"
        },
        {
          "internalType": "bytes",
          "name": "_data",
          "type": "bytes"
        }
      ],
      "name": "safeTransferFrom",
      "outputs": [],
      "stateMutability": "nonpayable",
      "type": "function"
    },
    {
      "inputs": [
        {
          "internalType": "uint256",
          "name": "tokenId",
          "type": "uint256"
        }
      ],
      "name": "burn",
      "outputs": [],
      "stateMutability": "nonpayable",
      "type": "function"
    },
    {
      "inputs": [
        {
          "internalType": "address",
          "name": "",
          "type": "address"
        },
        {
          "internalType": "address",
          "name": "",
          "type": "address"
        },
        {
          "internalType": "uint256",
          "name": "",
          "type": "uint256"
        },
        {
          "internalType": "bytes",
          "name": "",
          "type": "bytes"
        }
      ],
      "name": "onERC721Received",
      "outputs": [
        {
          "internalType": "bytes4",
          "name": "",
          "type": "bytes4"
        }
      ],
      "stateMutability": "pure",
      "type": "function"
    }
  ],
  "bytecode": "0x60806040526040518060400160405280600681526020017f45524337323100000000000000000000000000000000000000000000000000008152506000908051906020019062000051929190620000d9565b506040518060400160405280600681526020017f6572633732310000000000000000000000000000000000000000000000000000815250600190805190602001906200009f929190620000d9565b5063150b7a0260e01b600360006101000a81548163ffffffff021916908360e01c0217905550348015620000d257600080fd5b50620001ee565b828054620000e79062000189565b90600052602060002090601f0160209004810192826200010b576000855562000157565b82601f106200012657805160ff191683800117855562000157565b8280016001018555821562000157579182015b828111156200015657825182559160200191906001019062000139565b5b5090506200016691906200016a565b5090565b5b80821115620001855760008160009055506001016200016b565b5090565b60006002820490506001821680620001a257607f821691505b60208210811415620001b957620001b8620001bf565b5b50919050565b7f4e487b7100000000000000000000000000000000000000000000000000000000600052602260045260246000fd5b61162f80620001fe6000396000f3fe608060405234801561001057600080fd5b506004361061009e5760003560e01c806370a082311161006657806370a082311461016b578063a22cb4651461019b578063b88d4fde146101b7578063c87b56dd146101d3578063e985e9c5146102035761009e565b8063081812fc146100a3578063095ea7b3146100d3578063150b7a02146100ef57806342966c681461011f5780636352211e1461013b575b600080fd5b6100bd60048036038101906100b8919061103b565b610233565b6040516100ca9190611194565b60405180910390f35b6100ed60048036038101906100e89190610fff565b610282565b005b61010960048036038101906101049190610f48565b61032e565b60405161011691906111ca565b60405180910390f35b6101396004803603810190610134919061103b565b61035b565b005b6101556004803603810190610150919061103b565b6103b7565b6040516101629190611194565b60405180910390f35b61018560048036038101906101809190610ee3565b610433565b6040516101929190611227565b60405180910390f35b6101b560048036038101906101b09190610fc3565b6104b5565b005b6101d160048036038101906101cc9190610f48565b610600565b005b6101ed60048036038101906101e8919061103b565b61062c565b6040516101fa91906111e5565b60405180910390f35b61021d60048036038101906102189190610f0c565b61069d565b60405161022a91906111af565b60405180910390f35b600061023e82610731565b61024757600080fd5b6006600083815260200190815260200160002060009054906101000a900473ffffffffffffffffffffffffffffffffffffffff169050919050565b600061028d826103b7565b90508073ffffffffffffffffffffffffffffffffffffffff168373ffffffffffffffffffffffffffffffffffffffff1614156102c857600080fd5b8073ffffffffffffffffffffffffffffffffffffffff166102e761079d565b73ffffffffffffffffffffffffffffffffffffffff16148061031657506103158161031061079d565b61069d565b5b61031f57600080fd5b61032983836107a5565b505050565b60007f150b7a023d4804d13e8c85fb27262cb750cf6ba9f9dd3bb30d90f482ceeb4b1f9050949350505050565b61036c61036661079d565b82610868565b6103ab576040517f08c379a00000000000000000000000000000000000000000000000000000000081526004016103a290611207565b60405180910390fd5b6103b481610910565b50565b6000806004600084815260200190815260200160002060009054906101000a900473ffffffffffffffffffffffffffffffffffffffff169050600073ffffffffffffffffffffffffffffffffffffffff168173ffffffffffffffffffffffffffffffffffffffff16141561042a57600080fd5b80915050919050565b60008073ffffffffffffffffffffffffffffffffffffffff168273ffffffffffffffffffffffffffffffffffffffff16141561046e57600080fd5b600560008373ffffffffffffffffffffffffffffffffffffffff1673ffffffffffffffffffffffffffffffffffffffff168152602001908152602001600020549050919050565b6104bd61079d565b73ffffffffffffffffffffffffffffffffffffffff168273ffffffffffffffffffffffffffffffffffffffff1614156104f557600080fd5b806007600061050261079d565b73ffffffffffffffffffffffffffffffffffffffff1673ffffffffffffffffffffffffffffffffffffffff16815260200190815260200160002060008473ffffffffffffffffffffffffffffffffffffffff1673ffffffffffffffffffffffffffffffffffffffff16815260200190815260200160002060006101000a81548160ff0219169083151502179055508173ffffffffffffffffffffffffffffffffffffffff166105af61079d565b73ffffffffffffffffffffffffffffffffffffffff167f17307eab39ab6107e8899845ad3d59bd9653f200f220920489ca2b5937696c31836040516105f491906111af565b60405180910390a35050565b61061161060b61079d565b83610868565b61061a57600080fd5b61062684848484610a2b565b50505050565b606061063782610731565b61064057600080fd5b600061064a610a51565b9050600081511161066a5760405180602001604052806000815250610695565b8061067484610ae3565b604051602001610685929190611170565b6040516020818303038152906040525b915050919050565b6000600760008473ffffffffffffffffffffffffffffffffffffffff1673ffffffffffffffffffffffffffffffffffffffff16815260200190815260200160002060008373ffffffffffffffffffffffffffffffffffffffff1673ffffffffffffffffffffffffffffffffffffffff16815260200190815260200160002060009054906101000a900460ff16905092915050565b60008073ffffffffffffffffffffffffffffffffffffffff166004600084815260200190815260200160002060009054906101000a900473ffffffffffffffffffffffffffffffffffffffff1673ffffffffffffffffffffffffffffffffffffffff1614159050919050565b600033905090565b816006600083815260200190815260200160002060006101000a81548173ffffffffffffffffffffffffffffffffffffffff021916908373ffffffffffffffffffffffffffffffffffffffff1602179055508173ffffffffffffffffffffffffffffffffffffffff16610817826103b7565b73ffffffffffffffffffffffffffffffffffffffff167f8c5be1e5ebec7d5bd14f71427d1e84f3dd0314c0f7b2291e5b200ac8c7c3b9258360405161085c9190611227565b60405180910390a35050565b600061087382610731565b61087c57600080fd5b6000610887836103b7565b90508073ffffffffffffffffffffffffffffffffffffffff168473ffffffffffffffffffffffffffffffffffffffff1614806108f657508373ffffffffffffffffffffffffffffffffffffffff166108de84610233565b73ffffffffffffffffffffffffffffffffffffffff16145b806109075750610906818561069d565b5b91505092915050565b600061091b826103b7565b905061092981600084610c90565b6109346000836107a5565b6001600560008373ffffffffffffffffffffffffffffffffffffffff1673ffffffffffffffffffffffffffffffffffffffff16815260200190815260200160002060008282546109849190611351565b925050819055506004600083815260200190815260200160002060006101000a81549073ffffffffffffffffffffffffffffffffffffffff0219169055600073ffffffffffffffffffffffffffffffffffffffff168173ffffffffffffffffffffffffffffffffffffffff167fddf252ad1be2c89b69c2b068fc378daa952ba7f163c4a11628f55a4df523b3ef84604051610a1f9190611227565b60405180910390a35050565b610a36848484610c95565b610a4284848484610d8f565b610a4b57600080fd5b50505050565b606060028054610a609061143b565b80601f0160208091040260200160405190810160405280929190818152602001828054610a8c9061143b565b8015610ad95780601f10610aae57610100808354040283529160200191610ad9565b820191906000526020600020905b815481529060010190602001808311610abc57829003601f168201915b5050505050905090565b60606000821415610b2b576040518060400160405280600181526020017f30000000000000000000000000000000000000000000000000000000000000008152509050610c8b565b600082905060005b60008214610b5d578080610b469061146d565b915050600a82610b569190611320565b9150610b33565b60008167ffffffffffffffff811115610b9f577f4e487b7100000000000000000000000000000000000000000000000000000000600052604160045260246000fd5b6040519080825280601f01601f191660200182016040528015610bd15781602001600182028036833780820191505090505b5090505b60008514610c8457600182610bea9190611351565b9150600a85610bf991906114b6565b6030610c0591906112ca565b60f81b818381518110610c41577f4e487b7100000000000000000000000000000000000000000000000000000000600052603260045260246000fd5b60200101907effffffffffffffffffffffffffffffffffffffffffffffffffffffffffffff1916908160001a905350600a85610c7d9190611320565b9450610bd5565b8093505050505b919050565b505050565b8273ffffffffffffffffffffffffffffffffffffffff16610cb5826103b7565b73ffffffffffffffffffffffffffffffffffffffff1614610cd557600080fd5b600073ffffffffffffffffffffffffffffffffffffffff168273ffffffffffffffffffffffffffffffffffffffff161415610d0f57600080fd5b610d1a838383610c90565b610d256000826107a5565b8173ffffffffffffffffffffffffffffffffffffffff168373ffffffffffffffffffffffffffffffffffffffff167fddf252ad1be2c89b69c2b068fc378daa952ba7f163c4a11628f55a4df523b3ef83604051610d829190611227565b60405180910390a3505050565b6000610db08473ffffffffffffffffffffffffffffffffffffffff16610e29565b610dbd5760019050610e21565b6000610dcb3387868661032e565b9050600360009054906101000a900460e01b7bffffffffffffffffffffffffffffffffffffffffffffffffffffffff1916817bffffffffffffffffffffffffffffffffffffffffffffffffffffffff1916149150505b949350505050565b600080823b905060008111915050919050565b6000610e4f610e4a84611273565b611242565b905082815260208101848484011115610e6757600080fd5b610e728482856113f9565b509392505050565b600081359050610e89816115b4565b92915050565b600081359050610e9e816115cb565b92915050565b600082601f830112610eb557600080fd5b8135610ec5848260208601610e3c565b91505092915050565b600081359050610edd816115e2565b92915050565b600060208284031215610ef557600080fd5b6000610f0384828501610e7a565b91505092915050565b60008060408385031215610f1f57600080fd5b6000610f2d85828601610e7a565b9250506020610f3e85828601610e7a565b9150509250929050565b60008060008060808587031215610f5e57600080fd5b6000610f6c87828801610e7a565b9450506020610f7d87828801610e7a565b9350506040610f8e87828801610ece565b925050606085013567ffffffffffffffff811115610fab57600080fd5b610fb787828801610ea4565b91505092959194509250565b60008060408385031215610fd657600080fd5b6000610fe485828601610e7a565b9250506020610ff585828601610e8f565b9150509250929050565b6000806040838503121561101257600080fd5b600061102085828601610e7a565b925050602061103185828601610ece565b9150509250929050565b60006020828403121561104d57600080fd5b600061105b84828501610ece565b91505092915050565b61106d81611385565b82525050565b61107c81611397565b82525050565b61108b816113a3565b82525050565b600061109c826112a3565b6110a681856112ae565b93506110b6818560208601611408565b6110bf816115a3565b840191505092915050565b60006110d5826112a3565b6110df81856112bf565b93506110ef818560208601611408565b80840191505092915050565b60006111086030836112ae565b91507f4552433732314275726e61626c653a2063616c6c6572206973206e6f74206f7760008301527f6e6572206e6f7220617070726f766564000000000000000000000000000000006020830152604082019050919050565b61116a816113ef565b82525050565b600061117c82856110ca565b915061118882846110ca565b91508190509392505050565b60006020820190506111a96000830184611064565b92915050565b60006020820190506111c46000830184611073565b92915050565b60006020820190506111df6000830184611082565b92915050565b600060208201905081810360008301526111ff8184611091565b905092915050565b60006020820190508181036000830152611220816110fb565b9050919050565b600060208201905061123c6000830184611161565b92915050565b6000604051905081810181811067ffffffffffffffff8211171561126957611268611574565b5b8060405250919050565b600067ffffffffffffffff82111561128e5761128d611574565b5b601f19601f8301169050602081019050919050565b600081519050919050565b600082825260208201905092915050565b600081905092915050565b60006112d5826113ef565b91506112e0836113ef565b9250827fffffffffffffffffffffffffffffffffffffffffffffffffffffffffffffffff03821115611315576113146114e7565b5b828201905092915050565b600061132b826113ef565b9150611336836113ef565b92508261134657611345611516565b5b828204905092915050565b600061135c826113ef565b9150611367836113ef565b92508282101561137a576113796114e7565b5b828203905092915050565b6000611390826113cf565b9050919050565b60008115159050919050565b60007fffffffff0000000000000000000000000000000000000000000000000000000082169050919050565b600073ffffffffffffffffffffffffffffffffffffffff82169050919050565b6000819050919050565b82818337600083830152505050565b60005b8381101561142657808201518184015260208101905061140b565b83811115611435576000848401525b50505050565b6000600282049050600182168061145357607f821691505b6020821081141561146757611466611545565b5b50919050565b6000611478826113ef565b91507fffffffffffffffffffffffffffffffffffffffffffffffffffffffffffffffff8214156114ab576114aa6114e7565b5b600182019050919050565b60006114c1826113ef565b91506114cc836113ef565b9250826114dc576114db611516565b5b828206905092915050565b7f4e487b7100000000000000000000000000000000000000000000000000000000600052601160045260246000fd5b7f4e487b7100000000000000000000000000000000000000000000000000000000600052601260045260246000fd5b7f4e487b7100000000000000000000000000000000000000000000000000000000600052602260045260246000fd5b7f4e487b7100000000000000000000000000000000000000000000000000000000600052604160045260246000fd5b6000601f19601f8301169050919050565b6115bd81611385565b81146115c857600080fd5b50565b6115d481611397565b81146115df57600080fd5b50565b6115eb816113ef565b81146115f657600080fd5b5056fea2646970667358221220e29fe1fabd4e36cb12ff31eaac6b270eefb898126680d5c29e52f9ba899939c564736f6c63430008000033",
  "immutableReferences": {},
  "source": "// SPDX-License-Identifier: UNLICENSED\npragma solidity ^0.8.0;\nlibrary Address {\n  function isContract(address account) internal view returns (bool) {\n    uint256 size;\n    assembly {\n      size := extcodesize(account)\n    }\n    return size > 0;\n  }\n  function sendValue(address payable recipient, uint256 amount) internal {\n    require(address(this).balance >= amount, 'Insufficient balance');\n    (bool success, ) = recipient.call{value:amount}('');\n    require(success, 'Unable to send value, recipient may have reverted');\n  }\n  function functionCall(address target, bytes memory data, string memory errorMessage) internal returns (bytes memory) {\n    return functionCallWithValue(target, data, 0, errorMessage);\n  }\n  function functionCallWithValue(address target, bytes memory data, uint256 value, string memory errorMessage) internal returns (bytes memory) {\n    require(address(this).balance >= value, 'Insufficient balance for call');\n    require(isContract(target), 'Call to non-contract');\n    (bool success, bytes memory returndata) = target.call{value:value}(data);\n    return verifyCallResult(success, returndata, errorMessage);\n  }\n  function functionStaticCall(address target, bytes memory data, string memory errorMessage) internal view returns (bytes memory) {\n    require(isContract(target), 'Static call to non-contract');\n    (bool success, bytes memory returndata) = target.staticcall(data);\n    return verifyCallResult(success, returndata, errorMessage);\n  }\n  function functionDelegateCall(address target, bytes memory data, string memory errorMessage) internal returns (bytes memory) {\n    require(isContract(target), 'Delegate call to non-contract');\n    (bool success, bytes memory returndata) = target.delegatecall(data);\n    return verifyCallResult(success, returndata, errorMessage);\n  }\n  function verifyCallResult(bool success, bytes memory returndata, string memory errorMessage) internal pure returns (bytes memory) {\n    if(success) {\n      return returndata;\n    } else {\n      if(returndata.length >0) {\n        assembly {\n          let returndata_size := mload(returndata)\n          revert(add(32, returndata), returndata_size)\n        }\n      } else {\n        revert(errorMessage);\n      }\n    }\n  }\n}\nlibrary Strings {\n  bytes private constant _HEX_SYMBOLS = '0123456789abcdef';\n\n  function toString(uint256 value) internal pure returns (string memory) {\n    if(value == 0) {\n      return '0';\n    }\n    uint256 temp = value;\n    uint256 digits;\n    while(temp != 0) {\n      digits++;\n      temp /= 10;\n    }\n    bytes memory buffer = new bytes(digits);\n    while(value != 0) {\n      digits -= 1;\n      buffer[digits] = bytes1(uint8(48 + uint256(value % 10)));\n      value /= 10;\n    }\n    return string(buffer);\n  }\n  function toHexString(uint256 value, uint256 length) internal pure returns (string memory) {\n    bytes memory buffer = new bytes(2 * length + 2);\n    buffer[0] = '0';\n    buffer[1] = 'x';\n    for(uint256 i = 2 * length +1; i > 1; --i) {\n      buffer[i] = _HEX_SYMBOLS[value & 0xf];\n      value >>= 4;\n    }\n    require(value == 0, 'Hex length insufficient');\n    return string(buffer);\n  }\n}\ncontract ERC721 {\n  using Address for address;\n  using Strings for uint256;\n\n  string private name = 'ERC721';\n  string private symbol = 'erc721';\n  string private _baseTokenURI;\n  bytes4 private _ERC721_RECEIVED = 0x150b7a02;\n\n  mapping(uint256 => address) private _owners;\n  mapping(address => uint256) private _balances;\n  mapping(uint256 => address) private _tokenApprovals;\n  mapping(address => mapping(address => bool)) private _operatorApprovals;\n\n  event Transfer(address indexed from, address indexed to, uint256 tokenId);\n  event Approval(address indexed owner, address indexed approved, uint256 tokenId);\n  event ApprovalForAll(address indexed owner, address indexed operator, bool approved);\n\n  constructor () {}\n  function _msgSender() internal view returns (address) {\n    return msg.sender;\n  }\n  function _msgData() internal pure returns (bytes calldata) {\n    return msg.data;\n  }\n\n  function balanceOf(address owner) public view returns (uint256 balance) {\n    require(owner != address(0));\n    return _balances[owner];\n  }\n  function ownerOf(uint tokenId) public view returns (address) {\n    address owner = _owners[tokenId];\n    require(owner != address(0));\n    return owner;\n  }\n  function tokenURI(uint256 tokenId) public view returns (string memory) {\n    require(_exists(tokenId));\n    string memory baseURI = _baseURI();\n    return bytes(baseURI).length >0 ? string(abi.encodePacked(baseURI, tokenId.toString())) : '';\n  }\n  function _baseURI() internal view returns (string memory) {\n    return _baseTokenURI;\n  }\n  function _exists(uint256 tokenId) internal view returns (bool) {\n    return _owners[tokenId] != address(0);\n  }\n  function approve(address to, uint256 tokenId) public {\n    address owner = ownerOf(tokenId);\n    require(to != owner);\n    require(_msgSender() == owner || isApprovedForAll(owner, _msgSender()));\n    _approve(to, tokenId);\n  }\n  function _approve(address to, uint256 tokenId) internal {\n    _tokenApprovals[tokenId] = to;\n    emit Approval(ownerOf(tokenId), to, tokenId);\n  }\n  function getApproved(uint256 tokenId) public view returns(address) {\n    require(_exists(tokenId));\n    return _tokenApprovals[tokenId];\n  }\n  function setApprovalForAll(address operator, bool approved) public {\n    require(operator != _msgSender());\n    _operatorApprovals[_msgSender()][operator] = approved;\n    emit ApprovalForAll(_msgSender(), operator, approved);\n  }\n  function isApprovedForAll(address owner, address operator) public view returns (bool) {\n    return _operatorApprovals[owner][operator];\n  }\n  function _isApprovedOrOwner(address spender, uint256 tokenId) internal view returns (bool) {\n    require(_exists(tokenId));\n    address owner = ownerOf(tokenId);\n    return (spender == owner || getApproved(tokenId) == spender || isApprovedForAll(owner,spender));\n  }\n  function _beforeTokenTransfer(address from, address to, uint256 tokenId) internal {}\n\n  function _transfer(address from, address to, uint256 tokenId) internal {\n    require(ownerOf(tokenId) == from);\n    require(to != address(0));\n    _beforeTokenTransfer(from, to, tokenId);\n    _approve(address(0), tokenId);\n    emit Transfer(from, to, tokenId);\n  }\n  function _safeTransfer(address from, address to, uint256 tokenId, bytes memory _data) internal {\n    _transfer(from, to, tokenId);\n    require(_checkOnERC721Received(from, to, tokenId, _data));\n  }\n  function safeTransferFrom(address from, address to, uint256 tokenId, bytes memory _data) public {\n    require(_isApprovedOrOwner(_msgSender(), tokenId));\n    _safeTransfer(from, to, tokenId, _data);\n  }\n  function _mint(address to, uint256 tokenId) internal {\n    require(to != address(0));\n    require(!_exists(tokenId));\n    _beforeTokenTransfer(address(0), to, tokenId);\n    _balances[to] += 1;\n    _owners[tokenId] = to;\n    emit Transfer(address(0), to, tokenId);\n  }\n  function _safeMint(address to, uint256 tokenId, bytes memory _data) internal {\n    _mint(to,tokenId);\n    require(_checkOnERC721Received(address(0), to, tokenId, _data));\n  }\n  function burn(uint256 tokenId) public virtual {\n        //solhint-disable-next-line max-line-length\n        require(_isApprovedOrOwner(_msgSender(), tokenId), \"ERC721Burnable: caller is not owner nor approved\");\n        _burn(tokenId);\n    }\n  function _burn(uint256 tokenId) internal {\n    address owner = ownerOf(tokenId);\n    _beforeTokenTransfer(owner, address(0), tokenId);\n    _approve(address(0), tokenId);\n    _balances[owner] -= 1;\n    delete _owners[tokenId];\n    emit Transfer(owner, address(0), tokenId);\n  }\n  function onERC721Received(address, address, uint256, bytes memory) public pure returns (bytes4) {\n    return bytes4(keccak256(\"onERC721Received(address,address,uint256,bytes)\"));\n  }\n\n  function _checkOnERC721Received(address from, address to, uint256 tokenId, bytes memory _data) private view returns (bool) {\n    if (!to.isContract()) {\n            return true;\n        }\n        bytes4 retval = onERC721Received(msg.sender, from, tokenId, _data);\n        return (retval == _ERC721_RECEIVED);\n  }\n}",
  "sourcePath": "/Users/damiana/Documents/Coding Projects/_MBrody22/NFT FF7/src/contracts/FF7.sol",
  "compiler": {
    "name": "solc",
    "version": "0.8.0+commit.c7dfd78e.Emscripten.clang"
  },
  "schemaVersion": "3.4.1",
  "updatedAt": "2021-08-04T16:50:27.420Z",
  "devdoc": {
    "kind": "dev",
    "methods": {},
    "version": 1
  },
  "userdoc": {
    "kind": "user",
    "methods": {},
    "version": 1
  }
}