{
  "contractName": "FF7",
  "abi": [
    {
      "inputs": [],
      "stateMutability": "nonpayable",
      "type": "constructor"
    },
    {
      "anonymous": false,
      "inputs": [
        {
          "indexed": true,
          "internalType": "address",
          "name": "owner",
          "type": "address"
        },
        {
          "indexed": true,
          "internalType": "address",
          "name": "approved",
          "type": "address"
        },
        {
          "indexed": false,
          "internalType": "uint256",
          "name": "tokenId",
          "type": "uint256"
        }
      ],
      "name": "Approval",
      "type": "event"
    },
    {
      "anonymous": false,
      "inputs": [
        {
          "indexed": true,
          "internalType": "address",
          "name": "owner",
          "type": "address"
        },
        {
          "indexed": true,
          "internalType": "address",
          "name": "operator",
          "type": "address"
        },
        {
          "indexed": false,
          "internalType": "bool",
          "name": "approved",
          "type": "bool"
        }
      ],
      "name": "ApprovalForAll",
      "type": "event"
    },
    {
      "anonymous": false,
      "inputs": [
        {
          "indexed": false,
          "internalType": "address",
          "name": "account",
          "type": "address"
        }
      ],
      "name": "Paused",
      "type": "event"
    },
    {
      "anonymous": false,
      "inputs": [
        {
          "indexed": true,
          "internalType": "bytes32",
          "name": "role",
          "type": "bytes32"
        },
        {
          "indexed": true,
          "internalType": "bytes32",
          "name": "previousAdminRole",
          "type": "bytes32"
        },
        {
          "indexed": true,
          "internalType": "bytes32",
          "name": "newAdminRole",
          "type": "bytes32"
        }
      ],
      "name": "RoleAdminChanged",
      "type": "event"
    },
    {
      "anonymous": false,
      "inputs": [
        {
          "indexed": true,
          "internalType": "bytes32",
          "name": "role",
          "type": "bytes32"
        },
        {
          "indexed": true,
          "internalType": "address",
          "name": "account",
          "type": "address"
        },
        {
          "indexed": true,
          "internalType": "address",
          "name": "sender",
          "type": "address"
        }
      ],
      "name": "RoleGranted",
      "type": "event"
    },
    {
      "anonymous": false,
      "inputs": [
        {
          "indexed": true,
          "internalType": "bytes32",
          "name": "role",
          "type": "bytes32"
        },
        {
          "indexed": true,
          "internalType": "address",
          "name": "account",
          "type": "address"
        },
        {
          "indexed": true,
          "internalType": "address",
          "name": "sender",
          "type": "address"
        }
      ],
      "name": "RoleRevoked",
      "type": "event"
    },
    {
      "anonymous": false,
      "inputs": [
        {
          "indexed": true,
          "internalType": "address",
          "name": "from",
          "type": "address"
        },
        {
          "indexed": true,
          "internalType": "address",
          "name": "to",
          "type": "address"
        },
        {
          "indexed": false,
          "internalType": "uint256",
          "name": "tokenId",
          "type": "uint256"
        }
      ],
      "name": "Transfer",
      "type": "event"
    },
    {
      "anonymous": false,
      "inputs": [
        {
          "indexed": false,
          "internalType": "address",
          "name": "account",
          "type": "address"
        }
      ],
      "name": "Unpaused",
      "type": "event"
    },
    {
      "inputs": [],
      "name": "DEFAULT_ADMIN_ROLE",
      "outputs": [
        {
          "internalType": "bytes32",
          "name": "",
          "type": "bytes32"
        }
      ],
      "stateMutability": "view",
      "type": "function",
      "constant": true
    },
    {
      "inputs": [],
      "name": "MINTER_ROLE",
      "outputs": [
        {
          "internalType": "bytes32",
          "name": "",
          "type": "bytes32"
        }
      ],
      "stateMutability": "view",
      "type": "function",
      "constant": true
    },
    {
      "inputs": [],
      "name": "PAUSER_ROLE",
      "outputs": [
        {
          "internalType": "bytes32",
          "name": "",
          "type": "bytes32"
        }
      ],
      "stateMutability": "view",
      "type": "function",
      "constant": true
    },
    {
      "inputs": [],
      "name": "totalSupply",
      "outputs": [
        {
          "internalType": "uint256",
          "name": "",
          "type": "uint256"
        }
      ],
      "stateMutability": "view",
      "type": "function",
      "constant": true
    },
    {
      "inputs": [
        {
          "internalType": "address",
          "name": "owner",
          "type": "address"
        }
      ],
      "name": "balanceOf",
      "outputs": [
        {
          "internalType": "uint256",
          "name": "balance",
          "type": "uint256"
        }
      ],
      "stateMutability": "view",
      "type": "function",
      "constant": true
    },
    {
      "inputs": [
        {
          "internalType": "uint256",
          "name": "tokenId",
          "type": "uint256"
        }
      ],
      "name": "ownerOf",
      "outputs": [
        {
          "internalType": "address",
          "name": "",
          "type": "address"
        }
      ],
      "stateMutability": "view",
      "type": "function",
      "constant": true
    },
    {
      "inputs": [
        {
          "internalType": "uint256",
          "name": "tokenId",
          "type": "uint256"
        }
      ],
      "name": "tokenURI",
      "outputs": [
        {
          "internalType": "string",
          "name": "",
          "type": "string"
        }
      ],
      "stateMutability": "view",
      "type": "function",
      "constant": true
    },
    {
      "inputs": [
        {
          "internalType": "address",
          "name": "to",
          "type": "address"
        },
        {
          "internalType": "uint256",
          "name": "tokenId",
          "type": "uint256"
        }
      ],
      "name": "approve",
      "outputs": [],
      "stateMutability": "nonpayable",
      "type": "function"
    },
    {
      "inputs": [
        {
          "internalType": "uint256",
          "name": "tokenId",
          "type": "uint256"
        }
      ],
      "name": "getApproved",
      "outputs": [
        {
          "internalType": "address",
          "name": "",
          "type": "address"
        }
      ],
      "stateMutability": "view",
      "type": "function",
      "constant": true
    },
    {
      "inputs": [
        {
          "internalType": "address",
          "name": "operator",
          "type": "address"
        },
        {
          "internalType": "bool",
          "name": "approved",
          "type": "bool"
        }
      ],
      "name": "setApprovalForAll",
      "outputs": [],
      "stateMutability": "nonpayable",
      "type": "function"
    },
    {
      "inputs": [
        {
          "internalType": "address",
          "name": "owner",
          "type": "address"
        },
        {
          "internalType": "address",
          "name": "operator",
          "type": "address"
        }
      ],
      "name": "isApprovedForAll",
      "outputs": [
        {
          "internalType": "bool",
          "name": "",
          "type": "bool"
        }
      ],
      "stateMutability": "view",
      "type": "function",
      "constant": true
    },
    {
      "inputs": [
        {
          "internalType": "address",
          "name": "from",
          "type": "address"
        },
        {
          "internalType": "address",
          "name": "to",
          "type": "address"
        },
        {
          "internalType": "uint256",
          "name": "tokenId",
          "type": "uint256"
        },
        {
          "internalType": "bytes",
          "name": "_data",
          "type": "bytes"
        }
      ],
      "name": "safeTransferFrom",
      "outputs": [],
      "stateMutability": "nonpayable",
      "type": "function"
    },
    {
      "inputs": [],
      "name": "paused",
      "outputs": [
        {
          "internalType": "bool",
          "name": "",
          "type": "bool"
        }
      ],
      "stateMutability": "view",
      "type": "function",
      "constant": true
    },
    {
      "inputs": [],
      "name": "pause",
      "outputs": [],
      "stateMutability": "nonpayable",
      "type": "function"
    },
    {
      "inputs": [],
      "name": "unpause",
      "outputs": [],
      "stateMutability": "nonpayable",
      "type": "function"
    },
    {
      "inputs": [
        {
          "internalType": "address",
          "name": "to",
          "type": "address"
        }
      ],
      "name": "mint",
      "outputs": [],
      "stateMutability": "nonpayable",
      "type": "function"
    },
    {
      "inputs": [
        {
          "internalType": "uint256",
          "name": "tokenId",
          "type": "uint256"
        }
      ],
      "name": "burn",
      "outputs": [],
      "stateMutability": "nonpayable",
      "type": "function"
    },
    {
      "inputs": [
        {
          "internalType": "address",
          "name": "",
          "type": "address"
        },
        {
          "internalType": "address",
          "name": "",
          "type": "address"
        },
        {
          "internalType": "uint256",
          "name": "",
          "type": "uint256"
        },
        {
          "internalType": "bytes",
          "name": "",
          "type": "bytes"
        }
      ],
      "name": "onERC721Received",
      "outputs": [
        {
          "internalType": "bytes4",
          "name": "",
          "type": "bytes4"
        }
      ],
      "stateMutability": "pure",
      "type": "function",
      "constant": true
    },
    {
      "inputs": [
        {
          "internalType": "bytes32",
          "name": "role",
          "type": "bytes32"
        },
        {
          "internalType": "address",
          "name": "account",
          "type": "address"
        }
      ],
      "name": "hasRole",
      "outputs": [
        {
          "internalType": "bool",
          "name": "",
          "type": "bool"
        }
      ],
      "stateMutability": "view",
      "type": "function",
      "constant": true
    },
    {
      "inputs": [
        {
          "internalType": "bytes32",
          "name": "role",
          "type": "bytes32"
        }
      ],
      "name": "getRoleAdmin",
      "outputs": [
        {
          "internalType": "bytes32",
          "name": "",
          "type": "bytes32"
        }
      ],
      "stateMutability": "view",
      "type": "function",
      "constant": true
    },
    {
      "inputs": [
        {
          "internalType": "bytes32",
          "name": "role",
          "type": "bytes32"
        },
        {
          "internalType": "uint256",
          "name": "index",
          "type": "uint256"
        }
      ],
      "name": "getRoleMember",
      "outputs": [
        {
          "internalType": "address",
          "name": "",
          "type": "address"
        }
      ],
      "stateMutability": "view",
      "type": "function",
      "constant": true
    },
    {
      "inputs": [
        {
          "internalType": "bytes32",
          "name": "role",
          "type": "bytes32"
        }
      ],
      "name": "getRoleMemberCount",
      "outputs": [
        {
          "internalType": "uint256",
          "name": "",
          "type": "uint256"
        }
      ],
      "stateMutability": "view",
      "type": "function",
      "constant": true
    },
    {
      "inputs": [
        {
          "internalType": "bytes32",
          "name": "role",
          "type": "bytes32"
        },
        {
          "internalType": "address",
          "name": "account",
          "type": "address"
        }
      ],
      "name": "grantRole",
      "outputs": [],
      "stateMutability": "nonpayable",
      "type": "function"
    },
    {
      "inputs": [
        {
          "internalType": "bytes32",
          "name": "role",
          "type": "bytes32"
        },
        {
          "internalType": "address",
          "name": "account",
          "type": "address"
        }
      ],
      "name": "revokeRole",
      "outputs": [],
      "stateMutability": "nonpayable",
      "type": "function"
    },
    {
      "inputs": [
        {
          "internalType": "bytes32",
          "name": "role",
          "type": "bytes32"
        },
        {
          "internalType": "address",
          "name": "account",
          "type": "address"
        }
      ],
      "name": "renounceRole",
      "outputs": [],
      "stateMutability": "nonpayable",
      "type": "function"
    },
    {
      "inputs": [
        {
          "internalType": "address",
          "name": "owner",
          "type": "address"
        },
        {
          "internalType": "uint256",
          "name": "index",
          "type": "uint256"
        }
      ],
      "name": "tokenOfOwnerByIndex",
      "outputs": [
        {
          "internalType": "uint256",
          "name": "",
          "type": "uint256"
        }
      ],
      "stateMutability": "view",
      "type": "function",
      "constant": true
    },
    {
      "inputs": [
        {
          "internalType": "uint256",
          "name": "index",
          "type": "uint256"
        }
      ],
      "name": "tokenByIndex",
      "outputs": [
        {
          "internalType": "uint256",
          "name": "",
          "type": "uint256"
        }
      ],
      "stateMutability": "view",
      "type": "function",
      "constant": true
    }
  ],
  "bytecode": "0x60806040526040518060400160405280601781526020017f46696e616c2046616e7461737920436f6c6c6563746f6e000000000000000000815250600290805190602001906200005192919062000315565b506040518060400160405280600381526020017f4646370000000000000000000000000000000000000000000000000000000000815250600390805190602001906200009f92919062000315565b5063150b7a0260e01b600560006101000a81548163ffffffff021916908360e01c0217905550348015620000d257600080fd5b506000600160006101000a81548160ff021916908315150217905550620001126000801b620001066200019a60201b60201c565b620001a260201b60201c565b620001537f9f2df0fed2c77648de5860a4cc508cd0818c85b8b8a1ab4ceeef8d981c8956a6620001476200019a60201b60201c565b620001a260201b60201c565b620001947f65d7a28e3265b37a6474929f336521b332c1681b933f6cb9f3376673440d862a620001886200019a60201b60201c565b620001a260201b60201c565b6200042a565b600033905090565b620001b48282620001b860201b60201c565b5050565b620001ca8282620002aa60201b60201c565b620002a6576001600e600084815260200190815260200160002060000160008373ffffffffffffffffffffffffffffffffffffffff1673ffffffffffffffffffffffffffffffffffffffff16815260200190815260200160002060006101000a81548160ff0219169083151502179055506200024b6200019a60201b60201c565b73ffffffffffffffffffffffffffffffffffffffff168173ffffffffffffffffffffffffffffffffffffffff16837f2f8788117e7eff1d82e926ec794901d17c78024a50270940304540a733656f0d60405160405180910390a45b5050565b6000600e600084815260200190815260200160002060000160008373ffffffffffffffffffffffffffffffffffffffff1673ffffffffffffffffffffffffffffffffffffffff16815260200190815260200160002060009054906101000a900460ff16905092915050565b8280546200032390620003c5565b90600052602060002090601f01602090048101928262000347576000855562000393565b82601f106200036257805160ff191683800117855562000393565b8280016001018555821562000393579182015b828111156200039257825182559160200191906001019062000375565b5b509050620003a29190620003a6565b5090565b5b80821115620003c1576000816000905550600101620003a7565b5090565b60006002820490506001821680620003de57607f821691505b60208210811415620003f557620003f4620003fb565b5b50919050565b7f4e487b7100000000000000000000000000000000000000000000000000000000600052602260045260246000fd5b612db7806200043a6000396000f3fe608060405234801561001057600080fd5b50600436106101a95760003560e01c80636a627842116100f9578063b88d4fde11610097578063d539139311610071578063d5391393146104f0578063d547741f1461050e578063e63ab1e91461052a578063e985e9c514610548576101a9565b8063b88d4fde14610474578063c87b56dd14610490578063ca15c873146104c0576101a9565b80639010d07c116100d35780639010d07c146103da57806391d148541461040a578063a217fddf1461043a578063a22cb46514610458576101a9565b80636a6278421461038457806370a08231146103a05780638456cb59146103d0576101a9565b80632f745c591161016657806342966c681161014057806342966c68146102ea5780634f6ccce7146103065780635c975abb146103365780636352211e14610354576101a9565b80632f745c591461029457806336568abe146102c45780633f4ba83a146102e0576101a9565b8063081812fc146101ae578063095ea7b3146101de578063150b7a02146101fa57806318160ddd1461022a578063248a9ca3146102485780632f2ff15d14610278575b600080fd5b6101c860048036038101906101c391906121f6565b610578565b6040516101d5919061273c565b60405180910390f35b6101f860048036038101906101f39190612119565b6105c7565b005b610214600480360381019061020f9190612062565b610673565b604051610221919061278d565b60405180910390f35b6102326106a0565b60405161023f919061290a565b60405180910390f35b610262600480360381019061025d9190612155565b6106ac565b60405161026f9190612772565b60405180910390f35b610292600480360381019061028d919061217e565b6106cc565b005b6102ae60048036038101906102a99190612119565b6106f5565b6040516102bb919061290a565b60405180910390f35b6102de60048036038101906102d9919061217e565b61079a565b005b6102e861081d565b005b61030460048036038101906102ff91906121f6565b610897565b005b610320600480360381019061031b91906121f6565b6108f3565b60405161032d919061290a565b60405180910390f35b61033e61098a565b60405161034b9190612757565b60405180910390f35b61036e600480360381019061036991906121f6565b6109a1565b60405161037b919061273c565b60405180910390f35b61039e60048036038101906103999190611ffd565b610a1d565b005b6103ba60048036038101906103b59190611ffd565b610aad565b6040516103c7919061290a565b60405180910390f35b6103d8610b2f565b005b6103f460048036038101906103ef91906121ba565b610ba9565b604051610401919061273c565b60405180910390f35b610424600480360381019061041f919061217e565b610bd8565b6040516104319190612757565b60405180910390f35b610442610c43565b60405161044f9190612772565b60405180910390f35b610472600480360381019061046d91906120dd565b610c4a565b005b61048e60048036038101906104899190612062565b610d95565b005b6104aa60048036038101906104a591906121f6565b610dc1565b6040516104b791906127a8565b60405180910390f35b6104da60048036038101906104d59190612155565b610e32565b6040516104e7919061290a565b60405180910390f35b6104f8610e56565b6040516105059190612772565b60405180910390f35b6105286004803603810190610523919061217e565b610e7a565b005b610532610ea3565b60405161053f9190612772565b60405180910390f35b610562600480360381019061055d9190612026565b610ec7565b60405161056f9190612757565b60405180910390f35b600061058382610f5b565b61058c57600080fd5b6008600083815260200190815260200160002060009054906101000a900473ffffffffffffffffffffffffffffffffffffffff169050919050565b60006105d2826109a1565b90508073ffffffffffffffffffffffffffffffffffffffff168373ffffffffffffffffffffffffffffffffffffffff16141561060d57600080fd5b8073ffffffffffffffffffffffffffffffffffffffff1661062c610fc7565b73ffffffffffffffffffffffffffffffffffffffff16148061065b575061065a81610655610fc7565b610ec7565b5b61066457600080fd5b61066e8383610fcf565b505050565b60007f150b7a023d4804d13e8c85fb27262cb750cf6ba9f9dd3bb30d90f482ceeb4b1f9050949350505050565b60008080549050905090565b6000600e6000838152602001908152602001600020600101549050919050565b6106d5826106ac565b6106e6816106e1610fc7565b611092565b6106f0838361112f565b505050565b600061070083610aad565b8210610741576040517f08c379a0000000000000000000000000000000000000000000000000000000008152600401610738906127ea565b60405180910390fd5b600d60008473ffffffffffffffffffffffffffffffffffffffff1673ffffffffffffffffffffffffffffffffffffffff168152602001908152602001600020600083815260200190815260200160002054905092915050565b6107a2610fc7565b73ffffffffffffffffffffffffffffffffffffffff168173ffffffffffffffffffffffffffffffffffffffff161461080f576040517f08c379a0000000000000000000000000000000000000000000000000000000008152600401610806906128ea565b60405180910390fd5b6108198282611210565b5050565b61084e7f65d7a28e3265b37a6474929f336521b332c1681b933f6cb9f3376673440d862a610849610fc7565b610bd8565b61088d576040517f08c379a0000000000000000000000000000000000000000000000000000000008152600401610884906128ca565b60405180910390fd5b6108956112f2565b565b6108a86108a2610fc7565b82611394565b6108e7576040517f08c379a00000000000000000000000000000000000000000000000000000000081526004016108de906128aa565b60405180910390fd5b6108f08161143c565b50565b60006108fd6106a0565b821061093e576040517f08c379a00000000000000000000000000000000000000000000000000000000081526004016109359061286a565b60405180910390fd5b60008281548110610978577f4e487b7100000000000000000000000000000000000000000000000000000000600052603260045260246000fd5b90600052602060002001549050919050565b6000600160009054906101000a900460ff16905090565b6000806007600084815260200190815260200160002060009054906101000a900473ffffffffffffffffffffffffffffffffffffffff169050600073ffffffffffffffffffffffffffffffffffffffff168173ffffffffffffffffffffffffffffffffffffffff161415610a1457600080fd5b80915050919050565b610a4e7f9f2df0fed2c77648de5860a4cc508cd0818c85b8b8a1ab4ceeef8d981c8956a6610a49610fc7565b610bd8565b610a8d576040517f08c379a0000000000000000000000000000000000000000000000000000000008152600401610a849061288a565b60405180910390fd5b610aa081610a9b6006611557565b611565565b610aaa60066116d1565b50565b60008073ffffffffffffffffffffffffffffffffffffffff168273ffffffffffffffffffffffffffffffffffffffff161415610ae857600080fd5b600b60008373ffffffffffffffffffffffffffffffffffffffff1673ffffffffffffffffffffffffffffffffffffffff168152602001908152602001600020549050919050565b610b607f65d7a28e3265b37a6474929f336521b332c1681b933f6cb9f3376673440d862a610b5b610fc7565b610bd8565b610b9f576040517f08c379a0000000000000000000000000000000000000000000000000000000008152600401610b969061280a565b60405180910390fd5b610ba76116e7565b565b6000610bd082600f600086815260200190815260200160002061178990919063ffffffff16565b905092915050565b6000600e600084815260200190815260200160002060000160008373ffffffffffffffffffffffffffffffffffffffff1673ffffffffffffffffffffffffffffffffffffffff16815260200190815260200160002060009054906101000a900460ff16905092915050565b6000801b81565b610c52610fc7565b73ffffffffffffffffffffffffffffffffffffffff168273ffffffffffffffffffffffffffffffffffffffff161415610c8a57600080fd5b80600c6000610c97610fc7565b73ffffffffffffffffffffffffffffffffffffffff1673ffffffffffffffffffffffffffffffffffffffff16815260200190815260200160002060008473ffffffffffffffffffffffffffffffffffffffff1673ffffffffffffffffffffffffffffffffffffffff16815260200190815260200160002060006101000a81548160ff0219169083151502179055508173ffffffffffffffffffffffffffffffffffffffff16610d44610fc7565b73ffffffffffffffffffffffffffffffffffffffff167f17307eab39ab6107e8899845ad3d59bd9653f200f220920489ca2b5937696c3183604051610d899190612757565b60405180910390a35050565b610da6610da0610fc7565b83611394565b610daf57600080fd5b610dbb848484846117a3565b50505050565b6060610dcc82610f5b565b610dd557600080fd5b6000610ddf6117c9565b90506000815111610dff5760405180602001604052806000815250610e2a565b80610e098461185b565b604051602001610e1a9291906126de565b6040516020818303038152906040525b915050919050565b6000610e4f600f6000848152602001908152602001600020611a08565b9050919050565b7f9f2df0fed2c77648de5860a4cc508cd0818c85b8b8a1ab4ceeef8d981c8956a681565b610e83826106ac565b610e9481610e8f610fc7565b611092565b610e9e8383611210565b505050565b7f65d7a28e3265b37a6474929f336521b332c1681b933f6cb9f3376673440d862a81565b6000600c60008473ffffffffffffffffffffffffffffffffffffffff1673ffffffffffffffffffffffffffffffffffffffff16815260200190815260200160002060008373ffffffffffffffffffffffffffffffffffffffff1673ffffffffffffffffffffffffffffffffffffffff16815260200190815260200160002060009054906101000a900460ff16905092915050565b60008073ffffffffffffffffffffffffffffffffffffffff166007600084815260200190815260200160002060009054906101000a900473ffffffffffffffffffffffffffffffffffffffff1673ffffffffffffffffffffffffffffffffffffffff1614159050919050565b600033905090565b816008600083815260200190815260200160002060006101000a81548173ffffffffffffffffffffffffffffffffffffffff021916908373ffffffffffffffffffffffffffffffffffffffff1602179055508173ffffffffffffffffffffffffffffffffffffffff16611041826109a1565b73ffffffffffffffffffffffffffffffffffffffff167f8c5be1e5ebec7d5bd14f71427d1e84f3dd0314c0f7b2291e5b200ac8c7c3b92583604051611086919061290a565b60405180910390a35050565b61109c8282610bd8565b61112b576110c18173ffffffffffffffffffffffffffffffffffffffff166014611a1d565b6110cf8360001c6020611a1d565b6040516020016110e0929190612702565b6040516020818303038152906040526040517f08c379a000000000000000000000000000000000000000000000000000000000815260040161112291906127a8565b60405180910390fd5b5050565b6111398282610bd8565b61120c576001600e600084815260200190815260200160002060000160008373ffffffffffffffffffffffffffffffffffffffff1673ffffffffffffffffffffffffffffffffffffffff16815260200190815260200160002060006101000a81548160ff0219169083151502179055506111b1610fc7565b73ffffffffffffffffffffffffffffffffffffffff168173ffffffffffffffffffffffffffffffffffffffff16837f2f8788117e7eff1d82e926ec794901d17c78024a50270940304540a733656f0d60405160405180910390a45b5050565b61121a8282610bd8565b156112ee576000600e600084815260200190815260200160002060000160008373ffffffffffffffffffffffffffffffffffffffff1673ffffffffffffffffffffffffffffffffffffffff16815260200190815260200160002060006101000a81548160ff021916908315150217905550611293610fc7565b73ffffffffffffffffffffffffffffffffffffffff168173ffffffffffffffffffffffffffffffffffffffff16837ff6391f5c32d9c69d2a47ea670b442974b53935d1edc7fd64eb21e047a839171b60405160405180910390a45b5050565b6112fa61098a565b611339576040517f08c379a0000000000000000000000000000000000000000000000000000000008152600401611330906127ca565b60405180910390fd5b6000600160006101000a81548160ff0219169083151502179055507f5db9ee0a495bf2e6ff9c91a7834c1ba4fdd244a5e8aa4e537bd38aeae4b073aa61137d610fc7565b60405161138a919061273c565b60405180910390a1565b600061139f82610f5b565b6113a857600080fd5b60006113b3836109a1565b90508073ffffffffffffffffffffffffffffffffffffffff168473ffffffffffffffffffffffffffffffffffffffff16148061142257508373ffffffffffffffffffffffffffffffffffffffff1661140a84610578565b73ffffffffffffffffffffffffffffffffffffffff16145b8061143357506114328185610ec7565b5b91505092915050565b6000611447826109a1565b905061145581600084611d33565b611460600083610fcf565b6001600b60008373ffffffffffffffffffffffffffffffffffffffff1673ffffffffffffffffffffffffffffffffffffffff16815260200190815260200160002060008282546114b09190612a8e565b925050819055506007600083815260200190815260200160002060006101000a81549073ffffffffffffffffffffffffffffffffffffffff0219169055600073ffffffffffffffffffffffffffffffffffffffff168173ffffffffffffffffffffffffffffffffffffffff167fddf252ad1be2c89b69c2b068fc378daa952ba7f163c4a11628f55a4df523b3ef8460405161154b919061290a565b60405180910390a35050565b600081600001549050919050565b600073ffffffffffffffffffffffffffffffffffffffff168273ffffffffffffffffffffffffffffffffffffffff16141561159f57600080fd5b6115a881610f5b565b156115b257600080fd5b6115be60008383611d33565b6001600b60008473ffffffffffffffffffffffffffffffffffffffff1673ffffffffffffffffffffffffffffffffffffffff168152602001908152602001600020600082825461160e91906129ad565b92505081905550816007600083815260200190815260200160002060006101000a81548173ffffffffffffffffffffffffffffffffffffffff021916908373ffffffffffffffffffffffffffffffffffffffff1602179055508173ffffffffffffffffffffffffffffffffffffffff16600073ffffffffffffffffffffffffffffffffffffffff167fddf252ad1be2c89b69c2b068fc378daa952ba7f163c4a11628f55a4df523b3ef836040516116c5919061290a565b60405180910390a35050565b6001816000016000828254019250508190555050565b6116ef61098a565b1561172f576040517f08c379a00000000000000000000000000000000000000000000000000000000081526004016117269061282a565b60405180910390fd5b60018060006101000a81548160ff0219169083151502179055507f62e78cea01bee320cd4e420270b5ea74000d11b0c9f74754ebdbfc544b05a258611772610fc7565b60405161177f919061273c565b60405180910390a1565b60006117988360000183611d38565b60001c905092915050565b6117ae848484611d89565b6117ba84848484611e83565b6117c357600080fd5b50505050565b6060600480546117d890612bac565b80601f016020809104026020016040519081016040528092919081815260200182805461180490612bac565b80156118515780601f1061182657610100808354040283529160200191611851565b820191906000526020600020905b81548152906001019060200180831161183457829003601f168201915b5050505050905090565b606060008214156118a3576040518060400160405280600181526020017f30000000000000000000000000000000000000000000000000000000000000008152509050611a03565b600082905060005b600082146118d55780806118be90612bde565b915050600a826118ce9190612a03565b91506118ab565b60008167ffffffffffffffff811115611917577f4e487b7100000000000000000000000000000000000000000000000000000000600052604160045260246000fd5b6040519080825280601f01601f1916602001820160405280156119495781602001600182028036833780820191505090505b5090505b600085146119fc576001826119629190612a8e565b9150600a856119719190612c27565b603061197d91906129ad565b60f81b8183815181106119b9577f4e487b7100000000000000000000000000000000000000000000000000000000600052603260045260246000fd5b60200101907effffffffffffffffffffffffffffffffffffffffffffffffffffffffffffff1916908160001a905350600a856119f59190612a03565b945061194d565b8093505050505b919050565b6000611a1682600001611f1d565b9050919050565b606060006002836002611a309190612a34565b611a3a91906129ad565b67ffffffffffffffff811115611a79577f4e487b7100000000000000000000000000000000000000000000000000000000600052604160045260246000fd5b6040519080825280601f01601f191660200182016040528015611aab5781602001600182028036833780820191505090505b5090507f300000000000000000000000000000000000000000000000000000000000000081600081518110611b09577f4e487b7100000000000000000000000000000000000000000000000000000000600052603260045260246000fd5b60200101907effffffffffffffffffffffffffffffffffffffffffffffffffffffffffffff1916908160001a9053507f780000000000000000000000000000000000000000000000000000000000000081600181518110611b93577f4e487b7100000000000000000000000000000000000000000000000000000000600052603260045260246000fd5b60200101907effffffffffffffffffffffffffffffffffffffffffffffffffffffffffffff1916908160001a90535060006001846002611bd39190612a34565b611bdd91906129ad565b90505b6001811115611ce5576040518060400160405280601081526020017f3031323334353637383961626364656600000000000000000000000000000000815250600f861681518110611c5a577f4e487b7100000000000000000000000000000000000000000000000000000000600052603260045260246000fd5b602001015160f81c60f81b828281518110611c9e577f4e487b7100000000000000000000000000000000000000000000000000000000600052603260045260246000fd5b60200101907effffffffffffffffffffffffffffffffffffffffffffffffffffffffffffff1916908160001a905350600485901c945080611cde90612b82565b9050611be0565b5060008414611d29576040517f08c379a0000000000000000000000000000000000000000000000000000000008152600401611d209061284a565b60405180910390fd5b8091505092915050565b505050565b6000826000018281548110611d76577f4e487b7100000000000000000000000000000000000000000000000000000000600052603260045260246000fd5b9060005260206000200154905092915050565b8273ffffffffffffffffffffffffffffffffffffffff16611da9826109a1565b73ffffffffffffffffffffffffffffffffffffffff1614611dc957600080fd5b600073ffffffffffffffffffffffffffffffffffffffff168273ffffffffffffffffffffffffffffffffffffffff161415611e0357600080fd5b611e0e838383611d33565b611e19600082610fcf565b8173ffffffffffffffffffffffffffffffffffffffff168373ffffffffffffffffffffffffffffffffffffffff167fddf252ad1be2c89b69c2b068fc378daa952ba7f163c4a11628f55a4df523b3ef83604051611e76919061290a565b60405180910390a3505050565b6000611ea48473ffffffffffffffffffffffffffffffffffffffff16611f2e565b611eb15760019050611f15565b6000611ebf33878686610673565b9050600560009054906101000a900460e01b7bffffffffffffffffffffffffffffffffffffffffffffffffffffffff1916817bffffffffffffffffffffffffffffffffffffffffffffffffffffffff1916149150505b949350505050565b600081600001805490509050919050565b600080823b905060008111915050919050565b6000611f54611f4f84612956565b612925565b905082815260208101848484011115611f6c57600080fd5b611f77848285612b40565b509392505050565b600081359050611f8e81612d25565b92915050565b600081359050611fa381612d3c565b92915050565b600081359050611fb881612d53565b92915050565b600082601f830112611fcf57600080fd5b8135611fdf848260208601611f41565b91505092915050565b600081359050611ff781612d6a565b92915050565b60006020828403121561200f57600080fd5b600061201d84828501611f7f565b91505092915050565b6000806040838503121561203957600080fd5b600061204785828601611f7f565b925050602061205885828601611f7f565b9150509250929050565b6000806000806080858703121561207857600080fd5b600061208687828801611f7f565b945050602061209787828801611f7f565b93505060406120a887828801611fe8565b925050606085013567ffffffffffffffff8111156120c557600080fd5b6120d187828801611fbe565b91505092959194509250565b600080604083850312156120f057600080fd5b60006120fe85828601611f7f565b925050602061210f85828601611f94565b9150509250929050565b6000806040838503121561212c57600080fd5b600061213a85828601611f7f565b925050602061214b85828601611fe8565b9150509250929050565b60006020828403121561216757600080fd5b600061217584828501611fa9565b91505092915050565b6000806040838503121561219157600080fd5b600061219f85828601611fa9565b92505060206121b085828601611f7f565b9150509250929050565b600080604083850312156121cd57600080fd5b60006121db85828601611fa9565b92505060206121ec85828601611fe8565b9150509250929050565b60006020828403121561220857600080fd5b600061221684828501611fe8565b91505092915050565b61222881612ac2565b82525050565b61223781612ad4565b82525050565b61224681612ae0565b82525050565b61225581612aea565b82525050565b600061226682612986565b6122708185612991565b9350612280818560208601612b4f565b61228981612d14565b840191505092915050565b600061229f82612986565b6122a981856129a2565b93506122b9818560208601612b4f565b80840191505092915050565b60006122d2601483612991565b91507f5061757361626c653a206e6f74207061757365640000000000000000000000006000830152602082019050919050565b6000612312602b83612991565b91507f455243373231456e756d657261626c653a206f776e657220696e646578206f7560008301527f74206f6620626f756e64730000000000000000000000000000000000000000006020830152604082019050919050565b6000612378603e83612991565b91507f4552433732315072657365744d696e7465725061757365724175746f49643a2060008301527f6d75737420686176652070617573657220726f6c6520746f20706175736500006020830152604082019050919050565b60006123de601083612991565b91507f5061757361626c653a20706175736564000000000000000000000000000000006000830152602082019050919050565b600061241e601783612991565b91507f486578206c656e67746820696e73756666696369656e740000000000000000006000830152602082019050919050565b600061245e602c83612991565b91507f455243373231456e756d657261626c653a20676c6f62616c20696e646578206f60008301527f7574206f6620626f756e647300000000000000000000000000000000000000006020830152604082019050919050565b60006124c46017836129a2565b91507f416363657373436f6e74726f6c3a206163636f756e74200000000000000000006000830152601782019050919050565b6000612504603d83612991565b91507f4552433732315072657365744d696e7465725061757365724175746f49643a2060008301527f6d7573742068617665206d696e74657220726f6c6520746f206d696e740000006020830152604082019050919050565b600061256a603083612991565b91507f4552433732314275726e61626c653a2063616c6c6572206973206e6f74206f7760008301527f6e6572206e6f7220617070726f766564000000000000000000000000000000006020830152604082019050919050565b60006125d0604083612991565b91507f4552433732315072657365744d696e7465725061757365724175746f49643a2060008301527f6d75737420686176652070617573657220726f6c6520746f20756e70617573656020830152604082019050919050565b60006126366011836129a2565b91507f206973206d697373696e6720726f6c65200000000000000000000000000000006000830152601182019050919050565b6000612676602f83612991565b91507f416363657373436f6e74726f6c3a2063616e206f6e6c792072656e6f756e636560008301527f20726f6c657320666f722073656c6600000000000000000000000000000000006020830152604082019050919050565b6126d881612b36565b82525050565b60006126ea8285612294565b91506126f68284612294565b91508190509392505050565b600061270d826124b7565b91506127198285612294565b915061272482612629565b91506127308284612294565b91508190509392505050565b6000602082019050612751600083018461221f565b92915050565b600060208201905061276c600083018461222e565b92915050565b6000602082019050612787600083018461223d565b92915050565b60006020820190506127a2600083018461224c565b92915050565b600060208201905081810360008301526127c2818461225b565b905092915050565b600060208201905081810360008301526127e3816122c5565b9050919050565b6000602082019050818103600083015261280381612305565b9050919050565b600060208201905081810360008301526128238161236b565b9050919050565b60006020820190508181036000830152612843816123d1565b9050919050565b6000602082019050818103600083015261286381612411565b9050919050565b6000602082019050818103600083015261288381612451565b9050919050565b600060208201905081810360008301526128a3816124f7565b9050919050565b600060208201905081810360008301526128c38161255d565b9050919050565b600060208201905081810360008301526128e3816125c3565b9050919050565b6000602082019050818103600083015261290381612669565b9050919050565b600060208201905061291f60008301846126cf565b92915050565b6000604051905081810181811067ffffffffffffffff8211171561294c5761294b612ce5565b5b8060405250919050565b600067ffffffffffffffff82111561297157612970612ce5565b5b601f19601f8301169050602081019050919050565b600081519050919050565b600082825260208201905092915050565b600081905092915050565b60006129b882612b36565b91506129c383612b36565b9250827fffffffffffffffffffffffffffffffffffffffffffffffffffffffffffffffff038211156129f8576129f7612c58565b5b828201905092915050565b6000612a0e82612b36565b9150612a1983612b36565b925082612a2957612a28612c87565b5b828204905092915050565b6000612a3f82612b36565b9150612a4a83612b36565b9250817fffffffffffffffffffffffffffffffffffffffffffffffffffffffffffffffff0483118215151615612a8357612a82612c58565b5b828202905092915050565b6000612a9982612b36565b9150612aa483612b36565b925082821015612ab757612ab6612c58565b5b828203905092915050565b6000612acd82612b16565b9050919050565b60008115159050919050565b6000819050919050565b60007fffffffff0000000000000000000000000000000000000000000000000000000082169050919050565b600073ffffffffffffffffffffffffffffffffffffffff82169050919050565b6000819050919050565b82818337600083830152505050565b60005b83811015612b6d578082015181840152602081019050612b52565b83811115612b7c576000848401525b50505050565b6000612b8d82612b36565b91506000821415612ba157612ba0612c58565b5b600182039050919050565b60006002820490506001821680612bc457607f821691505b60208210811415612bd857612bd7612cb6565b5b50919050565b6000612be982612b36565b91507fffffffffffffffffffffffffffffffffffffffffffffffffffffffffffffffff821415612c1c57612c1b612c58565b5b600182019050919050565b6000612c3282612b36565b9150612c3d83612b36565b925082612c4d57612c4c612c87565b5b828206905092915050565b7f4e487b7100000000000000000000000000000000000000000000000000000000600052601160045260246000fd5b7f4e487b7100000000000000000000000000000000000000000000000000000000600052601260045260246000fd5b7f4e487b7100000000000000000000000000000000000000000000000000000000600052602260045260246000fd5b7f4e487b7100000000000000000000000000000000000000000000000000000000600052604160045260246000fd5b6000601f19601f8301169050919050565b612d2e81612ac2565b8114612d3957600080fd5b50565b612d4581612ad4565b8114612d5057600080fd5b50565b612d5c81612ae0565b8114612d6757600080fd5b50565b612d7381612b36565b8114612d7e57600080fd5b5056fea2646970667358221220df28b74e5b5c5ab426156da8acc66c2395fd3081031efec18a79a2e86364529664736f6c63430008000033",
  "immutableReferences": {},
  "source": "// SPDX-License-Identifier: UNLICENSED\npragma solidity ^0.8.0;\nlibrary Address {\n  function isContract(address account) internal view returns (bool) {\n    uint256 size;\n    assembly {\n      size := extcodesize(account)\n    }\n    return size > 0;\n  }\n  function sendValue(address payable recipient, uint256 amount) internal {\n    require(address(this).balance >= amount, 'Insufficient balance');\n    (bool success, ) = recipient.call{value:amount}('');\n    require(success, 'Unable to send value, recipient may have reverted');\n  }\n  function functionCall(address target, bytes memory data, string memory errorMessage) internal returns (bytes memory) {\n    return functionCallWithValue(target, data, 0, errorMessage);\n  }\n  function functionCallWithValue(address target, bytes memory data, uint256 value, string memory errorMessage) internal returns (bytes memory) {\n    require(address(this).balance >= value, 'Insufficient balance for call');\n    require(isContract(target), 'Call to non-contract');\n    (bool success, bytes memory returndata) = target.call{value:value}(data);\n    return verifyCallResult(success, returndata, errorMessage);\n  }\n  function functionStaticCall(address target, bytes memory data, string memory errorMessage) internal view returns (bytes memory) {\n    require(isContract(target), 'Static call to non-contract');\n    (bool success, bytes memory returndata) = target.staticcall(data);\n    return verifyCallResult(success, returndata, errorMessage);\n  }\n  function functionDelegateCall(address target, bytes memory data, string memory errorMessage) internal returns (bytes memory) {\n    require(isContract(target), 'Delegate call to non-contract');\n    (bool success, bytes memory returndata) = target.delegatecall(data);\n    return verifyCallResult(success, returndata, errorMessage);\n  }\n  function verifyCallResult(bool success, bytes memory returndata, string memory errorMessage) internal pure returns (bytes memory) {\n    if(success) {\n      return returndata;\n    } else {\n      if(returndata.length >0) {\n        assembly {\n          let returndata_size := mload(returndata)\n          revert(add(32, returndata), returndata_size)\n        }\n      } else {\n        revert(errorMessage);\n      }\n    }\n  }\n}\nlibrary Strings {\n  bytes private constant _HEX_SYMBOLS = '0123456789abcdef';\n\n  function toString(uint256 value) internal pure returns (string memory) {\n    if(value == 0) {\n      return '0';\n    }\n    uint256 temp = value;\n    uint256 digits;\n    while(temp != 0) {\n      digits++;\n      temp /= 10;\n    }\n    bytes memory buffer = new bytes(digits);\n    while(value != 0) {\n      digits -= 1;\n      buffer[digits] = bytes1(uint8(48 + uint256(value % 10)));\n      value /= 10;\n    }\n    return string(buffer);\n  }\n  function toHexString(uint256 value, uint256 length) internal pure returns (string memory) {\n    bytes memory buffer = new bytes(2 * length + 2);\n    buffer[0] = '0';\n    buffer[1] = 'x';\n    for(uint256 i = 2 * length +1; i > 1; --i) {\n      buffer[i] = _HEX_SYMBOLS[value & 0xf];\n      value >>= 4;\n    }\n    require(value == 0, 'Hex length insufficient');\n    return string(buffer);\n  }\n}\nlibrary EnumerableSet {\n    struct Set {bytes32[] _values;\n    mapping(bytes32 => uint256) _indexes;\n    }\n    function _add(Set storage set, bytes32 value) private returns (bool) {\n        if (!_contains(set, value)) {\n            set._values.push(value);\n            set._indexes[value] = set._values.length;\n            return true;\n        } else {\n            return false;\n        }\n    }\n    function _remove(Set storage set, bytes32 value) private returns (bool) {\n        uint256 valueIndex = set._indexes[value];\n        if (valueIndex != 0) {\n            uint256 toDeleteIndex = valueIndex - 1;\n            uint256 lastIndex = set._values.length - 1;\n            if (lastIndex != toDeleteIndex) {\n                bytes32 lastvalue = set._values[lastIndex];\n                set._values[toDeleteIndex] = lastvalue;\n                set._indexes[lastvalue] = valueIndex; \n            }\n            set._values.pop();\n            delete set._indexes[value];\n\n            return true;\n        } else {\n            return false;\n        }\n    }\n    function _contains(Set storage set, bytes32 value) private view returns (bool) {\n        return set._indexes[value] != 0;\n    }\n    function _length(Set storage set) private view returns (uint256) {\n        return set._values.length;\n    }\n    function _at(Set storage set, uint256 index) private view returns (bytes32) {\n        return set._values[index];\n    }\n    function _values(Set storage set) private view returns (bytes32[] memory) {\n        return set._values;\n    }\n    struct AddressSet {Set _inner;}\n\n    function add(AddressSet storage set, address value) internal returns (bool) {\n        return _add(set._inner, bytes32(uint256(uint160(value))));\n    }\n    function remove(AddressSet storage set, address value) internal returns (bool) {\n        return _remove(set._inner, bytes32(uint256(uint160(value))));\n    }\n    function contains(AddressSet storage set, address value) internal view returns (bool) {\n        return _contains(set._inner, bytes32(uint256(uint160(value))));\n    }\n    function length(AddressSet storage set) internal view returns (uint256) {\n        return _length(set._inner);\n    }\n    function at(AddressSet storage set, uint256 index) internal view returns (address) {\n        return address(uint160(uint256(_at(set._inner, index))));\n    }\n    function values(AddressSet storage set) internal view returns (address[] memory) {\n        bytes32[] memory store = _values(set._inner);\n        address[] memory result;\n        assembly {\n            result := store\n        }\n        return result;\n    }\n}\nlibrary Counters {\n    struct Counter {uint256 _value;}\n\n    function current(Counter storage counter) internal view returns (uint256) {\n        return counter._value;\n    }\n    function increment(Counter storage counter) internal {\n        unchecked {\n            counter._value += 1;\n        }\n    }\n    function decrement(Counter storage counter) internal {\n        uint256 value = counter._value;\n        require(value > 0, \"Counter: decrement overflow\");\n        unchecked {\n            counter._value = value - 1;\n        }\n    }\n    function reset(Counter storage counter) internal {\n        counter._value = 0;\n    }\n}\ncontract FF7 {\n    using Address for address;\n    using Strings for uint256;\n    using EnumerableSet for EnumerableSet.AddressSet;\n    using Counters for Counters.Counter;\n\n    uint256[] private _allTokens;\n    bool private _paused;\n    string private name = 'Final Fantasy Collecton';\n    string private symbol = 'FF7';\n    string private _baseTokenURI;\n    bytes4 private _ERC721_RECEIVED = 0x150b7a02;\n    bytes32 public constant DEFAULT_ADMIN_ROLE = 0x00;\n    bytes32 public constant MINTER_ROLE = keccak256(\"MINTER_ROLE\");\n    bytes32 public constant PAUSER_ROLE = keccak256(\"PAUSER_ROLE\");\n    Counters.Counter private _tokenIdTracker;\n    \n    mapping(uint256 => address) private _owners;\n    mapping(uint256 => address) private _tokenApprovals;\n    mapping(uint256 => uint256) private _ownedTokensIndex;\n    mapping(uint256 => uint256) private _allTokensIndex;\n    mapping(address => uint256) private _balances;\n    mapping(address => mapping(address => bool)) private _operatorApprovals;\n    mapping(address => mapping(uint256 => uint256)) private _ownedTokens;\n    mapping(bytes32 => RoleData) private _roles;\n    mapping(bytes32 => EnumerableSet.AddressSet) private _roleMembers;\n\n    event Transfer(address indexed from, address indexed to, uint256 tokenId);\n    event Approval(address indexed owner, address indexed approved, uint256 tokenId);\n    event ApprovalForAll(address indexed owner, address indexed operator, bool approved);\n    event RoleAdminChanged(bytes32 indexed role, bytes32 indexed previousAdminRole, bytes32 indexed newAdminRole);\n    event RoleGranted(bytes32 indexed role, address indexed account, address indexed sender);\n    event RoleRevoked(bytes32 indexed role, address indexed account, address indexed sender);\n    event Paused(address account);\n    event Unpaused(address account);\n\n    struct RoleData {mapping(address => bool) members; bytes32 adminRole;}\n\n    constructor () {\n        _paused = false;\n        _setupRole(DEFAULT_ADMIN_ROLE, _msgSender());\n        _setupRole(MINTER_ROLE, _msgSender());\n        _setupRole(PAUSER_ROLE, _msgSender());\n    }\n    function _msgSender() internal view returns (address) {\n        return msg.sender;\n    }\n    function _msgData() internal pure returns (bytes calldata) {\n        return msg.data;\n    }\n    function totalSupply() public view returns (uint256) {\n        return _allTokens.length;\n    }\n    function balanceOf(address owner) public view returns (uint256 balance) {\n        require(owner != address(0));\n        return _balances[owner];\n    }\n    function ownerOf(uint tokenId) public view returns (address) {\n        address owner = _owners[tokenId];\n        require(owner != address(0));\n        return owner;\n    }\n    function tokenURI(uint256 tokenId) public view returns (string memory) {\n        require(_exists(tokenId));\n        string memory baseURI = _baseURI();\n        return bytes(baseURI).length >0 ? string(abi.encodePacked(baseURI, tokenId.toString())) : '';\n    }\n    function _baseURI() internal view returns (string memory) {\n        return _baseTokenURI;\n    }\n    function _exists(uint256 tokenId) internal view returns (bool) {\n        return _owners[tokenId] != address(0);\n    }\n    function approve(address to, uint256 tokenId) public {\n        address owner = ownerOf(tokenId);\n        require(to != owner);\n        require(_msgSender() == owner || isApprovedForAll(owner, _msgSender()));\n        _approve(to, tokenId);\n    }\n    function _approve(address to, uint256 tokenId) internal {\n        _tokenApprovals[tokenId] = to;\n        emit Approval(ownerOf(tokenId), to, tokenId);\n    }\n    function getApproved(uint256 tokenId) public view returns(address) {\n        require(_exists(tokenId));\n        return _tokenApprovals[tokenId];\n    }\n    function setApprovalForAll(address operator, bool approved) public {\n        require(operator != _msgSender());\n        _operatorApprovals[_msgSender()][operator] = approved;\n        emit ApprovalForAll(_msgSender(), operator, approved);\n    }\n    function isApprovedForAll(address owner, address operator) public view returns (bool) {\n        return _operatorApprovals[owner][operator];\n    }\n    function _isApprovedOrOwner(address spender, uint256 tokenId) internal view returns (bool) {\n        require(_exists(tokenId));\n        address owner = ownerOf(tokenId);\n        return (spender == owner || getApproved(tokenId) == spender || isApprovedForAll(owner,spender));\n    }\n    function _beforeTokenTransfer(address from, address to, uint256 tokenId) internal {}\n\n    function _transfer(address from, address to, uint256 tokenId) internal {\n        require(ownerOf(tokenId) == from);\n        require(to != address(0));\n        _beforeTokenTransfer(from, to, tokenId);\n        _approve(address(0), tokenId);\n        emit Transfer(from, to, tokenId);\n    }\n    function _safeTransfer(address from, address to, uint256 tokenId, bytes memory _data) internal {\n        _transfer(from, to, tokenId);\n        require(_checkOnERC721Received(from, to, tokenId, _data));\n    }\n    function safeTransferFrom(address from, address to, uint256 tokenId, bytes memory _data) public {\n        require(_isApprovedOrOwner(_msgSender(), tokenId));\n        _safeTransfer(from, to, tokenId, _data);\n    }\n    function paused() public view returns (bool) {\n        return _paused;\n    }\n    modifier whenNotPaused() {\n        require(!paused(), \"Pausable: paused\");\n        _;\n    }\n    modifier whenPaused() {\n        require(paused(), \"Pausable: not paused\");\n        _;\n    }\n    function pause() public {\n        require(hasRole(PAUSER_ROLE, _msgSender()), \"ERC721PresetMinterPauserAutoId: must have pauser role to pause\");\n        _pause();\n    }\n    function _pause() internal whenNotPaused {\n        _paused = true;\n        emit Paused(_msgSender());\n    }\n    function unpause() public {\n        require(hasRole(PAUSER_ROLE, _msgSender()), \"ERC721PresetMinterPauserAutoId: must have pauser role to unpause\");\n        _unpause();\n    }\n    function _unpause() internal whenPaused {\n        _paused = false;\n        emit Unpaused(_msgSender());\n    }\n    function mint(address to) public {\n        require(hasRole(MINTER_ROLE, _msgSender()), \"ERC721PresetMinterPauserAutoId: must have minter role to mint\");\n        _mint(to, _tokenIdTracker.current());\n        _tokenIdTracker.increment();\n    }\n    function _mint(address to, uint256 tokenId) internal {\n        require(to != address(0));\n        require(!_exists(tokenId));\n        _beforeTokenTransfer(address(0), to, tokenId);\n        _balances[to] += 1;\n        _owners[tokenId] = to;\n        emit Transfer(address(0), to, tokenId);\n    }\n    function _safeMint(address to, uint256 tokenId, bytes memory _data) internal {\n        _mint(to,tokenId);\n        require(_checkOnERC721Received(address(0), to, tokenId, _data));\n    }\n    function burn(uint256 tokenId) public {\n        require(_isApprovedOrOwner(_msgSender(), tokenId), \"ERC721Burnable: caller is not owner nor approved\");\n        _burn(tokenId);\n    }\n    function _burn(uint256 tokenId) internal {\n        address owner = ownerOf(tokenId);\n        _beforeTokenTransfer(owner, address(0), tokenId);\n        _approve(address(0), tokenId);\n        _balances[owner] -= 1;\n        delete _owners[tokenId];\n        emit Transfer(owner, address(0), tokenId);\n    }\n    function onERC721Received(address, address, uint256, bytes memory) public pure returns (bytes4) {\n        return bytes4(keccak256(\"onERC721Received(address,address,uint256,bytes)\"));\n    }\n\n    function _checkOnERC721Received(address from, address to, uint256 tokenId, bytes memory _data) private view returns (bool) {\n        if (!to.isContract()) {\n            return true;\n        }\n        bytes4 retval = onERC721Received(msg.sender, from, tokenId, _data);\n        return (retval == _ERC721_RECEIVED);\n    }\n    modifier onlyRole(bytes32 role) {\n        _checkRole(role, _msgSender());\n        _;\n    }\n    function hasRole(bytes32 role, address account) public view returns (bool) {\n        return _roles[role].members[account];\n    }\n    function _checkRole(bytes32 role, address account) internal view {\n        if (!hasRole(role, account)) {\n            revert(\n                string(\n                    abi.encodePacked(\n                        \"AccessControl: account \",\n                        Strings.toHexString(uint160(account), 20),\n                        \" is missing role \",\n                        Strings.toHexString(uint256(role), 32)\n                    )\n                )\n            );\n        }\n    }\n    function getRoleAdmin(bytes32 role) public view returns (bytes32) {\n        return _roles[role].adminRole;\n    }\n    function getRoleMember(bytes32 role, uint256 index) public view returns (address) {\n        return _roleMembers[role].at(index);\n    }\n    function getRoleMemberCount(bytes32 role) public view returns (uint256) {\n        return _roleMembers[role].length();\n    }\n    function grantRole(bytes32 role, address account) public onlyRole(getRoleAdmin(role)) {\n        _grantRole(role, account);\n    }\n    function revokeRole(bytes32 role, address account) public onlyRole(getRoleAdmin(role)) {\n        _revokeRole(role, account);\n    }\n    function renounceRole(bytes32 role, address account) public {\n        require(account == _msgSender(), \"AccessControl: can only renounce roles for self\");\n        _revokeRole(role, account);\n    }\n    function _setupRole(bytes32 role, address account) internal {\n        _grantRole(role, account);\n    }\n    function _setRoleAdmin(bytes32 role, bytes32 adminRole) internal {\n        bytes32 previousAdminRole = getRoleAdmin(role);\n        _roles[role].adminRole = adminRole;\n        emit RoleAdminChanged(role, previousAdminRole, adminRole);\n    }\n    function _grantRole(bytes32 role, address account) private {\n        if (!hasRole(role, account)) {\n            _roles[role].members[account] = true;\n            emit RoleGranted(role, account, _msgSender());\n        }\n    }\n    function _revokeRole(bytes32 role, address account) private {\n        if (hasRole(role, account)) {\n            _roles[role].members[account] = false;\n            emit RoleRevoked(role, account, _msgSender());\n        }\n    }\n    function tokenOfOwnerByIndex(address owner, uint256 index) public view returns (uint256) {\n        require(index < balanceOf(owner), \"ERC721Enumerable: owner index out of bounds\");\n        return _ownedTokens[owner][index];\n    }\n    function tokenByIndex(uint256 index) public view returns (uint256) {\n        require(index < totalSupply(), \"ERC721Enumerable: global index out of bounds\");\n        return _allTokens[index];\n    }\n    function _addTokenToOwnerEnumeration(address to, uint256 tokenId) private {\n        uint256 length = balanceOf(to);\n        _ownedTokens[to][length] = tokenId;\n        _ownedTokensIndex[tokenId] = length;\n    }\n    function _addTokenToAllTokensEnumeration(uint256 tokenId) private {\n        _allTokensIndex[tokenId] = _allTokens.length;\n        _allTokens.push(tokenId);\n    }\n    function _removeTokenFromOwnerEnumeration(address from, uint256 tokenId) private {\n        uint256 lastTokenIndex = balanceOf(from) - 1;\n        uint256 tokenIndex = _ownedTokensIndex[tokenId];\n        if (tokenIndex != lastTokenIndex) {\n            uint256 lastTokenId = _ownedTokens[from][lastTokenIndex];\n            _ownedTokens[from][tokenIndex] = lastTokenId; \n            _ownedTokensIndex[lastTokenId] = tokenIndex;\n        }\n        delete _ownedTokensIndex[tokenId];\n        delete _ownedTokens[from][lastTokenIndex];\n    }\n    function _removeTokenFromAllTokensEnumeration(uint256 tokenId) private {\n        uint256 lastTokenIndex = _allTokens.length - 1;\n        uint256 tokenIndex = _allTokensIndex[tokenId];\n        uint256 lastTokenId = _allTokens[lastTokenIndex];\n        _allTokens[tokenIndex] = lastTokenId; \n        _allTokensIndex[lastTokenId] = tokenIndex; \n        delete _allTokensIndex[tokenId];\n        _allTokens.pop();\n    }\n}",
  "sourcePath": "/Users/damiana/Documents/Coding Projects/_MBrody22/NFT FF7/src/contracts/FF7.sol",
  "compiler": {
    "name": "solc",
    "version": "0.8.0+commit.c7dfd78e.Emscripten.clang"
  },
  "schemaVersion": "3.4.1",
  "updatedAt": "2021-08-06T08:29:07.288Z",
  "networkType": "ethereum",
  "devdoc": {
    "kind": "dev",
    "methods": {},
    "version": 1
  },
  "userdoc": {
    "kind": "user",
    "methods": {},
    "version": 1
  }
}