{
  "contractName": "FF7NFT",
  "abi": [
    {
      "inputs": [],
      "stateMutability": "nonpayable",
      "type": "constructor"
    },
    {
      "anonymous": false,
      "inputs": [
        {
          "indexed": true,
          "internalType": "address",
          "name": "owner",
          "type": "address"
        },
        {
          "indexed": true,
          "internalType": "address",
          "name": "approved",
          "type": "address"
        },
        {
          "indexed": true,
          "internalType": "uint256",
          "name": "tokenId",
          "type": "uint256"
        }
      ],
      "name": "Approval",
      "type": "event"
    },
    {
      "anonymous": false,
      "inputs": [
        {
          "indexed": true,
          "internalType": "address",
          "name": "owner",
          "type": "address"
        },
        {
          "indexed": true,
          "internalType": "address",
          "name": "operator",
          "type": "address"
        },
        {
          "indexed": false,
          "internalType": "bool",
          "name": "approved",
          "type": "bool"
        }
      ],
      "name": "ApprovalForAll",
      "type": "event"
    },
    {
      "anonymous": false,
      "inputs": [
        {
          "indexed": true,
          "internalType": "address",
          "name": "from",
          "type": "address"
        },
        {
          "indexed": true,
          "internalType": "address",
          "name": "to",
          "type": "address"
        },
        {
          "indexed": true,
          "internalType": "uint256",
          "name": "tokenId",
          "type": "uint256"
        }
      ],
      "name": "Transfer",
      "type": "event"
    },
    {
      "inputs": [],
      "name": "name",
      "outputs": [
        {
          "internalType": "string",
          "name": "",
          "type": "string"
        }
      ],
      "stateMutability": "view",
      "type": "function",
      "constant": true
    },
    {
      "inputs": [],
      "name": "symbol",
      "outputs": [
        {
          "internalType": "string",
          "name": "",
          "type": "string"
        }
      ],
      "stateMutability": "view",
      "type": "function",
      "constant": true
    },
    {
      "inputs": [
        {
          "internalType": "uint256",
          "name": "tokenId",
          "type": "uint256"
        }
      ],
      "name": "tokenURI",
      "outputs": [
        {
          "internalType": "string",
          "name": "",
          "type": "string"
        }
      ],
      "stateMutability": "view",
      "type": "function",
      "constant": true
    },
    {
      "inputs": [
        {
          "internalType": "address",
          "name": "owner",
          "type": "address"
        }
      ],
      "name": "balanceOf",
      "outputs": [
        {
          "internalType": "uint256",
          "name": "balance",
          "type": "uint256"
        }
      ],
      "stateMutability": "view",
      "type": "function",
      "constant": true
    },
    {
      "inputs": [
        {
          "internalType": "uint256",
          "name": "tokenId",
          "type": "uint256"
        }
      ],
      "name": "ownerOf",
      "outputs": [
        {
          "internalType": "address",
          "name": "owner",
          "type": "address"
        }
      ],
      "stateMutability": "view",
      "type": "function",
      "constant": true
    },
    {
      "inputs": [
        {
          "internalType": "address",
          "name": "from",
          "type": "address"
        },
        {
          "internalType": "address",
          "name": "to",
          "type": "address"
        },
        {
          "internalType": "uint256",
          "name": "tokenId",
          "type": "uint256"
        }
      ],
      "name": "transferFrom",
      "outputs": [],
      "stateMutability": "nonpayable",
      "type": "function"
    },
    {
      "inputs": [
        {
          "internalType": "address",
          "name": "to",
          "type": "address"
        },
        {
          "internalType": "uint256",
          "name": "tokenId",
          "type": "uint256"
        }
      ],
      "name": "approve",
      "outputs": [],
      "stateMutability": "nonpayable",
      "type": "function"
    },
    {
      "inputs": [
        {
          "internalType": "uint256",
          "name": "tokenId",
          "type": "uint256"
        }
      ],
      "name": "getApproved",
      "outputs": [
        {
          "internalType": "address",
          "name": "operator",
          "type": "address"
        }
      ],
      "stateMutability": "view",
      "type": "function",
      "constant": true
    },
    {
      "inputs": [
        {
          "internalType": "address",
          "name": "operator",
          "type": "address"
        },
        {
          "internalType": "bool",
          "name": "_approved",
          "type": "bool"
        }
      ],
      "name": "setApprovalForAll",
      "outputs": [],
      "stateMutability": "nonpayable",
      "type": "function"
    },
    {
      "inputs": [
        {
          "internalType": "address",
          "name": "owner",
          "type": "address"
        },
        {
          "internalType": "address",
          "name": "operator",
          "type": "address"
        }
      ],
      "name": "isApprovedForAll",
      "outputs": [
        {
          "internalType": "bool",
          "name": "",
          "type": "bool"
        }
      ],
      "stateMutability": "view",
      "type": "function",
      "constant": true
    },
    {
      "inputs": [
        {
          "internalType": "address",
          "name": "from",
          "type": "address"
        },
        {
          "internalType": "address",
          "name": "to",
          "type": "address"
        },
        {
          "internalType": "uint256",
          "name": "tokenId",
          "type": "uint256"
        }
      ],
      "name": "safeTransferFrom",
      "outputs": [],
      "stateMutability": "nonpayable",
      "type": "function"
    },
    {
      "inputs": [
        {
          "internalType": "address",
          "name": "from",
          "type": "address"
        },
        {
          "internalType": "address",
          "name": "to",
          "type": "address"
        },
        {
          "internalType": "uint256",
          "name": "tokenId",
          "type": "uint256"
        },
        {
          "internalType": "bytes",
          "name": "data",
          "type": "bytes"
        }
      ],
      "name": "safeTransferFrom",
      "outputs": [],
      "stateMutability": "nonpayable",
      "type": "function"
    },
    {
      "inputs": [
        {
          "internalType": "address",
          "name": "operator",
          "type": "address"
        },
        {
          "internalType": "address",
          "name": "from",
          "type": "address"
        },
        {
          "internalType": "uint256",
          "name": "tokenId",
          "type": "uint256"
        },
        {
          "internalType": "bytes",
          "name": "data",
          "type": "bytes"
        }
      ],
      "name": "onERC721Received",
      "outputs": [
        {
          "internalType": "bytes4",
          "name": "",
          "type": "bytes4"
        }
      ],
      "stateMutability": "nonpayable",
      "type": "function"
    },
    {
      "inputs": [],
      "name": "totalSupply",
      "outputs": [
        {
          "internalType": "uint256",
          "name": "",
          "type": "uint256"
        }
      ],
      "stateMutability": "view",
      "type": "function",
      "constant": true
    },
    {
      "inputs": [
        {
          "internalType": "address",
          "name": "owner",
          "type": "address"
        },
        {
          "internalType": "uint256",
          "name": "index",
          "type": "uint256"
        }
      ],
      "name": "tokenOfOwnerByIndex",
      "outputs": [
        {
          "internalType": "uint256",
          "name": "tokenId",
          "type": "uint256"
        }
      ],
      "stateMutability": "view",
      "type": "function",
      "constant": true
    },
    {
      "inputs": [
        {
          "internalType": "uint256",
          "name": "index",
          "type": "uint256"
        }
      ],
      "name": "tokenByIndex",
      "outputs": [
        {
          "internalType": "uint256",
          "name": "",
          "type": "uint256"
        }
      ],
      "stateMutability": "view",
      "type": "function",
      "constant": true
    },
    {
      "inputs": [
        {
          "internalType": "bytes4",
          "name": "interfaceId",
          "type": "bytes4"
        }
      ],
      "name": "supportsInterface",
      "outputs": [
        {
          "internalType": "bool",
          "name": "",
          "type": "bool"
        }
      ],
      "stateMutability": "view",
      "type": "function",
      "constant": true
    }
  ],
  "bytecode": "0x60806040526040518060400160405280600f81526020017f46696e616c2046616e74617379203700000000000000000000000000000000008152506009908051906020019062000051929190620000b4565b506040518060400160405280600681526020017f4646374e46540000000000000000000000000000000000000000000000000000815250600a90805190602001906200009f929190620000b4565b50348015620000ad57600080fd5b50620001c9565b828054620000c29062000164565b90600052602060002090601f016020900481019282620000e6576000855562000132565b82601f106200010157805160ff191683800117855562000132565b8280016001018555821562000132579182015b828111156200013157825182559160200191906001019062000114565b5b50905062000141919062000145565b5090565b5b808211156200016057600081600090555060010162000146565b5090565b600060028204905060018216806200017d57607f821691505b602082108114156200019457620001936200019a565b5b50919050565b7f4e487b7100000000000000000000000000000000000000000000000000000000600052602260045260246000fd5b610baa80620001d96000396000f3fe608060405234801561001057600080fd5b506004361061010b5760003560e01c806342842e0e116100a257806395d89b411161007157806395d89b41146102f0578063a22cb4651461030e578063b88d4fde1461032a578063c87b56dd14610346578063e985e9c5146103765761010b565b806342842e0e146102445780634f6ccce7146102605780636352211e1461029057806370a08231146102c05761010b565b8063150b7a02116100de578063150b7a02146101aa57806318160ddd146101da57806323b872dd146101f85780632f745c59146102145761010b565b806301ffc9a71461011057806306fdde0314610140578063081812fc1461015e578063095ea7b31461018e575b600080fd5b61012a600480360381019061012591906107ef565b6103a6565b60405161013791906108d1565b60405180910390f35b61014861040e565b6040516101559190610907565b60405180910390f35b61017860048036038101906101739190610818565b6104a0565b60405161018591906108b6565b60405180910390f35b6101a860048036038101906101a391906107b3565b6104a7565b005b6101c460048036038101906101bf91906106fc565b6104ab565b6040516101d191906108ec565b60405180910390f35b6101e26104b5565b6040516101ef9190610929565b60405180910390f35b610212600480360381019061020d91906106ad565b6104ba565b005b61022e600480360381019061022991906107b3565b6104bf565b60405161023b9190610929565b60405180910390f35b61025e600480360381019061025991906106ad565b6104c7565b005b61027a60048036038101906102759190610818565b6104cc565b6040516102879190610929565b60405180910390f35b6102aa60048036038101906102a59190610818565b6104d3565b6040516102b791906108b6565b60405180910390f35b6102da60048036038101906102d59190610648565b6104da565b6040516102e79190610929565b60405180910390f35b6102f86104e1565b6040516103059190610907565b60405180910390f35b61032860048036038101906103239190610777565b610573565b005b610344600480360381019061033f91906106fc565b610577565b005b610360600480360381019061035b9190610818565b61057d565b60405161036d9190610907565b60405180910390f35b610390600480360381019061038b9190610671565b610584565b60405161039d91906108d1565b60405180910390f35b600060086000837bffffffffffffffffffffffffffffffffffffffffffffffffffffffff19167bffffffffffffffffffffffffffffffffffffffffffffffffffffffff1916815260200190815260200160002060009054906101000a900460ff169050919050565b60606009805461041d90610a77565b80601f016020809104026020016040519081016040528092919081815260200182805461044990610a77565b80156104965780601f1061046b57610100808354040283529160200191610496565b820191906000526020600020905b81548152906001019060200180831161047957829003601f168201915b5050505050905090565b6000919050565b5050565b6000949350505050565b600090565b505050565b600092915050565b505050565b6000919050565b6000919050565b6000919050565b6060600a80546104f090610a77565b80601f016020809104026020016040519081016040528092919081815260200182805461051c90610a77565b80156105695780601f1061053e57610100808354040283529160200191610569565b820191906000526020600020905b81548152906001019060200180831161054c57829003601f168201915b5050505050905090565b5050565b50505050565b6060919050565b600092915050565b600061059f61059a84610975565b610944565b9050828152602081018484840111156105b757600080fd5b6105c2848285610a35565b509392505050565b6000813590506105d981610b18565b92915050565b6000813590506105ee81610b2f565b92915050565b60008135905061060381610b46565b92915050565b600082601f83011261061a57600080fd5b813561062a84826020860161058c565b91505092915050565b60008135905061064281610b5d565b92915050565b60006020828403121561065a57600080fd5b6000610668848285016105ca565b91505092915050565b6000806040838503121561068457600080fd5b6000610692858286016105ca565b92505060206106a3858286016105ca565b9150509250929050565b6000806000606084860312156106c257600080fd5b60006106d0868287016105ca565b93505060206106e1868287016105ca565b92505060406106f286828701610633565b9150509250925092565b6000806000806080858703121561071257600080fd5b6000610720878288016105ca565b9450506020610731878288016105ca565b935050604061074287828801610633565b925050606085013567ffffffffffffffff81111561075f57600080fd5b61076b87828801610609565b91505092959194509250565b6000806040838503121561078a57600080fd5b6000610798858286016105ca565b92505060206107a9858286016105df565b9150509250929050565b600080604083850312156107c657600080fd5b60006107d4858286016105ca565b92505060206107e585828601610633565b9150509250929050565b60006020828403121561080157600080fd5b600061080f848285016105f4565b91505092915050565b60006020828403121561082a57600080fd5b600061083884828501610633565b91505092915050565b61084a816109c1565b82525050565b610859816109d3565b82525050565b610868816109df565b82525050565b6000610879826109a5565b61088381856109b0565b9350610893818560208601610a44565b61089c81610b07565b840191505092915050565b6108b081610a2b565b82525050565b60006020820190506108cb6000830184610841565b92915050565b60006020820190506108e66000830184610850565b92915050565b6000602082019050610901600083018461085f565b92915050565b60006020820190508181036000830152610921818461086e565b905092915050565b600060208201905061093e60008301846108a7565b92915050565b6000604051905081810181811067ffffffffffffffff8211171561096b5761096a610ad8565b5b8060405250919050565b600067ffffffffffffffff8211156109905761098f610ad8565b5b601f19601f8301169050602081019050919050565b600081519050919050565b600082825260208201905092915050565b60006109cc82610a0b565b9050919050565b60008115159050919050565b60007fffffffff0000000000000000000000000000000000000000000000000000000082169050919050565b600073ffffffffffffffffffffffffffffffffffffffff82169050919050565b6000819050919050565b82818337600083830152505050565b60005b83811015610a62578082015181840152602081019050610a47565b83811115610a71576000848401525b50505050565b60006002820490506001821680610a8f57607f821691505b60208210811415610aa357610aa2610aa9565b5b50919050565b7f4e487b7100000000000000000000000000000000000000000000000000000000600052602260045260246000fd5b7f4e487b7100000000000000000000000000000000000000000000000000000000600052604160045260246000fd5b6000601f19601f8301169050919050565b610b21816109c1565b8114610b2c57600080fd5b50565b610b38816109d3565b8114610b4357600080fd5b50565b610b4f816109df565b8114610b5a57600080fd5b50565b610b6681610a2b565b8114610b7157600080fd5b5056fea26469706673582212200fc769964166164853d3541ebe74f5d1b363ee91876e03f833888aa6a209c61664736f6c63430008000033",
  "immutableReferences": {},
  "source": "// SPDX-License-Identifier: UNLICENSED\npragma solidity ^0.8.0;\nlibrary SafeMath {\n    function add(uint256 a, uint256 b) internal pure returns (uint256) {\n        uint256 c = a + b;\n        require(c >= a, \"SafeMath: addition overflow\");\n        return c;\n    }\n    function sub(uint256 a, uint256 b) internal pure returns (uint256) {\n        require(b <= a, \"SafeMath: subtraction overflow\"); \n        uint256 c = a - b;\n        return c;\n    }\n    function mul(uint256 a, uint256 b) internal pure returns (uint256) {\n        if (a == 0) {\n            return 0;\n        }\n        uint256 c = a * b;\n        require(c / a == b, \"SafeMath: multiplication overflow\");\n        return c;\n    }\n    function div(uint256 a, uint256 b) internal pure returns (uint256) {\n        require(b > 0, \"SafeMath: division by zero\");\n        uint256 c = a / b;\n        return c;\n    }\n    function mod(uint256 a, uint256 b) internal pure returns (uint256) {\n        require(b != 0, \"SafeMath: modulo by zero\");\n        return a % b;\n    }\n}\nlibrary Address {\n    function isContract(address account) internal view returns (bool) {\n        uint256 size;\n        assembly { size := extcodesize(account) }\n        return size > 0;\n    }\n}\nlibrary Counters {\n    using SafeMath for uint256;\n    struct Counter {\n        uint256 _value; \n    }\n    function current(Counter storage counter) internal view returns (uint256) {\n        return counter._value;\n    }\n    function increment(Counter storage counter) internal {\n        counter._value += 1;\n    }\n    function decrement(Counter storage counter) internal {\n        counter._value = counter._value.sub(1);\n    }\n}\n\ncontract FF7NFT {\n\tusing SafeMath for uint256;\n    using Address for address;\n    using Counters for Counters.Counter;\n\n\tevent Transfer(address indexed from, address indexed to, uint256 indexed tokenId);\n    event Approval(address indexed owner, address indexed approved, uint256 indexed tokenId);\n    event ApprovalForAll(address indexed owner, address indexed operator, bool approved);\n\n    mapping(address => Counters.Counter) private _ownedTokensCount;\n    mapping(address => mapping (address => bool)) private _operatorApprovals;\n    mapping(address => uint256[]) private _ownedTokens;\n    mapping(uint256 => address) private _tokenOwner;\n    mapping(uint256 => address) private _tokenApprovals;\n    mapping(uint256 => uint256) private _ownedTokensIndex;\n    mapping(uint256 => uint256) private _allTokensIndex;\n    mapping(uint256 => string) private _tokenURIs;\n    mapping(bytes4 => bool) private _supportedInterfaces;\n\n    string private _name = 'Final Fantasy 7';\n    string private _symbol = 'FF7NFT';\n    uint256[] private _allTokens;\n\n\tconstructor () {}\n\tfunction name() external view returns (string memory) {return _name;}\n    function symbol() external view returns (string memory) {return _symbol;}\n    function tokenURI(uint256 tokenId) external view returns (string memory) {}\n\tfunction balanceOf(address owner) public view returns (uint256 balance) {}\n    function ownerOf(uint256 tokenId) public view returns (address owner) {}\n    function safeTransferFrom(address from, address to, uint256 tokenId) public {}\n    function transferFrom(address from, address to, uint256 tokenId) public {}\n    function approve(address to, uint256 tokenId) public {}\n    function getApproved(uint256 tokenId) public view returns (address operator) {}\n    function setApprovalForAll(address operator, bool _approved) public {}\n    function isApprovedForAll(address owner, address operator) public view returns (bool) {}\n    function safeTransferFrom(address from, address to, uint256 tokenId, bytes memory data) public {}\n    function onERC721Received(address operator, address from, uint256 tokenId, bytes memory data) public returns (bytes4) {}\n    function totalSupply() public view returns (uint256) {}\n    function tokenOfOwnerByIndex(address owner, uint256 index) public view returns (uint256 tokenId) {}\n    function tokenByIndex(uint256 index) public view returns (uint256) {}\n\n    function supportsInterface(bytes4 interfaceId) external view returns (bool) {return _supportedInterfaces[interfaceId];}\n    function _registerInterface(bytes4 interfaceId) internal {require(interfaceId != 0xffffffff, \"ERC165: invalid interface id\");_supportedInterfaces[interfaceId] = true;}\n}",
  "sourcePath": "/Users/damiana/Documents/Coding Projects/_MBrody22/NFT FF7/src/contracts/FF7NFT.sol",
  "compiler": {
    "name": "solc",
    "version": "0.8.0+commit.c7dfd78e.Emscripten.clang"
  },
  "schemaVersion": "3.4.1",
  "updatedAt": "2021-08-02T04:54:15.897Z",
  "networkType": "ethereum",
  "devdoc": {
    "kind": "dev",
    "methods": {},
    "version": 1
  },
  "userdoc": {
    "kind": "user",
    "methods": {},
    "version": 1
  }
}