{
  "contractName": "MyDocs",
  "abi": [
    {
      "inputs": [
        {
          "internalType": "contract MyDocs",
          "name": "",
          "type": "address"
        }
      ],
      "stateMutability": "payable",
      "type": "constructor"
    },
    {
      "anonymous": false,
      "inputs": [
        {
          "indexed": false,
          "internalType": "uint256",
          "name": "id",
          "type": "uint256"
        },
        {
          "indexed": false,
          "internalType": "string",
          "name": "docsHash",
          "type": "string"
        },
        {
          "indexed": false,
          "internalType": "uint256",
          "name": "docsSize",
          "type": "uint256"
        },
        {
          "indexed": false,
          "internalType": "string",
          "name": "docsType",
          "type": "string"
        },
        {
          "indexed": false,
          "internalType": "string",
          "name": "docsName",
          "type": "string"
        },
        {
          "indexed": false,
          "internalType": "string",
          "name": "Description",
          "type": "string"
        },
        {
          "indexed": false,
          "internalType": "uint256",
          "name": "Time",
          "type": "uint256"
        }
      ],
      "name": "DocsUpload",
      "type": "event"
    },
    {
      "inputs": [],
      "name": "amount",
      "outputs": [
        {
          "internalType": "uint256",
          "name": "",
          "type": "uint256"
        }
      ],
      "stateMutability": "view",
      "type": "function"
    },
    {
      "inputs": [
        {
          "internalType": "uint256",
          "name": "",
          "type": "uint256"
        }
      ],
      "name": "docs",
      "outputs": [
        {
          "internalType": "uint256",
          "name": "id",
          "type": "uint256"
        },
        {
          "internalType": "string",
          "name": "docsHash",
          "type": "string"
        },
        {
          "internalType": "uint256",
          "name": "docsSize",
          "type": "uint256"
        },
        {
          "internalType": "string",
          "name": "docsType",
          "type": "string"
        },
        {
          "internalType": "string",
          "name": "docsName",
          "type": "string"
        },
        {
          "internalType": "string",
          "name": "Description",
          "type": "string"
        },
        {
          "internalType": "uint256",
          "name": "Time",
          "type": "uint256"
        }
      ],
      "stateMutability": "view",
      "type": "function"
    },
    {
      "inputs": [],
      "name": "name",
      "outputs": [
        {
          "internalType": "string",
          "name": "",
          "type": "string"
        }
      ],
      "stateMutability": "view",
      "type": "function"
    },
    {
      "inputs": [
        {
          "internalType": "string",
          "name": "_docsHash",
          "type": "string"
        },
        {
          "internalType": "uint256",
          "name": "_docsSize",
          "type": "uint256"
        },
        {
          "internalType": "string",
          "name": "_docsType",
          "type": "string"
        },
        {
          "internalType": "string",
          "name": "_docsName",
          "type": "string"
        },
        {
          "internalType": "string",
          "name": "_description",
          "type": "string"
        }
      ],
      "name": "docsUpload",
      "outputs": [],
      "stateMutability": "payable",
      "type": "function"
    }
  ],
  "bytecode": "0x60806040526040518060400160405280600681526020017f4d79446f63730000000000000000000000000000000000000000000000000000815250600090805190602001906200005192919062000083565b50600060015560405162000d5d38038062000d5d83398181016040528101906200007c91906200014a565b506200023d565b8280546200009190620001be565b90600052602060002090601f016020900481019282620000b5576000855562000101565b82601f10620000d057805160ff191683800117855562000101565b8280016001018555821562000101579182015b8281111562000100578251825591602001919060010190620000e3565b5b50905062000110919062000114565b5090565b5b808211156200012f57600081600090555060010162000115565b5090565b600081519050620001448162000223565b92915050565b6000602082840312156200015d57600080fd5b60006200016d8482850162000133565b91505092915050565b600062000183826200019e565b9050919050565b6000620001978262000176565b9050919050565b600073ffffffffffffffffffffffffffffffffffffffff82169050919050565b60006002820490506001821680620001d757607f821691505b60208210811415620001ee57620001ed620001f4565b5b50919050565b7f4e487b7100000000000000000000000000000000000000000000000000000000600052602260045260246000fd5b6200022e816200018a565b81146200023a57600080fd5b50565b610b10806200024d6000396000f3fe60806040526004361061003f5760003560e01c806306fdde031461004457806323389c5a1461006f578063aa8c217c146100b2578063e8443b44146100dd575b600080fd5b34801561005057600080fd5b506100596100f9565b6040516100669190610819565b60405180910390f35b34801561007b57600080fd5b50610096600480360381019061009191906107a8565b610187565b6040516100a99796959493929190610856565b60405180910390f35b3480156100be57600080fd5b506100c76103e9565b6040516100d4919061083b565b60405180910390f35b6100f760048036038101906100f291906106d1565b6103ef565b005b60008054610106906109aa565b80601f0160208091040260200160405190810160405280929190818152602001828054610132906109aa565b801561017f5780601f106101545761010080835404028352916020019161017f565b820191906000526020600020905b81548152906001019060200180831161016257829003601f168201915b505050505081565b60026020528060005260406000206000915090508060000154908060010180546101b0906109aa565b80601f01602080910402602001604051908101604052809291908181526020018280546101dc906109aa565b80156102295780601f106101fe57610100808354040283529160200191610229565b820191906000526020600020905b81548152906001019060200180831161020c57829003601f168201915b505050505090806002015490806003018054610244906109aa565b80601f0160208091040260200160405190810160405280929190818152602001828054610270906109aa565b80156102bd5780601f10610292576101008083540402835291602001916102bd565b820191906000526020600020905b8154815290600101906020018083116102a057829003601f168201915b5050505050908060040180546102d2906109aa565b80601f01602080910402602001604051908101604052809291908181526020018280546102fe906109aa565b801561034b5780601f106103205761010080835404028352916020019161034b565b820191906000526020600020905b81548152906001019060200180831161032e57829003601f168201915b505050505090806005018054610360906109aa565b80601f016020809104026020016040519081016040528092919081815260200182805461038c906109aa565b80156103d95780601f106103ae576101008083540402835291602001916103d9565b820191906000526020600020905b8154815290600101906020018083116103bc57829003601f168201915b5050505050908060060154905087565b60015481565b60008551116103fd57600080fd5b600083511161040b57600080fd5b600081511161041957600080fd5b600082511161042757600080fd5b600073ffffffffffffffffffffffffffffffffffffffff163373ffffffffffffffffffffffffffffffffffffffff16141561046157600080fd5b6000841161046e57600080fd5b60016000815480929190610481906109dc565b91905055506040518060e001604052806001548152602001868152602001858152602001848152602001838152602001828152602001428152506002600060015481526020019081526020016000206000820151816000015560208201518160010190805190602001906104f69291906105b1565b5060408201518160020155606082015181600301908051906020019061051d9291906105b1565b50608082015181600401908051906020019061053a9291906105b1565b5060a08201518160050190805190602001906105579291906105b1565b5060c082015181600601559050507f5f7492d26ef3a741de964889b748b78b8a90da17547e00da0bcaf2c0fb37930f6001548686868686426040516105a29796959493929190610856565b60405180910390a15050505050565b8280546105bd906109aa565b90600052602060002090601f0160209004810192826105df5760008555610626565b82601f106105f857805160ff1916838001178555610626565b82800160010185558215610626579182015b8281111561062557825182559160200191906001019061060a565b5b5090506106339190610637565b5090565b5b80821115610650576000816000905550600101610638565b5090565b600061066761066284610912565b6108e1565b90508281526020810184848401111561067f57600080fd5b61068a848285610968565b509392505050565b600082601f8301126106a357600080fd5b81356106b3848260208601610654565b91505092915050565b6000813590506106cb81610ac3565b92915050565b600080600080600060a086880312156106e957600080fd5b600086013567ffffffffffffffff81111561070357600080fd5b61070f88828901610692565b9550506020610720888289016106bc565b945050604086013567ffffffffffffffff81111561073d57600080fd5b61074988828901610692565b935050606086013567ffffffffffffffff81111561076657600080fd5b61077288828901610692565b925050608086013567ffffffffffffffff81111561078f57600080fd5b61079b88828901610692565b9150509295509295909350565b6000602082840312156107ba57600080fd5b60006107c8848285016106bc565b91505092915050565b60006107dc82610942565b6107e6818561094d565b93506107f6818560208601610977565b6107ff81610ab2565b840191505092915050565b6108138161095e565b82525050565b6000602082019050818103600083015261083381846107d1565b905092915050565b6000602082019050610850600083018461080a565b92915050565b600060e08201905061086b600083018a61080a565b818103602083015261087d81896107d1565b905061088c604083018861080a565b818103606083015261089e81876107d1565b905081810360808301526108b281866107d1565b905081810360a08301526108c681856107d1565b90506108d560c083018461080a565b98975050505050505050565b6000604051905081810181811067ffffffffffffffff8211171561090857610907610a83565b5b8060405250919050565b600067ffffffffffffffff82111561092d5761092c610a83565b5b601f19601f8301169050602081019050919050565b600081519050919050565b600082825260208201905092915050565b6000819050919050565b82818337600083830152505050565b60005b8381101561099557808201518184015260208101905061097a565b838111156109a4576000848401525b50505050565b600060028204905060018216806109c257607f821691505b602082108114156109d6576109d5610a54565b5b50919050565b60006109e78261095e565b91507fffffffffffffffffffffffffffffffffffffffffffffffffffffffffffffffff821415610a1a57610a19610a25565b5b600182019050919050565b7f4e487b7100000000000000000000000000000000000000000000000000000000600052601160045260246000fd5b7f4e487b7100000000000000000000000000000000000000000000000000000000600052602260045260246000fd5b7f4e487b7100000000000000000000000000000000000000000000000000000000600052604160045260246000fd5b6000601f19601f8301169050919050565b610acc8161095e565b8114610ad757600080fd5b5056fea264697066735822122041ac4a403094bb439b3dc65d7dfaa9d5d46b6dc56e4b1c6a9b54e1b7f7922c9964736f6c63430008000033",
  "immutableReferences": {},
  "source": "//SPDX-License-Identifier: UNLICENSED\npragma solidity ^0.8.0;\n\ncontract MyDocs {\n\tstring public name = 'MyDocs';\n\tuint public amount = 0;\n\tmapping(uint => Docs) public docs;\n\n\tstruct Docs {\n\t\tuint id;\n\t\tstring docsHash;\n\t\tuint docsSize;\n\t\tstring docsType;\n\t\tstring docsName;\n\t\tstring Description;\n\t\tuint Time;\n\t}\n\n\tevent DocsUpload(\n\t\tuint id,\n\t\tstring docsHash,\n\t\tuint docsSize,\n\t\tstring docsType,\n\t\tstring docsName,\n\t\tstring Description,\n\t\tuint Time\n\t);\n\n\tconstructor(MyDocs) payable {\n\t}\n\n\tfunction docsUpload(\n\t\tstring memory _docsHash, \n\t\tuint _docsSize, \n\t\tstring memory _docsType, \n\t\tstring memory _docsName,\n\t\tstring memory _description\n\t\t) public payable {\n\n\t\trequire(bytes(_docsHash).length > 0);\n\t\trequire(bytes(_docsType).length > 0);\n\t\trequire(bytes(_description).length > 0);\n\t\trequire(bytes(_docsName).length > 0);\n\t\trequire(msg.sender != address(0));\n\t\trequire(_docsSize > 0);\n\t\tamount ++;\n\t\tdocs[amount] = Docs(amount, _docsHash, _docsSize, _docsType, _docsName, _description, block.timestamp);\n\t\temit DocsUpload(amount, _docsHash, _docsSize, _docsType, _docsName, _description, block.timestamp);\n\t}\n}",
  "sourcePath": "/Users/damiana/Documents/Coding Projects/2MBrody22/MyFiles/contracts/MyDocs.sol",
  "compiler": {
    "name": "solc",
    "version": "0.8.0+commit.c7dfd78e.Emscripten.clang"
  },
  "schemaVersion": "3.4.1",
  "updatedAt": "2021-07-26T21:42:21.641Z",
  "devdoc": {
    "kind": "dev",
    "methods": {},
    "version": 1
  },
  "userdoc": {
    "kind": "user",
    "methods": {},
    "version": 1
  }
}