{
  "contractName": "CDIminter",
  "abi": [
    {
      "inputs": [],
      "stateMutability": "payable",
      "type": "constructor"
    },
    {
      "anonymous": false,
      "inputs": [
        {
          "indexed": true,
          "internalType": "address",
          "name": "sender",
          "type": "address"
        },
        {
          "indexed": true,
          "internalType": "address",
          "name": "recipient",
          "type": "address"
        },
        {
          "indexed": false,
          "internalType": "uint256",
          "name": "amount",
          "type": "uint256"
        }
      ],
      "name": "Approval",
      "type": "event"
    },
    {
      "anonymous": false,
      "inputs": [
        {
          "indexed": true,
          "internalType": "address",
          "name": "from",
          "type": "address"
        },
        {
          "indexed": false,
          "internalType": "address",
          "name": "to",
          "type": "address"
        }
      ],
      "name": "NewMiner",
      "type": "event"
    },
    {
      "anonymous": false,
      "inputs": [
        {
          "indexed": true,
          "internalType": "address",
          "name": "from",
          "type": "address"
        },
        {
          "indexed": true,
          "internalType": "address",
          "name": "to",
          "type": "address"
        },
        {
          "indexed": false,
          "internalType": "uint256",
          "name": "amount",
          "type": "uint256"
        }
      ],
      "name": "Transfer",
      "type": "event"
    },
    {
      "inputs": [
        {
          "internalType": "address",
          "name": "owner",
          "type": "address"
        },
        {
          "internalType": "address",
          "name": "spender",
          "type": "address"
        }
      ],
      "name": "allowance",
      "outputs": [
        {
          "internalType": "uint256",
          "name": "",
          "type": "uint256"
        }
      ],
      "stateMutability": "view",
      "type": "function"
    },
    {
      "inputs": [
        {
          "internalType": "address",
          "name": "spender",
          "type": "address"
        },
        {
          "internalType": "uint256",
          "name": "amount",
          "type": "uint256"
        }
      ],
      "name": "approve",
      "outputs": [
        {
          "internalType": "bool",
          "name": "",
          "type": "bool"
        }
      ],
      "stateMutability": "nonpayable",
      "type": "function"
    },
    {
      "inputs": [
        {
          "internalType": "address",
          "name": "account",
          "type": "address"
        }
      ],
      "name": "balanceOf",
      "outputs": [
        {
          "internalType": "uint256",
          "name": "",
          "type": "uint256"
        }
      ],
      "stateMutability": "view",
      "type": "function"
    },
    {
      "inputs": [],
      "name": "decimals",
      "outputs": [
        {
          "internalType": "uint8",
          "name": "",
          "type": "uint8"
        }
      ],
      "stateMutability": "view",
      "type": "function"
    },
    {
      "inputs": [
        {
          "internalType": "address",
          "name": "spender",
          "type": "address"
        },
        {
          "internalType": "uint256",
          "name": "subtractedValue",
          "type": "uint256"
        }
      ],
      "name": "decreaseAllowance",
      "outputs": [
        {
          "internalType": "bool",
          "name": "",
          "type": "bool"
        }
      ],
      "stateMutability": "nonpayable",
      "type": "function"
    },
    {
      "inputs": [
        {
          "internalType": "address",
          "name": "spender",
          "type": "address"
        },
        {
          "internalType": "uint256",
          "name": "addedValue",
          "type": "uint256"
        }
      ],
      "name": "increaseAllowance",
      "outputs": [
        {
          "internalType": "bool",
          "name": "",
          "type": "bool"
        }
      ],
      "stateMutability": "nonpayable",
      "type": "function"
    },
    {
      "inputs": [],
      "name": "minter",
      "outputs": [
        {
          "internalType": "address",
          "name": "",
          "type": "address"
        }
      ],
      "stateMutability": "view",
      "type": "function"
    },
    {
      "inputs": [],
      "name": "name",
      "outputs": [
        {
          "internalType": "string",
          "name": "",
          "type": "string"
        }
      ],
      "stateMutability": "view",
      "type": "function"
    },
    {
      "inputs": [],
      "name": "symbol",
      "outputs": [
        {
          "internalType": "string",
          "name": "",
          "type": "string"
        }
      ],
      "stateMutability": "view",
      "type": "function"
    },
    {
      "inputs": [],
      "name": "totalSupply",
      "outputs": [
        {
          "internalType": "uint256",
          "name": "",
          "type": "uint256"
        }
      ],
      "stateMutability": "view",
      "type": "function"
    },
    {
      "inputs": [
        {
          "internalType": "address",
          "name": "recipient",
          "type": "address"
        },
        {
          "internalType": "uint256",
          "name": "amount",
          "type": "uint256"
        }
      ],
      "name": "transfer",
      "outputs": [
        {
          "internalType": "bool",
          "name": "",
          "type": "bool"
        }
      ],
      "stateMutability": "nonpayable",
      "type": "function"
    },
    {
      "inputs": [
        {
          "internalType": "address",
          "name": "sender",
          "type": "address"
        },
        {
          "internalType": "address",
          "name": "recipient",
          "type": "address"
        },
        {
          "internalType": "uint256",
          "name": "amount",
          "type": "uint256"
        }
      ],
      "name": "transferFrom",
      "outputs": [
        {
          "internalType": "bool",
          "name": "",
          "type": "bool"
        }
      ],
      "stateMutability": "nonpayable",
      "type": "function"
    },
    {
      "inputs": [
        {
          "internalType": "address",
          "name": "CDIbank",
          "type": "address"
        }
      ],
      "name": "newMiner",
      "outputs": [
        {
          "internalType": "bool",
          "name": "",
          "type": "bool"
        }
      ],
      "stateMutability": "nonpayable",
      "type": "function"
    },
    {
      "inputs": [
        {
          "internalType": "address",
          "name": "account",
          "type": "address"
        },
        {
          "internalType": "uint256",
          "name": "amount",
          "type": "uint256"
        }
      ],
      "name": "mint",
      "outputs": [],
      "stateMutability": "nonpayable",
      "type": "function"
    }
  ],
  "bytecode": "0x60806040526040518060400160405280600781526020017f43444962616e6b000000000000000000000000000000000000000000000000008152506040518060400160405280600481526020017f62616e6b00000000000000000000000000000000000000000000000000000000815250816003908051906020019062000088929190620000eb565b508060049080519060200190620000a1929190620000eb565b50505033600560006101000a81548173ffffffffffffffffffffffffffffffffffffffff021916908373ffffffffffffffffffffffffffffffffffffffff16021790555062000200565b828054620000f9906200019b565b90600052602060002090601f0160209004810192826200011d576000855562000169565b82601f106200013857805160ff191683800117855562000169565b8280016001018555821562000169579182015b82811115620001685782518255916020019190600101906200014b565b5b5090506200017891906200017c565b5090565b5b80821115620001975760008160009055506001016200017d565b5090565b60006002820490506001821680620001b457607f821691505b60208210811415620001cb57620001ca620001d1565b5b50919050565b7f4e487b7100000000000000000000000000000000000000000000000000000000600052602260045260246000fd5b61175480620002106000396000f3fe608060405234801561001057600080fd5b50600436106100ea5760003560e01c806340c10f191161008c578063a457c2d711610066578063a457c2d714610261578063a9059cbb14610291578063d6fa52b0146102c1578063dd62ed3e146102f1576100ea565b806340c10f19146101f757806370a082311461021357806395d89b4114610243576100ea565b806318160ddd116100c857806318160ddd1461015b57806323b872dd14610179578063313ce567146101a957806339509351146101c7576100ea565b806306fdde03146100ef578063075461721461010d578063095ea7b31461012b575b600080fd5b6100f7610321565b60405161010491906113bd565b60405180910390f35b6101156103b3565b6040516101229190611387565b60405180910390f35b61014560048036038101906101409190611030565b6103d9565b60405161015291906113a2565b60405180910390f35b6101636103f0565b604051610170919061151f565b60405180910390f35b610193600480360381019061018e9190610fe1565b6103fa565b6040516101a091906113a2565b60405180910390f35b6101b16104e4565b6040516101be919061153a565b60405180910390f35b6101e160048036038101906101dc9190611030565b6104ed565b6040516101ee91906113a2565b60405180910390f35b610211600480360381019061020c9190611030565b61058b565b005b61022d60048036038101906102289190610f7c565b610629565b60405161023a919061151f565b60405180910390f35b61024b610671565b60405161025891906113bd565b60405180910390f35b61027b60048036038101906102769190611030565b610703565b60405161028891906113a2565b60405180910390f35b6102ab60048036038101906102a69190611030565b6107e0565b6040516102b891906113a2565b60405180910390f35b6102db60048036038101906102d69190610f7c565b6107f7565b6040516102e891906113a2565b60405180910390f35b61030b60048036038101906103069190610fa5565b610921565b604051610318919061151f565b60405180910390f35b6060600380546103309061164f565b80601f016020809104026020016040519081016040528092919081815260200182805461035c9061164f565b80156103a95780601f1061037e576101008083540402835291602001916103a9565b820191906000526020600020905b81548152906001019060200180831161038c57829003601f168201915b5050505050905090565b600560009054906101000a900473ffffffffffffffffffffffffffffffffffffffff1681565b60006103e63384846109a8565b6001905092915050565b6000600254905090565b6000610407848484610b73565b6000600160008673ffffffffffffffffffffffffffffffffffffffff1673ffffffffffffffffffffffffffffffffffffffff16815260200190815260200160002060003373ffffffffffffffffffffffffffffffffffffffff1673ffffffffffffffffffffffffffffffffffffffff168152602001908152602001600020549050828110156104cb576040517f08c379a00000000000000000000000000000000000000000000000000000000081526004016104c29061143f565b60405180910390fd5b6104d885338584036109a8565b60019150509392505050565b60006012905090565b6000610581338484600160003373ffffffffffffffffffffffffffffffffffffffff1673ffffffffffffffffffffffffffffffffffffffff16815260200190815260200160002060008873ffffffffffffffffffffffffffffffffffffffff1673ffffffffffffffffffffffffffffffffffffffff1681526020019081526020016000205461057c9190611571565b6109a8565b6001905092915050565b600560009054906101000a900473ffffffffffffffffffffffffffffffffffffffff1673ffffffffffffffffffffffffffffffffffffffff163373ffffffffffffffffffffffffffffffffffffffff161461061b576040517f08c379a0000000000000000000000000000000000000000000000000000000008152600401610612906114df565b60405180910390fd5b6106258282610df4565b5050565b60008060008373ffffffffffffffffffffffffffffffffffffffff1673ffffffffffffffffffffffffffffffffffffffff168152602001908152602001600020549050919050565b6060600480546106809061164f565b80601f01602080910402602001604051908101604052809291908181526020018280546106ac9061164f565b80156106f95780601f106106ce576101008083540402835291602001916106f9565b820191906000526020600020905b8154815290600101906020018083116106dc57829003601f168201915b5050505050905090565b600080600160003373ffffffffffffffffffffffffffffffffffffffff1673ffffffffffffffffffffffffffffffffffffffff16815260200190815260200160002060008573ffffffffffffffffffffffffffffffffffffffff1673ffffffffffffffffffffffffffffffffffffffff168152602001908152602001600020549050828110156107c8576040517f08c379a00000000000000000000000000000000000000000000000000000000081526004016107bf906114bf565b60405180910390fd5b6107d533858584036109a8565b600191505092915050565b60006107ed338484610b73565b6001905092915050565b6000600560009054906101000a900473ffffffffffffffffffffffffffffffffffffffff1673ffffffffffffffffffffffffffffffffffffffff163373ffffffffffffffffffffffffffffffffffffffff1614610889576040517f08c379a0000000000000000000000000000000000000000000000000000000008152600401610880906114ff565b60405180910390fd5b81600560006101000a81548173ffffffffffffffffffffffffffffffffffffffff021916908373ffffffffffffffffffffffffffffffffffffffff1602179055503373ffffffffffffffffffffffffffffffffffffffff167f580d9eecbfc4fc6fd17d9c12ea8a915c063144b340c95b52d6096c992ccc67c2836040516109109190611387565b60405180910390a260019050919050565b6000600160008473ffffffffffffffffffffffffffffffffffffffff1673ffffffffffffffffffffffffffffffffffffffff16815260200190815260200160002060008373ffffffffffffffffffffffffffffffffffffffff1673ffffffffffffffffffffffffffffffffffffffff16815260200190815260200160002054905092915050565b600073ffffffffffffffffffffffffffffffffffffffff168373ffffffffffffffffffffffffffffffffffffffff161415610a18576040517f08c379a0000000000000000000000000000000000000000000000000000000008152600401610a0f9061141f565b60405180910390fd5b600073ffffffffffffffffffffffffffffffffffffffff168273ffffffffffffffffffffffffffffffffffffffff161415610a88576040517f08c379a0000000000000000000000000000000000000000000000000000000008152600401610a7f906113ff565b60405180910390fd5b80600160008573ffffffffffffffffffffffffffffffffffffffff1673ffffffffffffffffffffffffffffffffffffffff16815260200190815260200160002060008473ffffffffffffffffffffffffffffffffffffffff1673ffffffffffffffffffffffffffffffffffffffff168152602001908152602001600020819055508173ffffffffffffffffffffffffffffffffffffffff168373ffffffffffffffffffffffffffffffffffffffff167f8c5be1e5ebec7d5bd14f71427d1e84f3dd0314c0f7b2291e5b200ac8c7c3b92583604051610b66919061151f565b60405180910390a3505050565b600073ffffffffffffffffffffffffffffffffffffffff168373ffffffffffffffffffffffffffffffffffffffff161415610be3576040517f08c379a0000000000000000000000000000000000000000000000000000000008152600401610bda906113df565b60405180910390fd5b600073ffffffffffffffffffffffffffffffffffffffff168273ffffffffffffffffffffffffffffffffffffffff161415610c53576040517f08c379a0000000000000000000000000000000000000000000000000000000008152600401610c4a9061147f565b60405180910390fd5b610c5e838383610f48565b60008060008573ffffffffffffffffffffffffffffffffffffffff1673ffffffffffffffffffffffffffffffffffffffff16815260200190815260200160002054905081811015610ce4576040517f08c379a0000000000000000000000000000000000000000000000000000000008152600401610cdb9061145f565b60405180910390fd5b8181036000808673ffffffffffffffffffffffffffffffffffffffff1673ffffffffffffffffffffffffffffffffffffffff16815260200190815260200160002081905550816000808573ffffffffffffffffffffffffffffffffffffffff1673ffffffffffffffffffffffffffffffffffffffff1681526020019081526020016000206000828254610d779190611571565b925050819055508273ffffffffffffffffffffffffffffffffffffffff168473ffffffffffffffffffffffffffffffffffffffff167fddf252ad1be2c89b69c2b068fc378daa952ba7f163c4a11628f55a4df523b3ef84604051610ddb919061151f565b60405180910390a3610dee848484610f4d565b50505050565b600073ffffffffffffffffffffffffffffffffffffffff168273ffffffffffffffffffffffffffffffffffffffff161415610e64576040517f08c379a0000000000000000000000000000000000000000000000000000000008152600401610e5b9061149f565b60405180910390fd5b610e7060008383610f48565b8060026000828254610e829190611571565b92505081905550806000808473ffffffffffffffffffffffffffffffffffffffff1673ffffffffffffffffffffffffffffffffffffffff1681526020019081526020016000206000828254610ed79190611571565b925050819055508173ffffffffffffffffffffffffffffffffffffffff16600073ffffffffffffffffffffffffffffffffffffffff167fddf252ad1be2c89b69c2b068fc378daa952ba7f163c4a11628f55a4df523b3ef83604051610f3c919061151f565b60405180910390a35050565b505050565b505050565b600081359050610f61816116f0565b92915050565b600081359050610f7681611707565b92915050565b600060208284031215610f8e57600080fd5b6000610f9c84828501610f52565b91505092915050565b60008060408385031215610fb857600080fd5b6000610fc685828601610f52565b9250506020610fd785828601610f52565b9150509250929050565b600080600060608486031215610ff657600080fd5b600061100486828701610f52565b935050602061101586828701610f52565b925050604061102686828701610f67565b9150509250925092565b6000806040838503121561104357600080fd5b600061105185828601610f52565b925050602061106285828601610f67565b9150509250929050565b611075816115c7565b82525050565b611084816115d9565b82525050565b600061109582611555565b61109f8185611560565b93506110af81856020860161161c565b6110b8816116df565b840191505092915050565b60006110d0601a83611560565b91507f7472616e736665722066726f6d207a65726f206163636f756e740000000000006000830152602082019050919050565b6000611110601b83611560565b91507f617070726f766520746f20746865207a65726f206164647265737300000000006000830152602082019050919050565b6000611150601d83611560565b91507f617070726f76652066726f6d20746865207a65726f20616464726573730000006000830152602082019050919050565b6000611190602183611560565b91507f5472616e7366657220616d6f756e74206578636565647320616c6c6f77616e6360008301527f65000000000000000000000000000000000000000000000000000000000000006020830152604082019050919050565b60006111f6601f83611560565b91507f7472616e7366657220616d6f756e7420657863656564732062616c616e6365006000830152602082019050919050565b6000611236601c83611560565b91507f7472616e7366657220746f20746865207a65726f206163636f756e74000000006000830152602082019050919050565b6000611276601883611560565b91507f6d696e7420746f20746865207a65726f206163636f756e7400000000000000006000830152602082019050919050565b60006112b6601d83611560565b91507f646563726573656420616c6c6f77616e63652062656c6f77207a65726f0000006000830152602082019050919050565b60006112f6601883611560565b91507f6f6e6c79206d73672e73656e6465722063616e206d696e7400000000000000006000830152602082019050919050565b6000611336601483611560565b91507f616c6c6f7773206f7468657220746f206d696e650000000000000000000000006000830152602082019050919050565b61137281611605565b82525050565b6113818161160f565b82525050565b600060208201905061139c600083018461106c565b92915050565b60006020820190506113b7600083018461107b565b92915050565b600060208201905081810360008301526113d7818461108a565b905092915050565b600060208201905081810360008301526113f8816110c3565b9050919050565b6000602082019050818103600083015261141881611103565b9050919050565b6000602082019050818103600083015261143881611143565b9050919050565b6000602082019050818103600083015261145881611183565b9050919050565b60006020820190508181036000830152611478816111e9565b9050919050565b6000602082019050818103600083015261149881611229565b9050919050565b600060208201905081810360008301526114b881611269565b9050919050565b600060208201905081810360008301526114d8816112a9565b9050919050565b600060208201905081810360008301526114f8816112e9565b9050919050565b6000602082019050818103600083015261151881611329565b9050919050565b60006020820190506115346000830184611369565b92915050565b600060208201905061154f6000830184611378565b92915050565b600081519050919050565b600082825260208201905092915050565b600061157c82611605565b915061158783611605565b9250827fffffffffffffffffffffffffffffffffffffffffffffffffffffffffffffffff038211156115bc576115bb611681565b5b828201905092915050565b60006115d2826115e5565b9050919050565b60008115159050919050565b600073ffffffffffffffffffffffffffffffffffffffff82169050919050565b6000819050919050565b600060ff82169050919050565b60005b8381101561163a57808201518184015260208101905061161f565b83811115611649576000848401525b50505050565b6000600282049050600182168061166757607f821691505b6020821081141561167b5761167a6116b0565b5b50919050565b7f4e487b7100000000000000000000000000000000000000000000000000000000600052601160045260246000fd5b7f4e487b7100000000000000000000000000000000000000000000000000000000600052602260045260246000fd5b6000601f19601f8301169050919050565b6116f9816115c7565b811461170457600080fd5b50565b61171081611605565b811461171b57600080fd5b5056fea2646970667358221220b072ced131ed51fb4664ca281817245e9a96dd9fdf152564c60d23497026170764736f6c63430008000033",
  "immutableReferences": {},
  "source": "//\"SPDX-License-Identifier: UNLICENSED\"\npragma solidity ^0.8.0;\nimport './CDI22.sol';\n\ncontract CDIminter is CDI22 {\n\taddress public minter;\n\n\tevent NewMiner(address indexed from, address to);\n\n\tconstructor() public payable CDI22('CDIbank', 'bank') {\n\t\tminter = msg.sender;\n\t}\n\n\tfunction newMiner(address CDIbank) public returns (bool) {\n\t\trequire(msg.sender == minter, 'allows other to mine');\n\t\tminter = CDIbank;\n\t\temit NewMiner(msg.sender, CDIbank);\n\t\treturn true;\n\t}\n\n\tfunction mint(address account, uint256 amount) public {\n\t\trequire(msg.sender == minter, 'only msg.sender can mint');\n\t\t_mint(account, amount);\n\t}\n}",
  "sourcePath": "/Users/damiana/Documents/Coding Projects/ 2MBrody22/Bank/contracts/CDIminer.sol",
  "compiler": {
    "name": "solc",
    "version": "0.8.0+commit.c7dfd78e.Emscripten.clang"
  },
  "schemaVersion": "3.4.1",
  "updatedAt": "2021-07-25T11:44:06.663Z",
  "devdoc": {
    "kind": "dev",
    "methods": {},
    "version": 1
  },
  "userdoc": {
    "kind": "user",
    "methods": {},
    "version": 1
  }
}