{
  "contractName": "CDIexchange",
  "abi": [
    {
      "inputs": [
        {
          "internalType": "contract CDItoken",
          "name": "_cditoken",
          "type": "address"
        }
      ],
      "payable": false,
      "stateMutability": "nonpayable",
      "type": "constructor"
    },
    {
      "anonymous": false,
      "inputs": [
        {
          "indexed": false,
          "internalType": "address",
          "name": "consumer",
          "type": "address"
        },
        {
          "indexed": false,
          "internalType": "address",
          "name": "cditoken",
          "type": "address"
        },
        {
          "indexed": false,
          "internalType": "uint256",
          "name": "quantity",
          "type": "uint256"
        },
        {
          "indexed": false,
          "internalType": "uint256",
          "name": "ratio",
          "type": "uint256"
        }
      ],
      "name": "Purchase",
      "type": "event"
    },
    {
      "anonymous": false,
      "inputs": [
        {
          "indexed": false,
          "internalType": "address",
          "name": "consumer",
          "type": "address"
        },
        {
          "indexed": false,
          "internalType": "address",
          "name": "cditoken",
          "type": "address"
        },
        {
          "indexed": false,
          "internalType": "uint256",
          "name": "quantity",
          "type": "uint256"
        },
        {
          "indexed": false,
          "internalType": "uint256",
          "name": "ratio",
          "type": "uint256"
        }
      ],
      "name": "Traded",
      "type": "event"
    },
    {
      "constant": true,
      "inputs": [],
      "name": "cditoken",
      "outputs": [
        {
          "internalType": "contract CDItoken",
          "name": "",
          "type": "address"
        }
      ],
      "payable": false,
      "stateMutability": "view",
      "type": "function"
    },
    {
      "constant": true,
      "inputs": [],
      "name": "name",
      "outputs": [
        {
          "internalType": "string",
          "name": "",
          "type": "string"
        }
      ],
      "payable": false,
      "stateMutability": "view",
      "type": "function"
    },
    {
      "constant": true,
      "inputs": [],
      "name": "ratio",
      "outputs": [
        {
          "internalType": "uint256",
          "name": "",
          "type": "uint256"
        }
      ],
      "payable": false,
      "stateMutability": "view",
      "type": "function"
    },
    {
      "constant": false,
      "inputs": [],
      "name": "purchased",
      "outputs": [],
      "payable": true,
      "stateMutability": "payable",
      "type": "function"
    },
    {
      "constant": false,
      "inputs": [
        {
          "internalType": "uint256",
          "name": "_quantity",
          "type": "uint256"
        }
      ],
      "name": "traded",
      "outputs": [],
      "payable": false,
      "stateMutability": "nonpayable",
      "type": "function"
    }
  ],
  "bytecode": "0x60806040526040518060400160405280601981526020017f43656461722044657369676e20496e632045786368616e6765000000000000008152506000908051906020019061004f9291906100dd565b506107d060025534801561006257600080fd5b50604051610a21380380610a218339818101604052602081101561008557600080fd5b810190808051906020019092919050505080600160006101000a81548173ffffffffffffffffffffffffffffffffffffffff021916908373ffffffffffffffffffffffffffffffffffffffff16021790555050610182565b828054600181600116156101000203166002900490600052602060002090601f016020900481019282601f1061011e57805160ff191683800117855561014c565b8280016001018555821561014c579182015b8281111561014b578251825591602001919060010190610130565b5b509050610159919061015d565b5090565b61017f91905b8082111561017b576000816000905550600101610163565b5090565b90565b610890806101916000396000f3fe60806040526004361061004a5760003560e01c806306fdde031461004f5780634250f555146100df57806371ca337d146101365780637b3d6c6d14610161578063879f9c961461019c575b600080fd5b34801561005b57600080fd5b506100646101a6565b6040518080602001828103825283818151815260200191508051906020019080838360005b838110156100a4578082015181840152602081019050610089565b50505050905090810190601f1680156100d15780820380516001836020036101000a031916815260200191505b509250505060405180910390f35b3480156100eb57600080fd5b506100f4610244565b604051808273ffffffffffffffffffffffffffffffffffffffff1673ffffffffffffffffffffffffffffffffffffffff16815260200191505060405180910390f35b34801561014257600080fd5b5061014b61026a565b6040518082815260200191505060405180910390f35b34801561016d57600080fd5b5061019a6004803603602081101561018457600080fd5b8101908080359060200190929190505050610270565b005b6101a46105b9565b005b60008054600181600116156101000203166002900480601f01602080910402602001604051908101604052809291908181526020018280546001816001161561010002031660029004801561023c5780601f106102115761010080835404028352916020019161023c565b820191906000526020600020905b81548152906001019060200180831161021f57829003601f168201915b505050505081565b600160009054906101000a900473ffffffffffffffffffffffffffffffffffffffff1681565b60025481565b80600160009054906101000a900473ffffffffffffffffffffffffffffffffffffffff1673ffffffffffffffffffffffffffffffffffffffff166370a08231336040518263ffffffff1660e01b8152600401808273ffffffffffffffffffffffffffffffffffffffff1673ffffffffffffffffffffffffffffffffffffffff16815260200191505060206040518083038186803b15801561031057600080fd5b505afa158015610324573d6000803e3d6000fd5b505050506040513d602081101561033a57600080fd5b8101908080519060200190929190505050101561035657600080fd5b6000600254828161036357fe5b049050803073ffffffffffffffffffffffffffffffffffffffff1631101561038a57600080fd5b600160009054906101000a900473ffffffffffffffffffffffffffffffffffffffff1673ffffffffffffffffffffffffffffffffffffffff166323b872dd3330856040518463ffffffff1660e01b8152600401808473ffffffffffffffffffffffffffffffffffffffff1673ffffffffffffffffffffffffffffffffffffffff1681526020018373ffffffffffffffffffffffffffffffffffffffff1673ffffffffffffffffffffffffffffffffffffffff1681526020018281526020019350505050602060405180830381600087803b15801561046757600080fd5b505af115801561047b573d6000803e3d6000fd5b505050506040513d602081101561049157600080fd5b8101908080519060200190929190505050503373ffffffffffffffffffffffffffffffffffffffff166108fc829081150290604051600060405180830381858888f193505050501580156104e9573d6000803e3d6000fd5b507f7052911c5aef4de26c5fa67840c861bc4ce10fc26d46132b6ad21c9b164465e833600160009054906101000a900473ffffffffffffffffffffffffffffffffffffffff1684600254604051808573ffffffffffffffffffffffffffffffffffffffff1673ffffffffffffffffffffffffffffffffffffffff1681526020018473ffffffffffffffffffffffffffffffffffffffff1673ffffffffffffffffffffffffffffffffffffffff16815260200183815260200182815260200194505050505060405180910390a15050565b60006002543402905080600160009054906101000a900473ffffffffffffffffffffffffffffffffffffffff1673ffffffffffffffffffffffffffffffffffffffff166370a08231306040518263ffffffff1660e01b8152600401808273ffffffffffffffffffffffffffffffffffffffff1673ffffffffffffffffffffffffffffffffffffffff16815260200191505060206040518083038186803b15801561066257600080fd5b505afa158015610676573d6000803e3d6000fd5b505050506040513d602081101561068c57600080fd5b810190808051906020019092919050505010156106a857600080fd5b600160009054906101000a900473ffffffffffffffffffffffffffffffffffffffff1673ffffffffffffffffffffffffffffffffffffffff1663a9059cbb33836040518363ffffffff1660e01b8152600401808373ffffffffffffffffffffffffffffffffffffffff1673ffffffffffffffffffffffffffffffffffffffff16815260200182815260200192505050602060405180830381600087803b15801561075157600080fd5b505af1158015610765573d6000803e3d6000fd5b505050506040513d602081101561077b57600080fd5b8101908080519060200190929190505050507f46661dab58311a6838247afecbee792192b4f27fc8b3e7168c66bc55ec2e404e33600160009054906101000a900473ffffffffffffffffffffffffffffffffffffffff1683600254604051808573ffffffffffffffffffffffffffffffffffffffff1673ffffffffffffffffffffffffffffffffffffffff1681526020018473ffffffffffffffffffffffffffffffffffffffff1673ffffffffffffffffffffffffffffffffffffffff16815260200183815260200182815260200194505050505060405180910390a15056fea265627a7a723158204d83924f1f45568154bbc1bb98819944586c99c7d5ee80940625799e82de57e664736f6c63430005100032",
  "source": "pragma solidity ^0.5.0;\n\nimport './CDItoken.sol';\n\ncontract CDIexchange {\n\tstring public name = 'Cedar Design Inc Exchange';\n\tCDItoken public cditoken;\n\tuint public ratio = 2000;\n\n\tevent Purchase(\n\t\taddress consumer,\n\t\taddress cditoken,\n\t\tuint quantity,\n\t\tuint ratio\n\t);\n\n\tevent Traded(\n\t\taddress consumer,\n\t\taddress cditoken,\n\t\tuint quantity,\n\t\tuint ratio\n\t);\n\n\tconstructor(CDItoken _cditoken) public {\n\t\tcditoken = _cditoken;\n\t}\n\n\tfunction purchased() public payable {\n\t\tuint quantity = msg.value * ratio;\n\t\trequire(cditoken.balanceOf(address(this)) >= quantity);\n\t\tcditoken.transfer(msg.sender, quantity);\n\t\temit Purchase(msg.sender, address(cditoken), quantity, ratio);\n\t}\n\n\tfunction traded(uint _quantity) public{\n\t\trequire(cditoken.balanceOf(msg.sender) >= _quantity);\n\t\tuint XRPquantity = _quantity/ratio;\n\t\trequire(address(this).balance >= XRPquantity);\n\t\tcditoken.transferFrom(msg.sender, address(this), _quantity);\n\t\tmsg.sender.transfer(XRPquantity);\n\t\temit Traded(msg.sender, address(cditoken), _quantity, ratio);\n\t}\n}",
  "sourcePath": "/Users/damiana/Documents/Coding Projects/ My Projects/Exchange/src/contracts/CDI-Exchange.sol",
  "compiler": {
    "name": "solc",
    "version": "0.5.16+commit.9c3226ce.Emscripten.clang"
  },
  "schemaVersion": "3.4.1",
  "updatedAt": "2021-07-21T13:56:26.136Z",
  "networkType": "ethereum",
  "devdoc": {
    "methods": {}
  },
  "userdoc": {
    "methods": {}
  }
}